:020000040000fa
:080000008892040000000000da
:020000040000fa
:1004000042060400000000001c0804000000000078
:10041000d8090400000000005a0a0400000000008f
:10042000400b040000000000ec0d04000000000080
:100430000c0e0400000000005a0e04000000000032
:1004400056100400000000001c0f04000000000013
:10045000d60f04000000000062100400000000003d
:100460006218040000000000b02604000000000034
:10047000dc26040000000000ae650400000000005f
:10048000a273040000000000aa760400000000002f
:10049000881f780070f583000000e0000100320042
:1004a0000000010040f583000000e0000100320080
:1004b00000000100b0ec83000000e0000100320009
:1004c0000000010080ec83000000e0000100320029
:1004d0000000010000eb27001004e00026003a00b5
:1004e00050f5830061f583000004eb00d260260024
:1004f0009301200078010700f2352f00e3c62300a6
:1005000000004100818049000804e800e80f540021
:10051000f6ff3a0050f58b0061f58b0088d9270073
:10052000d26026009301200050f5830061f583001e
:1005300069010700f2352f00e3c6230000004100e7
:100540008180490050f58b0061f58b00009cbe0056
:1005500080e12700800f5400f1ff3a00a0f08300f3
:10056000b1f0830090ec8b00a1ec8b0011c0b300c4
:1005700000eb270001487800d2602600930120009c
:1005800050f5830061f5830053010700f2352f0019
:10059000e3c62300000041008180490050f58b0034
:1005a00061f58b0022d92700120178007f016100dc
:1005b0004211dd0083d92700030141001202be0071
:1005c00094ec8b00a5ec8b000089be0090ec8300be
:1005d000a1ec83004008de0000f0a1004f04780089
:1005e000000006006022b800060220000000d000d3
:1005f0008180d2000482d2008582d2000000a00057
:100600000202520083825a000300310002024200bb
:1006100083824a000000a1000603e900f3ff3a00cc
:1006200000000600889fbe008a9fbe00010578007a
:100630000100e0000400350008003c000000e0007c
:10064000200032000500370060001000e080180034
:1006500002003b0001f02c001a0037000004be002d
:100660006011b8006b0920000982cf000200390038
:100670000882cf000441b000694252000e003200ef
:1006800008003b0082817100610164008904d1008f
:100690000884d3008b05e8000442e800f9ff3a0023
:1006a000050037000804440089844c008b05e900ec
:1006b0000442e900fbff3a00b40007000af0a7007b
:1006c00001f0a0004f05be004f04be000000060070
:1006d00003f0a200889fbe008a9fbe008c1f780096
:1006e000d0000700d70033006450e1004f00320013
:1006f0006420e1005200320003826c0007003b00de
:100700000905d0000306d000820f54000c065d00de
:1007100002003900020032008901780003067800e7
:100720008582550004003d000003fd008103fd00ab
:100730008502ea008b854200840f720002003b00b4
:1007400060001000e08018006011b8000005eb00a8
:100750007a28e1000a00390006007800c75ddd0054
:10076000f707b200878075002d0037008281710085
:100770000a017800610560008180d1000080d3000b
:100780008502e900f9ff3b00060440008784480029
:1007900002003b0060041400e0841c000988a300f0
:1007a000070032008a81710082817100610164005a
:1007b0008904d1000884d3008b05e80017003700b6
:1007c0000978a30013003a000b00e0001300340086
:1007d0008b05e9000804440089844c000a44740035
:1007e0000978a3000d003a000b00e0000700340078
:1007f0008b05e9000804440089844c0001003a009c
:100800000b0020000978a300f7ff32000001eb0085
:1008100002003700828171000a0178005b00070046
:100820000cf0a70001f0a0008f0037006420e10069
:1008300002003a00838f6c008f0033000801be0075
:100840000200be0088003700889fbe008a9fbe005d
:100850008c1f7800730007007a00330003866c0059
:100860006450e1002e0032006420e10033003200c9
:100870006150e1002f0032006120e10031003200c0
:1008800085855500eb07b000090020000804200012
:10089000050037000804440089844c000a00310038
:1008a0000603430087834b000001530081815b00f6
:1008b000f8ff33000203be000800a0000804440053
:1008c00089844c00f6ff3900c639dd0083017300ce
:1008d00001003200130020008904d1000884d300f5
:1008e0000998a300050032000800a7000300a0003b
:1008f0008904d1000884d3008b05e8008904d10065
:100900000884d3000001eb000281d2001f00070021
:1009100001f0a1000cf0a70001f0a0005200370088
:100920006420e100540032000801be000200be0055
:10093000f7ff37006120e1004f0032006000b8008f
:10094000f3ff37000000200001f82700f0ff370018
:10095000839f68000100e00002003d00600010007d
:10096000e08018000300e00002003d00600111007b
:10097000e08119001bff07004f00e00002003b0070
:1009800060001000e08018000000060081002000d8
:10099000618055000b003d000b00200061fe2f0020
:1009a0000100e1001d0034008281710061016400da
:1009b0008904d1000884d3000000e800faff3a005f
:1009c00071002000610064000300700002006000fc
:1009d0000900320061044400e0844c000988a5004d
:1009e000050032008b05e8006808e10002003a00cb
:1009f0008904d1000884d300f20f20000258e100de
:100a000005003d00c75ddd00f907b2008980750073
:100a100008007800000006000bf827008b00780023
:100a2000000005000004be00160007000003be0021
:100a30000405be000200be0012000700844f7500ce
:100a4000000006000200be006450e1000500360010
:100a50006420e100020036000968a30001003a00aa
:100a60000800be000160a0004f0678004f05be00e0
:100a70004f04be0000000600f0ff2f00f1ff27002a
:100a8000f9ff3700c70ade00f107b200f50fb20028
:100a900008003200e1cf4200020032000170a000e5
:100aa00024000500810f70000100320004080500d9
:100ab00044000500810f700002003a001400050098
:100ac0008502e9000000400081c04800fcff3b00b7
:100ad0000170a00024000500020ab900001bb90043
:100ae0000200b800810042008100430000000600bf
:100af0000200fa00e27f020000000000248e0200e3
:100b000000000000e81c0200000000000000eb00f4
:100b10006e4b02000000000010c888000000eb00cf
:100b20006e4b02000000000020c888000000eb00af
:100b3000c03302000000000030c888000000eb0055
:100b4000c03302000000000040c888000000eb0035
:100b5000c03302000000000050c888000000eb0015
:100b6000c03302000000000040c888000000eb0015
:100b7000c03302000000000060c888000000eb00e5
:100b8000c03302000000000070c888000000eb00c5
:100b9000c03302000000000080c88800409121009e
:100ba000810c2000e44302000000000090c888008f
:100bb0008e007800b0c0b3002c3c020000000000a2
:100bc00020d588008e007800b0c0b3002c3c020015
:100bd0000000000030d588008e007800b0c0b3005f
:100be0002c3c02000000000040d588008e007800f8
:100bf000b0c0b3002c3c02000000000050d58800bb
:100c000061e0a800c062a900c042a900c442a800d7
:100c1000d2c2a8008660a9009660a80001902000ba
:100c200030002000801f78000000eb00801f78005b
:100c300006082000070020008102780094002000b0
:100c400093c0b300228020008000eb0020642000cd
:100c50002252020000000000e4875700a1e92800aa
:100c60000e01780090c0b300b655020000000000ed
:100c70008a1e0200000000000080eb000080fa00e5
:100c8000000006000400fa0010079800b07e020081
:100c900000000000b81e0200000000008476020080
:100ca000000000000040eb002e8002000000000069
:100cb00001f0200030002000801f78000000eb00d1
:100cc000801f780006302000070020008102780095
:100cd000c4002000c3c0b300229020008000eb00bd
:100ce000c08120002252020000000000e48757006b
:100cf00061ea28000e017800c0c0b300b6550200ba
:100d0000000000000100210030002000801f78005a
:100d10000000eb00801f780006082000070020007c
:100d200081027800d4002000d3c0b30022f020005c
:100d30008000eb00809d2000225202000000000095
:100d4000e4875700b1eb28000e017800d0c0b30053
:100d5000b6550200000000000120210030002000f4
:100d6000801f78000000eb00801f78000610200034
:100d70000700200081027800e4002000e3c0b300f7
:100d8000220021008000eb00a0a5200022520200da
:100d900000000000e4875700a1ec28000e01780055
:100da000e0c0b300b6550200000000000130210091
:100db00030002000801f78000000eb00801f7800ca
:100dc000060820000700200081027800f4002000bf
:100dd000f3c0b300222021008000eb0000b420000b
:100de0002252020000000000e487570071ed280045
:100df0000e017800f0c0b300b655020000000000fc
:100e00000140210030002000801f78000000eb002e
:100e1000801f78000608200007002000810278006b
:100e20004401200043c1b300223021008000eb00c8
:100e3000c0de20002252020000000000e4875700bc
:100e400051ee28000e01780040c1b300b6550200f3
:100e5000000000000150210030002000801f7800b9
:100e60000000eb00801f780006082000070020002b
:100e700081027800c4012000c3c1b30022402100d8
:100e80008000eb00c0e020002252020000000000c1
:100e9000e487570001ef28000e017800c0c1b300bd
:100ea000b655020000000000016021003000200063
:100eb000801f78000000eb00801f780006082000eb
:100ec0000700200081027800e4012000e3c1b300a4
:100ed000225021008000eb00a0e5200022520200f9
:100ee00000000000e4875700d1ef28000e017800d1
:100ef000e0c1b300b65502000000000001902100df
:100f000030002000801f78000000eb00801f780078
:100f1000060820000700200081027800a4022000bb
:100f2000a3c2b300228021008000eb0060052100f5
:100f30002252020000000000e4875700c1f02800a0
:100f40000e017800a0c2b300b655020000000000f8
:100f50000170210030002000801f78000000eb00ad
:100f6000801f78000608200007002000810278001a
:100f70008402200083c2b300226021008000eb00c5
:100f8000c0f120002252020000000000e487570058
:100f9000e1f128000e01780080c2b300b6550200ce
:100fa000000000000180210030002000801f780038
:100fb0000000eb00801f78000608200007002000da
:100fc000810278009402200093c2b30022702100b5
:100fd0008000eb0060fd20002252020000000000b3
:100fe000e4875700e1f228000e01780090c2b300b8
:100ff000b655020000000000b7f328008e1f7800ed
:101000000003eb002506210014c0b3006011b800f6
:101010000053270001002000c4100200000000005f
:101020008f87e90060d5880000c0eb00f65702000a
:1010300000000000fcff37004200fa00701f98001b
:10104000f6004700c0f4280009000900b018780035
:101050004101b1004001b100b85b02000000000096
:1010600070079800010f98000000eb00000f780057
:10107000b85b020000000000800078007e00900055
:1010800000805000002798000e2090000000e00033
:1010900003003d008e2090008100ea0001279800a7
:1010a0000e2190006110b900500798006107980068
:1010b0000000eb00400798001c003700ce019000b4
:1010c0004e009000f600470000004000608078006d
:1010d000800078005e0090000080500000017800e1
:1010e000f60047000380410001004000020878003c
:1010f0004e009000f600470000004000608078003d
:101100000000e00006003c004e009000f6004700a2
:1011100000004000810040000000eb0080087800e3
:101120004e0090000000e800400798004e0090003c
:10113000e90f5000e1ff3400b85b0200000000003e
:1011400070079800010f98000000eb00300798002e
:1011500090c8800075014700410620002846020023
:1011600000000000100f98000e0037003e009000b5
:10117000800078001e089000008040001040780039
:101180000080fb00f60047000000400081004000a6
:1011900080382100800878003e0090000000e800c0
:1011a000300798003e009000800078001e089000f4
:1011b00000804000104078000004e000ebff3a009f
:1011c00040d58000750147008000eb00623e0200c0
:1011d00000000000f0aa21009040780041579800dc
:1011e00040d580000e410200000000004e509000eb
:1011f000e64f5000060032004e509000e14f500084
:10120000030032004e509000e24f500022003a009e
:10121000a00220000e0040004201200080c0eb0030
:101220000a620200000000000000eb0020079800a6
:101230000000eb0040079800130037004e009000bc
:10124000f600470000004000608078000000e000e9
:101250000a0034002e009000a10220008e80400081
:1012600000004000010040004e019000020878009c
:101270002e0090000000e800200798004e0090002b
:101280000000e800400798004e009000e90f500071
:10129000eaff3400350037000000eb0040079800fb
:1012a0002f0037000000eb00100798004e00900060
:1012b000f600470000004000608078000000e00079
:1012c0002400340030d58000750147008000eb0019
:1012d000623e0200000000009e0090002e00900080
:1012e000808f500011003c001e009000a1022000e1
:1012f0008e80400000004000e08078004e009000aa
:10130000808f500009003a004e009000f600470020
:1013100000004000e0807800e0aa21001040780042
:101320000080fb00808f500004003a0010c880004d
:101330007c4e0200000000005057980030d580001d
:101340000e410200000000001e0090000000e800b6
:10135000100798004e0090000000e8004007980039
:101360004e009000e90f5000ceff3400703821008d
:101370009e0f10000800340030c88000a102200039
:101380008e804000f83602000000000050579800a0
:101390000000eb00000f7800401f20001e0f4000ef
:1013a000401f20006a5902000000000030ff370093
:1013b0001000fa00500798000080eb008080eb00de
:1013c000008fbe00b85b02000000000020079800fc
:1013d0003107980020d580006801470001fa2000fd
:1013e000623e020000000000028727001200780021
:1013f00031002e00010060000009780001872700fd
:10140000210090000000a0000010a1000020a10019
:101410000030a100a000980030d58000680147008e
:101420008000eb00623e020000000000e0aa210004
:1014300090407800008727006140980030d58000f8
:101440000e41020000000000a2880200000000001f
:1014500020d580000e410200000000001e00780030
:1014600070079800b85b0200000000008000780060
:101470002e00900000805000600798006e019000e0
:101480000200e00003003d006e0090000000ea0052
:10149000600798006e0090007e019000800051006f
:1014a00000fa2000010050006a590200000000000c
:1014b000c4ff37001c00fa00500f9800e6004700f8
:1014c00000f6280009000900b01878004101b100b9
:1014d0004001b10011ab210060c0b300804878002a
:1014e00040d58000640147008000eb00623e0200ae
:1014f00000000000f1aa210060c0b300804878001d
:1015000030d58000640147008000eb00623e02009d
:10151000000000004802020000000000a2002000bd
:10152000110009000200d8008000fd008040780012
:10153000e0aa21000148780030d580000e41020069
:101540000000000030c88000640147008000eb000c
:101550004435020000000000100798000000eb0076
:10156000000f78001f0037001e00780000004000c8
:10157000800078001e0090000080400090007800fd
:10158000e0aa2100104078000080fb00808f50000e
:1015900013003a0030d58000640147008000eb0062
:1015a000623e02000000000048020200000000004d
:1015b000a2002000110009000200d8008000fd00f8
:1015c00080407800e0aa21000148780030d58000f2
:1015d0000e410200000000000080eb00000f7800c8
:1015e0001e0fe8001e007800000040008000780018
:1015f0001e0090000080400010007800e10f4000c5
:10160000d9ff3a00e60047001e00900009000900db
:10161000b01878004101b1004001b10030c880002d
:10162000640147008000eb00443502000000000028
:1016300010079800e6004700a20020001e0090005e
:10164000b00207000000e000c4ff3200f1aa210050
:1016500010c0b3008048780040d580000e410200e1
:101660000000000011ab210010c0b30080487800da
:1016700000c0eb00f657020000000000fcff37003e
:101680001000fa004007980002122a0073002000a0
:101690000000eb00b6880200000000008000eb00b4
:1016a0000040eb009e8b02000000000011002000b3
:1016b00010c0b3009e8b020000000000410020001b
:1016c00020c0b3009e8b02000000000061002000db
:1016d00030c0b3009e8b020000000000810020009b
:1016e00040c0b3009e8b02000000000001012000fa
:1016f00050c0b3009e8b020000000000f17f20006c
:101700000040eb009e8a0200000000008040eb00d9
:101710000040eb00208902000000000011c0b3006f
:101720000040eb00208902000000000021c0b3004f
:101730000040eb00208902000000000031c0b3002f
:101740000040eb00208902000000000041c0b3000f
:101750000040eb00208902000000000051c0b300ef
:101760000040eb0020890200000000000040eb0078
:101770004047980040d58000660147008000eb009c
:10178000623e020000000000f0aa210090407800b4
:10179000514798000040eb002047980020c8800087
:1017a000264b0200000000000000e00009003200ab
:1017b000f0aa210010407800e34f500005003a00e5
:1017c000f0aa210041c0b3000148780010c0b30066
:1017d0002047980080c8800082330200000000008b
:1017e000000f78001e00780010407800e14f500094
:1017f0001b003a00f0aa2100904078003147980081
:101800003e4090000080fb00700798007e00900032
:10181000e10f500008003200fe009000e18f500000
:101820000c003500fe00900063805000e20f500075
:1018300008003e0004003700f1aa210030c0b300c8
:101840008048780003003700f1aa210010c0b300df
:101850008048780010c0b30020479800130037007c
:101860001e00780010407800e24f50000f003a0050
:10187000f0aa210010407800e34f50000800320029
:10188000f0aa210010407800e44f5000040032001c
:10189000f0aa210010407800e54f500003003a0004
:1018a0004e4090000040e800404798004e409000b5
:1018b000e24f50000d003600f0aa210010407800e1
:1018c000e34f500004003200f0aa210010407800dd
:1018d000e44f500005003a00f0aa210051c0b300c7
:1018e0000148780010c0b3002047980050d5800010
:1018f000660147008000eb00623e0200000000002d
:1019000010ab21009040780000ab21000148780026
:1019100010c88000264b0200000000000000e0001c
:101920000d003200f0aa210010407800e34f500073
:1019300004003200f0aa210010407800e44f50006b
:1019400005003a0010c0b30020479800f1aa21001a
:1019500050c0b3008048780000ab21009040780070
:10196000f0aa21001040780080cf5000070032001c
:101970002e4090000004e00004003a0000ab21007b
:1019800090407800f0aa210001487800f0aa2100d8
:10199000904078005e40900080cf500019003200e7
:1019a000f0aa2100104078000080fb00600798003a
:1019b0006e009000e30f500012003200ee00900025
:1019c000e38f500004003c006e009000e10f5000d7
:1019d000050032000b003700ee009000e48f50004d
:1019e00004003200070037000040eb004047980039
:1019f0000400370060d58000e6004700fc130200b9
:101a000000000000f0aa21009040780000ab210007
:101a10001040780080cf50006500320020d5800053
:101a2000660147008000eb00623e020000000000fb
:101a300001872700210090000000a0000010a100f5
:101a40000020a1000030a100a000980030d5800047
:101a5000660147008000eb00623e020000000000cb
:101a6000e0aa21009040780000872700614098009c
:101a700030d580000e41020000000000f0aa2100d5
:101a8000104078000080fb00500798005e00900036
:101a9000e30f500024003200de009000e38f50007e
:101aa00007003c005e009000e10f50000b00320088
:101ab000de009000e28f5000110032003500370048
:101ac0005e009000e50f500029003200de0090001b
:101ad000e58f50001d0035002e00370000872700dd
:101ae0009000780032002e00828060000140a0004b
:101af00001087800a28802000000000025003700dd
:101b0000028727001200780031002e0001006000db
:101b1000010420000100700000097800a288020082
:101b2000000000001b0037000087270090007800ad
:101b300032002e00828060008101b300010878002d
:101b4000a288020000000000120037000087270072
:101b50009000780032002e00828060000120a000fa
:101b600001087800a2880200000000000900370088
:101b7000028727001200780031002e00010060006b
:101b8000010220000100700000097800a288020014
:101b90000000000020d580000e410200000000007f
:101ba000f0aa21009040780010ab21000148780095
:101bb00050d580000e4102000000000040d580009a
:101bc0000e41020000000000401f20006a59020080
:101bd00000000000e7fe37000400fa00100798003c
:101be00040d580000e01e8008000eb00623e02005c
:101bf00000000000f0aa2100104f780040d58000be
:101c00000e41020000000000401f20006a5902003f
:101c100000000000f2ff37000800fa0030079800cb
:101c2000de8602000000000000c0eb0020479800a4
:101c300000c0eb00104798001e409000004f780055
:101c40002e4090001047980004870200000000001a
:101c500020479800ae4090001e40900080cf50007a
:101c600010003a002e4090009e4f50000d003200b0
:101c70002e409000e14f40000a0032002e409000bc
:101c80008080fb00a0e82800614078004047980071
:101c900040c88000e4004700f83602000000000061
:101ca00030479800200320006a590200000000001d
:101cb000e1ff37000e00fa0060079800e8004700d7
:101cc00040f7280003000900b05878004100b10037
:101cd0004000b1000000eb00000f78000000eb00b6
:101ce0003007980021ab21000040eb0080487800cd
:101cf0000000370040c88000640147008000eb000e
:101d000044350200000000001007980021ab2100bc
:101d100010c0b300804878001e0178001e009000bb
:101d200090407800680047000000410001487800ba
:101d30001e0fe800300020009e0f100007003c003e
:101d40001e0078003007980060c88000e600470059
:101d5000f836020000000000e6ff370021ab21004a
:101d60000040eb0080487800680047009040780011
:101d700010c3b30080cf50001e003a006800470037
:101d80009040900020c3b30080cf500019003a006b
:101d900068004700a040900030c3b30080cf5000df
:101da00014003a0068004700b040900040c3b30000
:101db00080cf50000f003a000000eb00000f7800c9
:101dc0000000eb003007980010c0b30050479800a7
:101dd00060c88000e6004700f836020000000000fe
:101de00080c88000e5004700f836020000000000cf
:101df0000e0037000080eb00000f78000080eb0041
:101e00003007980020c0b3005047980060c8800099
:101e1000e6004700f83602000000000080c880009d
:101e2000e5004700f8360200000000000000eb006b
:101e3000000f7800afff37000600fa001007980087
:101e400001c1b30020c0b300267d020000000000e5
:101e5000c47a02000000000020ab2100104078008e
:101e60000004e0004d003a00c05d20006a59020005
:101e700000000000c47a020000000000f0aa210067
:101e8000104078000080fb00200798002e00900092
:101e9000e30f50002b0032002e009000e30f5000a3
:101ea00007003c002e009000e10f500014003200ab
:101eb0002e009000e20f500017003200370037006c
:101ec0002e009000e50f50002f0032002e009000f1
:101ed000e50f5000210035002e009000e60f500065
:101ee000010032002d00370082f728008040eb000f
:101ef0000040eb00b27d0200000000002700370028
:101f000082f828008040eb000040eb00b27d020028
:101f1000000000002100370012f928008040eb008b
:101f20000040eb00b27d020000000000e2f9280052
:101f30008040eb0010c0b300b27d02000000000042
:101f40001600370072fa28008040eb000040eb00da
:101f5000b27d02000000000010003700d2fa280015
:101f60008040eb000040eb00b27d0200000000006a
:101f700072fb28008040eb0010c0b300b27d02006d
:101f8000000000000500370022fc28008040eb0024
:101f90000040eb00b27d020000000000401f200066
:101fa0006a59020000000000abff37000800fa0089
:101fb000200798000000370060c880000e81e8000c
:101fc0008000eb004435020000000000000f7800a4
:101fd000c47a0200000000001e00780010007800a3
:101fe000300798003e009000e10f50001d003200c5
:101ff0003e009000e10f500007003c003e009000c2
:10200000e10f40000b0032003e0090000000e000b5
:102010000e003200e8ff37003e009000e20f500053
:10202000160032003e009000e30f5000190032000d
:10203000e1ff370002fd28008040eb000040eb008c
:10204000b27d020000000000dbff3700f2fd280037
:102050008040eb000040eb00b27d02000000000079
:10206000d5ff3700b2fe28008040eb000040eb00b7
:10207000b27d020000000000cfff3700d2fe280032
:102080008040eb000040eb00b27d02000000000049
:10209000c9ff370002ff28008040eb000040eb0042
:1020a000b27d020000000000c3ff37000400fa0008
:1020b0001007980000c0eb00f65702000000000077
:1020c000fcff37000600fa0010079800210798006f
:1020d00040d580000e0178008000eb00623e0200d7
:1020e00000000000f1aa210050c0b3008048780031
:1020f00040d580000e410200000000000080fa0080
:10210000000006000a00fa00100798002107980056
:10211000320798000000eb00000f78001200370033
:102120001e00780000004000800078001e00900033
:1021300000804000100178001e0078000000400080
:10214000800078002e009000008040001000780091
:10215000800f5100030032000000eb0040079800a0
:10216000060037001e0fe8003e0090009e0f100092
:10217000ebff350010002000400798004e00900053
:102180000080fa00000006001600fa002007980000
:10219000310798004207980053079800444f980071
:1021a00075079800060f9800170f980060ef210040
:1021b000104078000004e00006003200ceb897001e
:1021c000b0c8b300804878000000eb00200f9800f2
:1021d00046003700ad0307005a02070010079800b9
:1021e0001e0090000000e00007003a00af03070067
:1021f000ceb8970060c8b300804878008000eb003c
:10220000210f9800390037009e00900010c0b300e5
:10221000f06098001e0090002e019000be0190001a
:1022200072009800030898001e0090004e01900074
:10223000de01900012089800230898001e0090000c
:10224000ce499000636098001e009000fe00900050
:10225000110098001e0090000e09900022009800c6
:102260001e0890000000e0001a0032001e089000d6
:102270009026020000000000004f7800f3c0b30079
:102280009ecf110006003e001e0090007600400028
:102290009e0890005a260200000000000d00370042
:1022a0009e00900030c2b300e05098009e00900065
:1022b0000040eb00f0509800ceb89700c0c8b300c3
:1022c00080487800790307001e009000200f9800d6
:1022d0000600370075030700ceb897000040eb00fa
:1022e000804878009e009000210f98002e089000f2
:1022f0000080fa00000006000800fa00000f7800d5
:10230000110798001e0078009040780040c6b30086
:1023100080cf5000060032009e00900090c8b300ad
:10232000804878000000eb00300798003e0037003e
:1023300060ef2100104078000004e0000600320049
:102340009e009000b0c8b300804878000000eb0009
:1023500030079800340037004c0307001e00780057
:10236000706090000080fb00200798002e00900015
:10237000e20f500007003c002e009000e10f5000db
:1023800013003d002e0090000000e0001900320014
:102390001f0037002e009000e30f500001003200b4
:1023a0001b0037001e007800fb0207001e007800ab
:1023b000010207003d0307009e0090000040eb0073
:1023c0008048780010002000300798001600370081
:1023d0001e007800f8010700340307009e009000fb
:1023e0000040eb0080487800100020003007980083
:1023f0000d0037002d0307009e00900070c8b30049
:10240000804878000000eb00300798000600370095
:10241000260307009e009000d0c8b30080487800d3
:102420000000eb00300798003e0090000080fa00aa
:10243000000006000c00fa00100798002107980021
:10244000320798001e0090009040780040c6b3000c
:1024500080cf500006003200be00900090c8b3004c
:10246000804878000000eb005007980032003700e9
:1024700060ef2100104078000004e0000600320008
:10248000be00900010c1b300804878000000eb004f
:102490005007980028003700fc0207001e0090003b
:1024a000706090000080fb00400798004e00900094
:1024b0000000e000130032004e0090000000e00039
:1024c000170035004e009000e30f500014003c0050
:1024d0001e009000f60040002e0090005a260200d8
:1024e00000000000004f7800f0020700be009000de
:1024f0000040eb00804878001e80fb0050079800e9
:102500000d003700e9020700be00900070c8b3005c
:10251000804878000000eb00500798000600370064
:10252000e2020700be009000d0c8b30080487800e7
:102530000000eb00500798005e0090000080fa0059
:10254000000006000e00fa002007980031079800ee
:102550002e0090009040780040c6b30080cf50001d
:1025600007003200be00900090c8b3008048780099
:102570006000b80050079800610798006d003700b0
:1025800060ef2100104078000004e00007003200f6
:10259000be009000b0c8b300804878006011b80059
:1025a000520798006307980062003700b7020700df
:1025b0002e009000706090000080fb0040079800a3
:1025c000ce019000e18f51001d0032004e009000be
:1025d000e10f500004003c00ce0090000100e0003c
:1025e000450032004c0037004e019000e20f5100d0
:1025f00039003200ce019000e38f5100010032001b
:10260000450037002e00900050019000e00190003e
:10261000403f8100513f8100001f51000197590048
:10262000a2020700be0090000040eb008048780046
:102630001e00be0050079800610798003d0037005b
:102640002e009000606090000080fb00e20f5000c0
:1026500001003200140037002e0090008008900026
:1026600070009000e00f5000e08f580005003a0025
:102670002e00900010099000a0099000028fbe006b
:10268000040037002e009000700190008009900037
:10269000028fbe0085020700be0090000040eb00e4
:1026a00080487800080037002e00900070019000ec
:1026b00080099000028fbe007c020700be009000df
:1026c0000040eb00804878001e00be0050079800d4
:1026d000610798001700370074020700be009000e1
:1026e0000040eb00804878006011b8005207980065
:1026f000630798000f0037006c020700be009000cf
:1027000070c8b300804878006000b8005007980097
:10271000610798000700370064020700be009000c0
:10272000d0c8b300804878006011b8005207980004
:10273000630798005e009000ee0090000080fa00b1
:10274000000006000800fa00100798002107980012
:102750001e0090009040780040c6b30080cf50002b
:1027600006003200ae00900090c8b30080487800a8
:102770000000eb00300798001c00370060ef2100dc
:10278000104078000004e00006003200ae00900027
:10279000b0c8b300804878008000eb003107980093
:1027a00012003700390207001e009000f060900010
:1027b000014f78001e80fb0060004000e30f5000d6
:1027c00004003e00ae0090000040eb00804878001e
:1027d00003003700ae009000d0c8b30080487800f6
:1027e000320207001e80fb00300798003e00900078
:1027f0000080fa00000006000800fa00000f7800d0
:10280000110798001e0078009040780040c6b30081
:1028100080cf5000060032009e00900090c8b300a8
:10282000804878000000eb00300798004000370037
:1028300060ef2100104078000004e0000600320044
:102840009e009000b0c8b300804878000000eb0004
:1028500030079800360037000c0207001e00780091
:10286000706090000080fb00200798002e00900010
:10287000e20f500007003c002e009000e10f5000d6
:1028800014003d002e0090000000e0001b0032000c
:10289000210037002e009000e30f500001003200ad
:1028a0001d0037001e007800bb0107008040eb00d0
:1028b0001e0078005b010700fc0107009e009000ed
:1028c0000040eb008048780010002000300798009e
:1028d000170037008040eb001e0078005101070010
:1028e000f20107009e0090000040eb008048780055
:1028f00010002000300798000d003700eb010700a2
:102900009e00900070c8b300804878000000eb0083
:102910003007980006003700e40107009e00900091
:10292000d0c8b300804878000000eb003007980062
:102930003e0090000080fa00000006001000fa003f
:102940001007980041479800320798004307980005
:102950001e0090009040780040c6b30080cf500029
:1029600006003200ce00900090c8b3008048780086
:102970000000eb00700798006700370060ef21004f
:10298000104078000004e00006003200ce00900005
:10299000b0c8b300804878008000eb007107980051
:1029a0005d003700b90107001e00900070609000c4
:1029b0000080fb00600798006e009000e20f50005e
:1029c00007003c00ee009000e18f50003e003d000b
:1029d0006e0090000000e000420032004800370026
:1029e000ee009000e38f50000100320044003700f9
:1029f0001e009000680107004e0090008040eb0030
:102a0000014878004e4090000080fb00500798007d
:102a10005e009000e30f500007003200de009000df
:102a2000e48f5000130032005e0090000000e000d0
:102a3000210032001d0037001e0090009000900021
:102a4000010f78001e00e000060032001e0090001a
:102a5000a00090001e0178001e00900002000100fe
:102a600015003700ce009000f0c8b3008048780011
:102a7000110037001e00900090009000010f7800b8
:102a80001e00e000050032001e017800be0090002c
:102a90001e0090000200010007003700ce009000e9
:102aa000f0c8b3008048780003003700ce009000e3
:102ab00040c8b300804878007c0107001000200067
:102ac000700798001400370078010700ce009000ce
:102ad000e0c8b3008048780011002000710798001a
:102ae0000d00370071010700ce00900070c8b300e0
:102af000804878000000eb0070079800060037005f
:102b00006a010700ce009000d0c8b300804878006a
:102b10008000eb00710798007e0090000080fa00b2
:102b2000000006000200fa00703f81007c4e0200a7
:102b300000000000004f78001e80fb000080fa00bb
:102b4000000006000400fa00805381000000e0004d
:102b500003003a000000eb00100798001300370054
:102b600080538100000f78001e0078003000900034
:102b7000805389009e0078000000eb00b0009800b0
:102b80009e0078000000eb00c0009800303f8100fc
:102b90000000e800303f8900203f81000000e9008c
:102ba000203f89001e007800100798001e0090004a
:102bb0000080fa00000006000200fa00000f780012
:102bc0009e0078000040eb00f06098009e007800c6
:102bd0000040eb00e06098001e0178006000b80043
:102be00010099800210998001e0178006000b800c3
:102bf00050019800610198009e0078000000eb00f1
:102c0000900098009e0078000000eb00a000980063
:102c10009e007800f0c3b300e05098009e0078005a
:102c20000040eb00f05098009e0078000000eb00a0
:102c3000c0009800815381001e0078003100980088
:102c40001e00780080538900303f81000000e900b9
:102c5000303f8900203f81000000e800203f8900cc
:102c60000080fa00000006000800fa00007f220041
:102c700001282000a22402000000000020bb220046
:102c800001022000a224020000000000007f2200b8
:102c90001007980080812200000f78000000eb00f0
:102ca00020079800170037009e00900040c6b30030
:102cb000804878009e0090000040eb00f060980093
:102cc0001e0090009e007800310098009e00900049
:102cd000f0c3b300e05098009e0090000040eb006d
:102ce000f05098001e0090008002b000100798007d
:102cf000800220001e0f40002e0090000000e8001f
:102d0000200798002e009000ee0f5000e6ff3600de
:102d10009e00900040c6b300804878009e0090005e
:102d20000040eb00f06098009e0090000000eb0077
:102d3000b00098009e009000f0c3b300e0509800ef
:102d40009e0090000040eb00f05098006000b8003a
:102d5000403f8900513f89000000eb00303f89006f
:102d600000012000203f8900007f2200805389005d
:102d7000100020006e4b020000000000603f890040
:102d80000000eb006e4b020000000000703f890065
:102d9000e1172900603f81006601470052190200d7
:102da0000000000091182900703f81006601470073
:102db0005219020000000000020007000080fa0023
:102dc000000006000200fa0001bb220030002000d3
:102dd000801f78000000eb00801f7800060a2000aa
:102de0000700200081027800d4ff2f00a3c0b300a9
:102df00022a722008000eb00208621002252020040
:102e000000000000e4875700311929000e01780006
:102e1000a0c0b300b6550200000000000080fa0018
:102e2000000006000a00fa0030079800014f9800e1
:102e30003e00900031c0b300716098000e489000d1
:102e4000e14f50000b003a003e0090001009900046
:102e5000a0099000403f8100513f810002004000e6
:102e6000838048003e019000500198006101980065
:102e70001b0037003e00900080089000700090001a
:102e8000e00f5000e08f58000b003a003e00900029
:102e900010099000a0099000403f8100513f81003f
:102ea00002004000838048003e01900050019800dd
:102eb000610198000a0037003e0090007001900008
:102ec00080099000403f8100513f81000200400096
:102ed000838048003e0190005001980061019800f5
:102ee0003e009000e000900050009000670f6000ee
:102ef0001e0078004200dd008000780020bb220028
:102f000000804000100798001e009000100078001c
:102f10000000e0000a003a001e009000be00900091
:102f200001087800be0090000000eb00b00098009f
:102f30009e009000100020009000980011003700c3
:102f40001e00900090007800210798001e0090005d
:102f5000be009000010878003e009000ae00900096
:102f6000310098002e009000be00900041009800b3
:102f70001e009000100090008000e8001e009000ed
:102f800011009800be0090000000eb00c000980007
:102f90000080fa00000006000a00fa0040079800ce
:102fa0004e009000e000900050009000670f60001d
:102fb0001e0078004200dd008000780020bb220067
:102fc00000804000100798001e00900090007800dc
:102fd0004e009000808f50000d003a004e0090008f
:102fe00030009000300798001e009000be00900056
:102ff000010878003e0090000000e000130032005d
:10300000be0090000000eb00c00098000f003700e9
:103010004e00900040009000300798004e00900055
:1030200030009000200798003e009000ae00900015
:10303000310098002e0090000000e00003003200f4
:103040002e009000be00900041009800ce0090003d
:1030500010c0b300f0609800ce0090000000eb00bc
:10306000b0009800ce0090000000eb00c000980077
:103070001e009000100090008000e9001e009000eb
:10308000110098000080fa00000006000200fa001b
:10309000603f81000e0178008000eb00f24c0200de
:1030a000000000000080fa00000006000000fa00a6
:1030b000603f81007c4e0200000000000080fa00aa
:1030c000000006000e00fa0060079800703f8100c3
:1030d0006a0147008000eb00f24c02000000000093
:1030e000eaff0700403f8100513f8100610040003e
:1030f000e0804800403f8900513f8900403f810007
:10310000513f8100670f60001e0078004200dd0023
:103110008000780020bb220000804000100798004b
:103120001e009000900078004107980025003700ad
:103130004e00900030009000300798004e00900044
:1031400050019000e0019000403f8100513f81001c
:10315000800f5100818f590018003a004e009000f6
:1031600090009000210798002e0090000000e000e1
:10317000050032004e009000a00090002e0190004b
:103180004e009000020001004e00900082ff0700f8
:103190004e00900060609000e24f500004003a0042
:1031a00011c0b3004e0090001eff0700030037005f
:1031b000ce00900020c0b300f06098003e00900068
:1031c000400798004e0090000000e000d8ff3a0051
:1031d000b6ff0700bdff37000c00fa00200798007b
:1031e00031079800420798000000eb00000f7800bc
:1031f00060ef2100104078000004e000060032007b
:10320000ce00900010c1b300804878000000eb00b1
:1032100050079800200037002e00900010407800e2
:103220000080fb000000e900e30f500015003e00a5
:1032300010028000000f78002104200091407800e7
:1032400000ceb30000c0700042e0b7002e00900036
:10325000ef0040003e0090009606070020479800cf
:103260001e00780010028800ce0090000040eb00a5
:10327000804878002e4090000080fb0050079800a6
:1032800005003700ce00900010c0b30080487800e1
:103290000000eb00500798005e0090000080fa00ec
:1032a000000006000a00fa00200798003107980085
:1032b000420798000000eb00000f780060ef21004b
:1032c000104078000004e00004003200ce009000be
:1032d00020c1b30080487800270037002e009000fe
:1032e000104078000080fb000000e900e30f500070
:1032f0000e003e0010028000000f78002104200024
:103300009140780000ceb30000c0700042e0b700ea
:103310003e00900082060700204798002e40900053
:10332000ef4f500005003e000a003700ce0090002d
:1033300010c0b300804878000f0037001e007800ee
:1033400010028800ce009000b0c0b3008048780022
:10335000090037002e0090006f004000be00900072
:10336000540607001e00780010028800ce0090006e
:103370000040eb00804878000080fa000000060062
:103380002400fa0070079800010f9800120f9800af
:10339000230f9800340f98000000eb00000f780016
:1033a0008e0890000000eb00800878007e009000fe
:1033b000600798006e009000900078005107980018
:1033c000190037005e009000104078000080fb007c
:1033d000101798001e109000e20f50000c003200f1
:1033e0009e109000e38f5000090032001e109000e4
:1033f000e10f500006003200be08900010c0b3007c
:10340000804878008000eb00011798006d013700bc
:103410006e0090000080e800600798006e00900049
:1034200090007800510798005e0090000000e000d6
:10343000e4ff3a0060ef2100104078000004e00053
:1034400006003200be08900020c0b300804878001b
:103450000000eb00001798005a01370070ef2100c0
:10346000104078000004e00006003200be08900022
:10347000d0c0b300804878008000eb0001179800ae
:103480005001370010028000000f78002104200056
:103490009140780000ceb30000c0700042e0b70059
:1034a0000040eb00604798000000eb002007980008
:1034b0000040eb0020479800fe0090006107980054
:1034c0006e00900090007800510798008d00370042
:1034d0005e009000104078000080fb00700f9800a4
:1034e0007e089000e20f500044003200fe08900079
:1034f000e38f5000040032007e089000e10f50007e
:10350000200032006e0037005e0090002000900026
:103510000000e000170032005e00900020009000e4
:103520008000e9005e009000210098000e089000e5
:10353000de009000010878000e0890000080e8008e
:10354000000f980010c0b300604798009e089000dc
:103550000000eb00800878001e0890000080e80062
:10356000100f98002e0090000000e800200798003f
:103570005e0037002e4090000004a0002047980015
:103580005a0037005e009000100090000000e0003c
:10359000160032005e009000900090001e0890001f
:1035a000010878001e0890000080e800100f9800c5
:1035b000de0090000000eb00900098000e089000e4
:1035c000de009000010878000e0890000080e800fe
:1035d000000f980010c0b300604798002e009000c4
:1035e0000000e80020079800400037002e409000bf
:1035f0000014a000204798003c0037005e009000b7
:1036000010009000400798004e009000600090006d
:103610000000e000260032004e00900040019000c3
:10362000920078001e089000010878001e089000a3
:103630000080e800100f98008280e8004e009000a3
:10364000410098004e009000c00090004e00900095
:1036500020009000808f500004003a004e0090003f
:10366000900090004e009000410098004e009000a5
:10367000600090008000e9004e009000610098001a
:103680000e089000de009000010878000e089000ff
:103690000080e800000f980010c0b3006047980059
:1036a0002e0090000000e800200798000f0037006f
:1036b0002e4090000024a000204798000b00370007
:1036c0001e007800100288008e0890000000eb00b9
:1036d00080087800be08900010c0b30080487800d1
:1036e000ae00900001179800b60037006e00900001
:1036f0000080e800600798006e009000900078005d
:10370000510798005e0090000000e00070ff3a0052
:103710006e409000e14f50000b003a008e08900080
:103720000000eb00800878001e007800100288007e
:10373000be0890000040eb0080487800ae0090008a
:10374000011798009f00370052028100500281004b
:10375000e05890002e40900080c0700000c8b30078
:1037600000c0700060599800510281000040eb00d9
:10377000f058980050028100ae089000610898004f
:103780007e009000cf0207001e0078001002880023
:103790009104070011028000010f7800210420002d
:1037a0009140780000ceb30000c0700042e0b70046
:1037b00050028100705890000080fb00600f98005c
:1037c0006e0890000000e00004003200ee08900057
:1037d000e28f5000010032001a00370050028100d1
:1037e00090089000510798005e0090000000e000f3
:1037f0000d0032000e089000de00900001087800f5
:103800000e0890000080e800000f98008e089000dd
:103810000000eb00800878002e0090000000e80017
:10382000200798000a0037005002810011c0b30041
:103830007158980050028100fe00900018030700a4
:103840000300370050028100fe00900014030700bf
:1038500050028100705890000080fb00500f9800cb
:103860005e0890000000e00004003200de089000d6
:10387000e28f50002d003200360037005e009000cd
:10388000104078000080fb00400f98004e08900028
:10389000e10f500016003500ce089000e28f500076
:1038a0000b0034004e089000e30f5000010032007e
:1038b0000f0037009e0890000000eb0080087800a1
:1038c0001e0890000080e800100f980013003700d9
:1038d00050028100b00890001e0890000108780096
:1038e0001e0890000080e800100f98000b003700c1
:1038f0009e007800110288008e0890000000eb0006
:1039000080087800be08900010c0b300804878009e
:103910002e009000001798002a003700be08900083
:103920000040eb0080487800130037009e089000ac
:103930000000eb00800878001e0890000080e8007e
:10394000100f9800be089000e0c0b30080487800d7
:10395000090037009e0890000000eb008008780006
:103960001e0890000080e800100f9800be0890002c
:10397000a0c0b30080487800510281000040eb00f5
:10398000e0589800510281000040eb00f058980088
:10399000510281000000eb00900898005102810064
:1039a0000000eb00a0089800510281000000eb002d
:1039b000b00898009e007800110288002e00900048
:1039c000001798000e1090000080fa00000006001a
:1039d0000000fa001882020000000000380307000f
:1039e00058030700a6030700030307006232020022
:1039f00000000000243b020000000000e64a020034
:103a0000000000006e030700850307003416020063
:103a10000000000026820200000000006e84020008
:103a2000000000000080fa00000006000000fa001c
:103a300030f0210010407800e14f500009003a00ba
:103a400060ef210010407800e14f40000500320097
:103a500060ef2100104078008040e80060ef210016
:103a6000014878000080fa00000006000200fa0019
:103a70000000eb00000f780030f0210010407800cb
:103a8000e14f500055003a0010028000000f78000e
:103a9000210420009140780000ceb30000c07000e7
:103aa00042e0b70060ef2100104078000004e00021
:103ab0000500320060ef2100104078008040e900ee
:103ac00060ef21000148780060ef2100104078008d
:103ad0000004e0003f003a0070ef21001040780041
:103ae0000004e0003b003a005d04070090ef210075
:103af0009040780080ef21001040780080cf500087
:103b00003400320090ef2100104078000080fb006c
:103b100021052200000040006080780070028900ca
:103b20007202810032109000c210900061004000cb
:103b3000e08048003011980041119800a0d5800025
:103b4000b1d5800061004000e0804800a0d5880029
:103b5000b1d5880090ef21001040780061406000ee
:103b600061406000614060006140600000414000d1
:103b7000012d200091407800d0cfb30000c060003c
:103b800002407000d0e2b700d042a900d062a90084
:103b9000d082a900e982a900e9a2a900e9c2a9008e
:103ba00090ef210010407800e14060000040eb0001
:103bb00000c0600061406000c700dd00e9c2bf00d6
:103bc0000074a10001407000e9e2b700d681020054
:103bd000000000001e007800100288000080fa003b
:103be000000006000200fa000000eb00000f780061
:103bf00030f0210010407800e14f500016003a00ec
:103c000010028000000f780021042000914078000d
:103c100000ceb30000c0700042e0b70060ef2100aa
:103c2000104078000004e00009003a0070ef210025
:103c300010407800e14f40000500320070ef210095
:103c4000104078008040e80070ef210001487800c3
:103c50001e007800100288000080fa0000000600b4
:103c60000200fa000000eb00000f780030f02100a5
:103c700010407800e14f500024003a00100280000c
:103c8000000f7800210420009140780000ceb3009e
:103c900000c0700042e0b70070ef210010407800d3
:103ca0000004e0001700320070ef2100104078009f
:103cb0008040e90070ef21000148780070ef21009a
:103cc000104078000004e0000b003a0060ef210093
:103cd000104078000004e00004003a001e00780064
:103ce000100288003c030700080037001e0078001f
:103cf00010028800050037001e00780010028800be
:103d0000020037001e007800100288000080fa00d0
:103d1000000006000000fa0030f02100104078009a
:103d20000004e00010003a00cd03070090ef2100ee
:103d30009040780080ef21000148780090ef21004a
:103d4000104078000080fb002105220000004000a8
:103d50006080780070028900700281005002890042
:103d600014810200000000000080fa00000006003c
:103d70000200fa000000eb00000f78002000200095
:103d80006a5902000000000010028000000f780055
:103d9000210420009140780000ceb30000c07000e4
:103da00042e0b7006000b80030f8880041f88800b1
:103db0001e00780010028800400620006a590200a8
:103dc0000000000010028000000f78002104200095
:103dd0009140780000ceb30000c0700042e0b70010
:103de00030f8800041f8800060ed880071ed8800b7
:103df00041db210010c0b300804878001e0078002d
:103e0000100288000080fa00000006000800fa0096
:103e10000000eb00000f7800748202000000000038
:103e200010028000000f78002104200091407800eb
:103e300000ceb30000c0700042e0b700003f810038
:103e4000113f810061004000e0804800003f890090
:103e5000113f89009e0078001102880030f0210097
:103e600010407800e14f500073003a0020702200ab
:103e7000104078000080fb00300798003e00900062
:103e8000e10f50000a003200be009000e28f5000a7
:103e90000a0032003e0090000000e0000100320005
:103ea0000c00370010c0b300204798000e00370008
:103eb0000040eb00204798000b00370010c0b30013
:103ec000204798002170220010c0b300804878007d
:103ed0000500370010c0b300204798002170220071
:103ee0000040eb00804878002e4090000004e00085
:103ef00051003200810281002107980049003700fb
:103f000010028000000f780021042000914078000a
:103f100000ceb30000c0700042e0b7002e00900059
:103f2000600890000000e000390032002e00900090
:103f3000600890008000e9002e0090006108980061
:103f40002e009000600890000000e00030003a0071
:103f50002e009000605890008080fb0070032000cd
:103f6000008060000000e0000a0032002e00900097
:103f7000e058900080ccb30080c060002e0090001c
:103f800061589800ae00900010c0b300f05898003f
:103f900003003700ae0090000040eb00f05898009e
:103fa0002e009000605890000080fb004300de006f
:103fb0000000a200610060000004e0001400320074
:103fc0002e009000c0609000a0ef2100104078000b
:103fd00080c07000a0ef2100014878002e00900002
:103fe000206090000081fb002e0090002060900077
:103ff0008080fb00b0ef2100e14078002e009000af
:104000003060900080c07000b0ef21000171780036
:104010002e009000f0009000210798001e0078000c
:10402000100288002e00900080609000f0c3b30062
:1040300080cf5000b2ff3a000080fa000000060076
:104040000000fa00e01120000080fa0000000600e5
:104050000000fa000080fa00000006000c00fa00e0
:104060003007980041079800224f9800334f98007e
:104070003e009000604090008080fb0040ff2800e0
:1040800061417800224798002e4090000080fb009c
:10409000be0090006600400001004000104090000b
:1040a0008080fb0040ff28006141780012479800a3
:1040b0002e4090000080fb004300dd00804078002f
:1040c0001e40900000c04000004f78001e80fb00a2
:1040d000210522000000400060817800220798003e
:1040e000ae0090000000eb00e00898002e00900069
:1040f000ce009000310898002e009000605890008b
:10410000804078002e48900000c0ea0000c06000a7
:10411000804078002e009000615898002e0090009a
:104120003e499000725898002e0090006058900010
:104130000080fb004300de000000a2006100600080
:104140000004e000120032002e009000c0609000d9
:10415000a0ef21001040780080c07000a0ef210087
:10416000014878002e4090000081fb002e40900016
:104170008080fb00b0ef2100e14078002e0090002d
:104180003060900080c07000b0ef210001717800b5
:10419000be0090002e009000980007002e009000b6
:1041a000200890000000e000070032002e00900080
:1041b000a00890002e009000b90007002e0090008b
:1041c000be009000110898001e80fb000080fa00dd
:1041d000000006000400fa00100798005002810059
:1041e0009e0090001108980050028100206090000d
:1041f0000081fb0050028100206090000080fb00e5
:104200009e00900066004000010040009040900039
:10421000500281003060900080c070001e0090004d
:104220000200400066004000114098001e0090000f
:10423000e0409000500281004060900080c070001b
:104240001e0090006140980050028100a060900024
:10425000014f78001e81fb009e80fb00b0ef210023
:10426000614078008040780050028100306090000a
:1042700000c0ea0000c0600080407800b0ef21007c
:10428000017178009e80fb00b0ef21006140780052
:104290000004e00009003a005002810040609000f4
:1042a00080c0ea00a0ef21001040780000c060004c
:1042b00080407800a0ef2100014878000080fa00db
:1042c000000006000800fa00300798005102810043
:1042d0000000eb009008980050028100be009000a2
:1042e000210898003e009000200798002e009000c2
:1042f00090007800110798001e00370050028100de
:10430000206090000081fb0050028100206090003e
:104310000080fb009e00900066004000010040000d
:1043200090409000500281003060900080c070008a
:104330001e009000020040006600400011409800fe
:104340001e009000e040900050028100406090000c
:1043500080c070001e009000614098002e00900008
:104360000080e800200798002e0090009000780060
:10437000110798001e0090000000e000dfff3a00e7
:1043800050028100a0609000014f78001e81fb0068
:104390009e80fb00b0ef21006140780080407800f3
:1043a000500281003060900000c0ea0000c0600050
:1043b00080407800b0ef2100017178009e80fb0002
:1043c000b0ef2100614078000004e00009003a00ed
:1043d000500281004060900080c0ea00a0ef210000
:1043e0001040780000c0600080407800a0ef2100fd
:1043f000014878000080fa00000006000600fa007c
:1044000010079800210798001e009000a0609000ff
:10441000014f78001e81fb001e80fb00ae00900063
:10442000660040000100400010409000804078008d
:104430001e0090003060900000c0ea0000c06000e4
:10444000804078002e00900002004000660040008e
:10445000114098001e80fb00ae00900066004000f6
:1044600001004000104090000004e0000a003a0003
:104470002e00900060409000804078001e00900068
:104480004060900000c0ea0000c0600080407800fa
:104490002e009000614098000080fa0000000600a5
:1044a0000c00fa0040079800510798004e00900059
:1044b000a0609000214798004e009000c0609000de
:1044c000114798004e009000b0609000014f7800b6
:1044d0005e009000300798003e0090009000780049
:1044e00021079800280037002e4090000081fb0033
:1044f0002e4090000080fb00ae009000660040005f
:104500000100400010409000804078001e4078007c
:1045100000c0ea0000c06000804078002e009000db
:104520000200400066004000114098002e409000bc
:104530000080fb00ae0090006600400001004000db
:10454000104090000004e00009003a002e009000a6
:1045500060409000804078001e40900000c0ea005b
:1045600000c06000804078002e00900061409800fc
:104570003e0090000080e800300798003e00900068
:1045800090007800210798002e0090000000e000c5
:10459000d5ff3a000080fa00000006000600fa008d
:1045a00020079800ae0090000040eb00e04098002b
:1045b0002e00900067004000100798000040eb00bc
:1045c000004f7800070037009e0090000040eb008d
:1045d000804878001e0090000000e8001007980056
:1045e0001e4fe80070c0b3009e4f1000f6ff36006b
:1045f0000080fa00000006000600fa00a0ab2100cf
:1046000001282000cf000700a0ab21001007980070
:10461000a0ad2100000f78000000eb0020079800fb
:10462000140037009e0090000040eb0080487800a6
:104630001e0090009e007800110098009e009000df
:10464000f0c3b300f04898009e0090000040eb00db
:10465000805098001e0090000002b00010079800e3
:10466000000220001e0f40002e0090000000e80015
:10467000200798002e009000f20f5000e9ff36004e
:104680009e0090000040eb00804878009e00900063
:104690000000eb00900098009e009000f0c3b30073
:1046a000f04898009e0090000040eb008050980079
:1046b000a0ab2100c0d588000080fa0000000600f1
:1046c0000000fa006000b800003f8900113f890037
:1046d00061ef21000040eb008048780071ef21007d
:1046e0000040eb008048780041f021000040eb00e2
:1046f0008048780031f021000040eb0080487800cd
:104700006000b800a0d58800b1d588006000b8006e
:1047100030f8880041f888006000b80080ed88001b
:1047200091ed88006000b80060ed880071ed8800b0
:1047300041db21000040eb00804878000080fa0057
:10474000000006000400fa00a1ef21000040eb0089
:1047500080487800b0ef2100000f78000040eb00a7
:1047600020479800070037009e0078000040eb00cb
:10477000804878001e0fe8002e4090000040e800be
:10478000204798002e409000e74f5000f6ff36007b
:1047900081ef21000040eb008048780091ef21007c
:1047a0000040eb00804878000000eb0070028900b8
:1047b0000000eb00500289000080fa0000000600b3
:1047c0000200fa008104220030002000801f7800df
:1047d0000000eb00801f7800060a20000700200080
:1047e000810278000082eb00f3c3b300a2f0210045
:1047f0008000eb00006b220022520200000000004b
:10480000e4875700410f29000e017800f0c3b30080
:10481000b6550200000000000080fa00000006000b
:104820000200fa0041ef210030002000801f7800d4
:104830000000eb00801f7800060a2000070020001f
:1048400081027800e4ff2f00e3c3b30062db2100a4
:104850008000eb00c06d2200225202000000000028
:10486000e4875700211029000e017800e0c3b3004f
:10487000b6550200000000000080fa0000000600ab
:104880000600fa00200d2200016320002d00070021
:1048900020052200010820002a000700200d220028
:1048a00010079800a0112200000f78000040eb00d4
:1048b00040479800110037001e0090009e007800cd
:1048c000710098009e009000f0c3b30080789800bb
:1048d0009e0090000040eb00907898001e00900031
:1048e0008004b00010079800800420001e0f4000d4
:1048f0004e4090000040e800404798004e40900035
:10490000f44f5000ecff36009e0090000000eb00da
:10491000f00098009e009000f0c3b30080789800eb
:104920009e0090000040eb00907898000000eb00a3
:1049300080028900200d2200600289000080fa00b8
:10494000000006000400fa00000f7800110798002c
:10495000070037009e0078000040eb008048780098
:104960001e0fe8001e0090000000e90010079800ec
:104970001e0090000000e000f6ff3a000080fa0000
:10498000000006000600fa00000f780011079800ea
:10499000220798000b0037001e009000904078001e
:1049a0001e007800014878001e0fe8001e009000ed
:1049b0000000e800100798002e0090000000e900b9
:1049c000200798002e0090000000e000f2ff3a005f
:1049d0000080fa00000006000200fa000000eb0070
:1049e000000f780010028000000f780021042000e2
:1049f0009140780000ceb30000c0700042e0b700e4
:104a000060ef2100104078000004e00090003a00c0
:104a100070ef2100104078000004e0008c003a00a4
:104a20008f00070090ef21009040780080ef210078
:104a30001040780080cf50008500320090ef2100b8
:104a4000104078000080fb0021052200000040009b
:104a5000608078007002890072028100321090003c
:104a6000c210900061004000e080480030119800c2
:104a700041119800a0d58000b1d5800061004000b0
:104a8000e0804800a0d58800b1d5880090ef2100d3
:104a9000104078006140600061406000614060004b
:104aa0006140600000414000012d200091407800ed
:104ab000d0cfb30000c0600002407000d0e2b70069
:104ac00090ef2100104078000080fb006200600041
:104ad0000080d10061406000614060004201dd0063
:104ae000012d200091407800b0cfb30000c06000dd
:104af00002407000d0e2b70090ef21001040780033
:104b00000080fb00640060004280de0061406000c5
:104b1000614060004301dd00012d200091407800dc
:104b200070cfb30000c0600002407000d0e2b70058
:104b300090ef2100104078000080fb0068006000ca
:104b40004380de0061406000614060004401dd00a0
:104b5000012d200091407800f0ceb30000c060002d
:104b600002407000d0e2b70090ef210010407800c2
:104b70000080fb00700060004480de006140600047
:104b8000614060004401dd00912e200091407800da
:104b9000f0ceb30000c0600002407000e9e2b70050
:104ba00090ef2100104078008080fb000002200080
:104bb000008060004580de00614060006140600070
:104bc0004501dd00912e200091407800f0cdb3002a
:104bd00000c0600002407000e9e2b70090ef2100e1
:104be000104078008080fb000004200000806000fe
:104bf0004680de0061406000614060004601dd00eb
:104c0000912e200091407800f0cbb30000c06000ee
:104c100002407000e9e2b70090ef210010407800f8
:104c20008080fb0000082000008060004780de00dc
:104c300061406000c700dd00e9c2bf000074a10050
:104c400001407000e9e2b70054810200000000005a
:104c50001e007800100288000080fa0000000600a4
:104c60000200fa00a0ef2100104078008080fb00d5
:104c700040ff2800614f78001e80fb004300dd00ec
:104c8000004178009e80fb00b0ef21006140780079
:104c90008080fb0040ff2800614078000040410018
:104ca0008040780090ef2100014878000080fa00f1
:104cb000000006000600fa0010079800210798007f
:104cc0000040eb00004f78000b0037002e009000f2
:104cd000904078001e009000014878001e0090006f
:104ce0000000e800100798002e0090000000e80087
:104cf000200798001e4fe8002e009000104078001a
:104d00000004e000f1ff3a009e0090000040eb003c
:104d1000804878001e80fb000080fa00000006003a
:104d20000400fa00100798000040eb00004f7800e4
:104d3000040037001e0090000000e80010079800f3
:104d40001e4fe8001e009000104078000004e000b4
:104d5000f8ff3a001e80fb000080fa000000060009
:104d60000400fa00100798000000eb00000f780024
:104d700010028000000f780021042000914078008c
:104d800000ceb30000c0700042e0b70030f88000f1
:104d900041f8800061004000e080480030f8880061
:104da00041f888001e007800100288004882020046
:104db00000000000eeff37000400fa001007980022
:104dc0000000eb00000f780003003700800c20008b
:104dd0006a5902000000000040db2100104078000a
:104de0000004e000f9ff320060ed800071ed80000a
:104df0004206200003002000f20202000000000032
:104e000060ed880071ed880060ed800071ed80003c
:104e1000e00f5000e08f580006003a00a1da2100b0
:104e20000040eb008048780000c0eb00f65702001d
:104e30000000000010028000000f78002104200014
:104e40009140780000ceb30000c0700042e0b7008f
:104e500030f8800041f8800080ed880091ed8800f6
:104e60006000b80030f8880041f888001e00780023
:104e70001002880080ed800091ed800062ed8000de
:104e800073ed8000f2020200000000008040780014
:104e900040c6b30081405000a0da210001487800ec
:104ea00052820200000000000400070040062000bb
:104eb0006a59020000000000deff37000c00fa0013
:104ec0000040eb00004f780022003700e40047006c
:104ed0001e407800125702000000000010479800a2
:104ee0001e4090000004e00019003a001e80fb0004
:104ef0002105220000004000608178001207980020
:104f00001e0090000000e000110032001e00900022
:104f1000e10f50000e0032001e00900020019000b2
:104f20001e009000c0009000300090000000400083
:104f3000800051001e009000111898004e00900053
:104f4000de0090001e019000201998003119980091
:104f50001e4fe800f0c3b3009e4f1000dbff360089
:104f60000080fa00000006001600fa004047980092
:104f7000310798004207980053079800640798008b
:104f800075079800060f9800170f98000000eb00b7
:104f9000000f780010028000000f7800210420002c
:104fa0009140780000ceb30000c0700042e0b7002e
:104fb00061028100110798001e0090000000e000cf
:104fc000a70032001e00900070009000600289006f
:104fd0001e017800120288001e009000be019000a1
:104fe000030878001e009000ce40900001609800f9
:104ff0009e0090000040eb00e05898009e0090005a
:105000000040eb00f05898009e0090000000eb007c
:10501000e00898001e0090000e0990001200980011
:105020001e0090006e019000fe019000320098007a
:10503000430098001e009000ce01900023009800cd
:105040001e0090009e089000510098001e009000e5
:105050005e019000620098009e0090000040eb000e
:10506000d06098004e4090000080fb004300de00be
:10507000804078001e009000216098004e40900013
:10508000e74060001e009000116098001e00900034
:10509000206090008080fb00100020000100dd00f7
:1050a000804078001e009000416098001e00900033
:1050b000106090008080fb00100020000100dd00e7
:1050c000804078001e009000316098009e009000a3
:1050d0000000eb00900898009e0090000000eb009c
:1050e000a00898009e0090000000eb00c008980007
:1050f0009e0090000000eb00b00898001e01900098
:105100006000b80030119800411198001e01900015
:105110006000b80070119800011998001e019000fd
:105120006000b80050119800611198009e00900036
:105130000000eb00901898001e0190006000b8007d
:1051400020199800311998009e009000f0c3b30018
:10515000807898009e0090000040eb0090789800c6
:105160001e00900066820200000000001e009000f9
:105170002c8202000000000013028000030f780060
:10518000210420009140780000ceb30000c07000e0
:1051900042e0b7004e4090000080fb002105220055
:1051a00000004000010040009e00900001087800cf
:1051b000810281001e009000710098009e00900006
:1051c0000000eb0080089800800281000000e000f1
:1051d00003003200800281001e0190000208980046
:1051e0009e019000830289001e009000c060900024
:1051f000a0ef21001040780080c07000a0ef2100d7
:10520000014878001e009000206090000081fb00a3
:105210001e009000206090008080fb00b0ef210015
:10522000e14078001e0090003060900080c0700067
:10523000b0ef21000171780040f0210010407800ab
:105240008040e80040f02100014878001e0078000e
:10525000100288008000eb00210f98000400370046
:105260001e0178001202880023042000230f9800fa
:105270002e0890000080fa00000006001200fa00dc
:105280003007980041079800224f98006307980064
:105290000000eb00000f78003e0090001040780006
:1052a000e54f500006003200ee00900010c0b30041
:1052b000804878000000eb00000f98009c00370049
:1052c000ae48900000c8b30000c0600030479800ae
:1052d0003e4090000004e000060032002e4890009e
:1052e0000074a100204f980010c0b3002047980020
:1052f000020037000040eb0020479800ee009000cd
:105300000040eb008048780010028000000f780019
:10531000210420009140780000ceb30000c070004e
:1053200042e0b7002e4890000080fb007007980014
:105330007e009000e10f50005b0032007e00900084
:10534000e10f500004003c007e0090000000e000ef
:105350003b0032006d0037007e009000e20f5000ed
:10536000040032007e009000e30f50001b0032006a
:10537000660037003e009000a00090004e009000b4
:105380000080600020079800ae0090004e00900062
:10539000808f50000b003a002e409000e14f5000eb
:1053a0000b003a003e009000a00090002e009000fc
:1053b0000080ea00808060003e009000210098009c
:1053c00003003700ee00900000c7b300804878006b
:1053d0001e00780010028800530037003e00900045
:1053e000a00090004e009000008060002007980010
:1053f0002e0090000000e0000b0032002e409000d4
:10540000e14f50000b003a003e009000a0009000d9
:105410002e0090000080ea00808060003e00900036
:105420002100980003003700ee00900000c7b30091
:10543000804878001e007800100288003a0037008b
:105440003e009000200090008080ea004e00900016
:105450000080600020079800ae0090004e00900091
:10546000808f50000a003a002e409000e14f50001b
:105470000a003a003e009000a00090002e0090002c
:10548000808070003e0090002100980003003700eb
:10549000ee00900000c7b300804878001e0078003e
:1054a00010028800200037003e009000200090008d
:1054b0008080ea004e009000008060002007980085
:1054c0002e0090000000e0000a0032002e40900004
:1054d000e14f50000a003a003e009000a00090000a
:1054e0002e009000808070003e0090002100980007
:1054f00003003700ee00900000c7b300804878003a
:105500001e00780010028800070037001e00780097
:10551000100288000000eb0020079800ee009000c9
:10552000f0c6b300804878002e009000000f98006d
:105530000e0890000080fa00000006000a00fa0041
:1055400020079800310798000000eb00000f78005a
:1055500060ef2100104078000004e00006003200f7
:10556000be00900000c1b300804878000000eb004e
:10557000400798002b00370011028000010f7800cf
:10558000210420009140780000ceb30000c07000dc
:1055900042e0b70040ed8000100798001e00900028
:1055a0000000e0001800320040ed80001000900084
:1055b00040ed88009e00900050c0b3008048780005
:1055c0001e009000ae009000210098009e00900008
:1055d0000000eb00900098009e009000f0c3b30024
:1055e000e04098009e0090000040eb00f0409800e2
:1055f0001e00780010028800be0090000040eb0002
:1056000080487800050037009e007800110288006d
:10561000be00900020c7b300804878001e009000b4
:10562000400798004e0090000080fa00000006003d
:105630001200fa0040079800214f98006207980076
:105640000000eb00000f780060ef210010407800b0
:105650000004e00006003200ee009000f0c0b3004d
:10566000804878004e009000000f98007c003700c2
:105670004e00900010407800e54f500006003200c8
:10568000ee00900010c0b300804878004e009000fb
:10569000000f98007200370010028000000f7800a1
:1056a000210420009140780000ceb30000c07000bb
:1056b00042e0b7004e009000100090000000e000b3
:1056c0000300320010c0b3006047980002003700aa
:1056d0000040eb00604798002e4890000080fb00df
:1056e000700798007e0090000000e0000400320087
:1056f0007e009000e10f5000250032004f0037007f
:105700006e4090000004e00019003a00ce009000c6
:10571000f0c3b300e0409800ce0090000040eb00e2
:10572000f0409800ce0090000040eb0080487800e8
:1057300041ed80004e00900011009800ce009000d6
:105740000000eb00a00098004e00900040ed8800a3
:105750001e00780010028800ee0090000040eb0070
:10576000804878000000eb00100798003a003700ee
:105770001e00780010028800ee00900090c4b30074
:10578000804878004e0090001007980032003700e3
:105790004e0090001000900020079800060037008f
:1057a0008000eb002e009000790307002e0090008f
:1057b00010007800200798002e0090000000e00004
:1057c000f7ff3a00ce009000f0c3b300e04098002d
:1057d000ce0090000040eb00f0409800ce0090001a
:1057e0000040eb008048780041ed80004e009000c2
:1057f00011009800ce0090000000eb00a00098007f
:105800004e00900040ed88001e00780010028800d5
:105810006e409000e14f500002003a00ec2402007c
:10582000000000006e0090008040eb00014878000e
:105830000000eb0010079800070037001e007800fa
:1058400010028800ee00900070c0b300804878001d
:105850004e009000100798001e009000000f980066
:105860000e0890000080fa00000006000c00fa000c
:105870002007980031079800420798000000eb00cd
:10588000000f780060ef2100104078000004e00075
:1058900006003200ce00900010c1b30080487800ae
:1058a0000000eb0050079800210037001002800034
:1058b000000f7800210420009140780000ceb30052
:1058c00000c0700042e0b7002e0090001040780049
:1058d000e54f5000080032001e00780010028800da
:1058e000ce00900010c0b300804878000000eb00ac
:1058f000500798000e0037002e009000e600400090
:105900003e0090005a260200000000002047980048
:105910001e00780010028800ce0090000040eb00ce
:10592000804878002e4090000080fb0050079800cf
:105930005e0090000080fa00000006000a00fa00f5
:105940002007980031079800420798000000eb00fc
:10595000000f780060ef2100104078000004e000a4
:1059600004003200ce00900020c1b30080487800cf
:105970002800370010028000000f7800210420006a
:105980009140780000ceb30000c0700042e0b70044
:105990002e00900010407800e54f500006003200c5
:1059a0001e00780010028800ce00900010c0b300e6
:1059b00080487800170037003e00900090260200d3
:1059c00000000000204798002e409000ef4f50004c
:1059d000060036001e00780010028800ce009000fd
:1059e00030c7b300804878000a0037002e009000ce
:1059f00066004000be0090005a2602000000000031
:105a00001e00780010028800ce0090000040eb00dd
:105a1000804878000080fa00000006002400fa00a8
:105a2000200f9800310f9800025f9800530f9800e4
:105a3000640f98000000eb00000f780060ef210079
:105a4000104078000004e00006003200ee089000ec
:105a500020c0b300804878000000eb0010179800c9
:105a60003e01370070ef2100104078000004e00094
:105a700006003200ee089000d0c0b30080487800e5
:105a80008000eb0011179800340137002e089000b9
:105a900010407800e54f500006003200ee089000fc
:105aa00010c0b300804878000000eb001017980089
:105ab0002a0137008e58900000c8b30000c0600073
:105ac000404798004e4090000004e000070032007c
:105ad000f1c7b3000e58900001406000005f9800cd
:105ae00010c0b30020479800020037000040eb00d0
:105af0002047980011028000010f78002104200047
:105b00009140780000ceb30000c0700042e0b700c2
:105b10000e5890000080fb00001798000e109000b7
:105b2000e10f5000820032008e109000e18f500093
:105b300004003c000e1090000000e0005500320010
:105b4000a10037008e109000e28f50000400320058
:105b50000e109000e30f5000280032009a0037002a
:105b60002e089000a00090003e0890000080600089
:105b700030079800be0090003e089000808f5000d3
:105b800015003a002e409000e14f500007003a0007
:105b90002e089000a00090003e0090000080ea00d7
:105ba000808060002e089000210098005002810043
:105bb000be009000510898001e0078001002880076
:105bc000ee0890000040eb0080487800be00900096
:105bd00011179800e1003700e80047005e0a9000c6
:105be0008e5990003e0990002e089000e2010700b7
:105bf0001e007800100288007d0037002e089000fb
:105c0000a00090003e0890000080600030079800df
:105c10003e0090000000e000150032002e40900091
:105c2000e14f500007003a002e089000a0009000bd
:105c30003e0090000080ea00808060002e08900006
:105c40002100980050028100be0090005108980089
:105c50001e00780010028800ee0890000040eb0063
:105c600080487800be00900011179800bb003700f4
:105c7000e80047005e0a90008e5990003e099000af
:105c80002e089000bc0107001e007800100288005a
:105c9000570037002e089000200090008080ea0016
:105ca0003e0890000080600030079800be00900021
:105cb0003e089000808f500014003a002e40900063
:105cc000e14f500006003a002e089000a00090001e
:105cd0003e009000808070002e0890002100980007
:105ce00050028100be009000510898001e0078000c
:105cf00010028800ee0890000040eb008048780019
:105d0000be0090001117980094003700e80047008b
:105d10005e0a90008e5990003e0990002e08900077
:105d2000950107001e00780010028800300037003f
:105d30002e089000200090008080ea003e0890002d
:105d400000806000300798003e0090000000e000f6
:105d5000140032002e409000e14f500006003a003f
:105d60002e089000a00090003e00900080807000ff
:105d70002e0890002100980050028100be00900083
:105d8000510898001e00780010028800ee0890006c
:105d90000040eb0080487800be009000111798008a
:105da0006e003700e80047005e0a90008e599000b0
:105db0003e0990002e0890006f0107001e00780039
:105dc000100288000a0037009e0078001102880047
:105dd0000000eb0030079800ee089000f0c6b3001a
:105de000804878003e009000101798005b00370054
:105df000ec2402000000000011028000010f780076
:105e0000210420009140780000ceb30000c0700053
:105e100042e0b70050028100705890000004e0009a
:105e20001e00320050028100f05890003147980067
:105e3000510281000040eb00f058980068004700d4
:105e40000a020700510281000040eb00e058980070
:105e50001e007800100288000000eb003007980058
:105e60003e4090000080fb00e20f50000100320035
:105e700004003700ee089000e0c0b30080487800ce
:105e800003003700ee089000a0c0b30080487800ff
:105e9000be009000111798003000370050028100ba
:105ea000d0089000310798002e409000e14f50003c
:105eb00023003a000e5890000080fb00700f9800fd
:105ec0007e0890000000e00015003500fe089000fc
