:020000040000fa
:08000000dc9d0400000000007b
:020000040000fa
:1004000070100400000000009e12040000000000b4
:100410005614040000000000d8140400000000007e
:10042000ac150400000000002218040000000000c9
:100430005818040000000000a61804000000000086
:10044000b61a040000000000621904000000000059
:10045000361a040000000000c21a04000000000068
:100460006c1b040000000000b01b04000000000032
:10047000b4230400000000007431040000000000f8
:10048000a031040000000000ca6f0400000000005a
:100490006a7d04000000000072800400000000007b
:1004a000fe02040000000000881f7800f0fb8300bb
:1004b0000000e0000100320000000100c0fb8300ea
:1004c0000000e0000100320000000100d0ea8300db
:1004d0000000e0000100320000000100a0ea8300fb
:1004e0000000e000010032000000010000f82700d9
:1004f0001004e00026003a00d0fb8300e1fb8300fb
:100500000004eb00d26026009301200033050700b1
:10051000f2352f00e3c6230000004100818049002e
:100520000804e800e80f5400f6ff3a00d0fb8b0007
:10053000e1fb8b00c8d52700d26026009301200084
:10054000d0fb8300e1fb830024050700f2352f0078
:10055000e3c623000000410081804900d0fb8b00ee
:10056000e1fb8b00009cbe00c0dd2700800f540023
:10057000f1ff3a00c0ee8300d1ee8300b0ea8b00b9
:10058000c1ea8b0011c0b30000f8270001487800d1
:10059000d260260093012000d0fb8300e1fb8300a2
:1005a0000e050700f2352f00e3c6230000004100ce
:1005b00081804900d0fb8b00e1fb8b0062d52700d6
:1005c000120178007f0161004211dd00c3d52700d0
:1005d000030141001202be00b4ea8b00c5ea8b00a1
:1005e0000089be00b0ea8300c1ea83004008de0053
:1005f00000f0a1004f04780000000600881f78007a
:100600000204780014000700080040004f0478003e
:10061000000006000000fa00881f7800000478003f
:100620003fb99700ea81570080007800e02f200052
:1006300010000700800078000000e0000200350094
:100640000040eb0000f47800010078004f047800cf
:100650000080fa00000006008001eb000200370075
:1006600061f079008301e800828f5100fcff3a00bd
:10067000000006006200fa00889fbe008a9fbe004c
:100680000004be00020578008300780060f92f00a6
:100690000f004000b000070088979f0099979f00c7
:1006a0000000eb00a09f9f009a4578000b80fb00a4
:1006b0000000ea00cf04de0050c2b30080cf550036
:1006c0000200320009047800010037000904e90043
:1006d0000800e0000b0034001f909700080178002c
:1006e0008a0078008f9197000300010090979f0087
:1006f0000000e000930032002f98970000004400b3
:10070000a09f9f000905450050c2b30080cf55004f
:10071000040032000b04e000e3ff3a002f9897003a
:10072000890037000000eb00809f9f00f0979f003a
:10073000e0979f00d0979f00c0979f00b0979f00c1
:10074000c09f9f000900370020f72700008050005d
:100750000000400061f62700e10078004f98970004
:1007600001007000c09f9f000a05e8001a4478004d
:100770008800fb0020f727007c000700800078003d
:100780000000e000f0ff3a00a0c2b300804f540028
:100790000e003a00bf8897000180e900b08f9f00eb
:1007a00010007800b09f9f000000e00005003d00b1
:1007b0000000ea00b09f9f004f9897000020a00023
:1007c000c09f9f000a05e80010003700b19f9f00fe
:1007d00009003700bf989700f0ff2700808f500076
:1007e000040032006a08b900000041000300400024
:1007f000b09f9f000a05e8001a01fb0003fd2f00cf
:1008000003004100e90f5000f2ff3600e0c2b300e0
:100810009a4f1000040032000080eb00909f9f0070
:100820008a0478001c0037008a04e800a0c2b300e4
:10083000994f100007003a00bf8897000180e90037
:10084000b08f9f0010007800909f9f008a84e8007e
:10085000110037000000eb00909f9f000900370057
:100860009f989700f0ff2700808f5000040032000f
:100870006a08b9000000410003004000909f9f00fb
:100880008904e8001901fb0003fd2f00030041006b
:10089000e90f5000f2ff3600194478008800fb0091
:1008a00020f82700310007000000e00002003a00b5
:1008b00000447800010037008904e800a87f9f0009
:1008c00080c6b300804f540004003a00994f1400d2
:1008d0000a003a006640500006003700c0c6b30068
:1008e000804f540005003a00994f140003003a006d
:1008f00065404000a07f9f008904e8000905e800ea
:10090000cbfb2f008f8545001901fb0060f92f00fc
:100910000f0040000084e8008b0178008000780020
:10092000080078001a0007000000e00005003a0007
:100930008b00780008007800580107000000e000f4
:1009400059ff3d000080eb004f05be004f04be0084
:100950000080fa00000006000200fa00f1bf9f00cc
:10096000010878000080fa0000000600040037004b
:100970000204e00001003a00000005000000e80069
:1009800010417800814f5100f9ff3a000000060045
:10099000889fbe008a1f780000047800010278005a
:1009a0008244780003057800e0c6b300804f510010
:1009b000d200320015003c006b405000804f5100c7
:1009c000240032000a003c0070405000804f51006b
:1009d0000f01320065404000804f5100740032002a
:1009e00050c2b300804f510020013a001c01370073
:1009f00040c6b300804f51001b00320065404000ec
:100a0000804f510019013a001700370030c7b3007a
:100a1000804f5100fe00320007003c00644050004f
:100a2000804f5100620032000040e800804f5100ca
:100a30000e013a00e700370050c7b300804f510065
:100a40005b00320063404000804f510007013a00d4
:100a5000570037009180e900010a78007800900083
:100a60009171780007013700a8609000c0c6b300fc
:100a700080cf50000a003a00940078006480500053
:100a8000000a78001000be004f89de00cf91de0022
:100a90000002be00020378008203780013003700d2
:100aa00010c7b30080cf500003003200a0c6b300cf
:100ab00080cf500006003a00940078006880500013
:100ac000000a78003002be002003be000700370095
:100ad0001480e900000a7800100078000002780015
:100ae000cfa2de000503780086037800049cbe00d8
:100af0000694be00a860900080c6b30080cf50006e
:100b00000e00320020c6b30080cf500005003a002e
:100b10000400fb00cf80de00010178008201780034
:100b20000a00370040c7b30080cf500003003200f6
:100b30006640400080cf500006003a000400780074
:100b4000cf80de000101780082017800009cbe00a9
:100b50000294be003800be002801be00e00f500025
:100b6000e08f5800e00f5900e08f590003003d006e
:100b700078009000d1c2b3000a003700081090003e
:100b80000018a3000300320078009000b1c2b30047
:100b9000040037000008a3005300320078009000e2
:100ba00001c2b300017578000000e8004d00370075
:100bb000a8609000c0c6b30080cf500006003a0085
:100bc0009400780064805000000a78001002be0093
:100bd0006033b8001300370010c7b30080cf500057
:100be00003003200a0c6b30080cf500006003a00d8
:100bf0009400780068805000000a78003002be003f
:100c00002003be00070037001480e900000a7800c6
:100c10001000780000027800050020000600200087
:100c200007002000049cbe000694be00a86090004f
:100c300080c6b30080cf50000e00320020c6b30043
:100c400080cf500005003a000480fb000100200026
:100c500002002000030020000a00370040c7b30054
:100c600080cf5000030032006640400080cf50002b
:100c700006003a0004007800010020000200200075
:100c800003002000009cbe000294be0008109000eb
:100c90000038a300140032003800be002801be0056
:100ca000e00f5000e08f5800e00f5900e08f59002e
:100cb0000d00320080c7b30080cf54000300320023
:100cc00080c5b30080cf540007003a007800900040
:100cd00001c3b300017578008000e80009f57800d1
:100ce0000080e80070049800780090000000450043
:100cf000600498008940780042003700a8609000a6
:100d0000c0c6b30080cf5000250032000a003c006e
:100d10006440500080cf50002800320000c0e8003e
:100d200080cf5000140032006840500080cf500047
:100d300022003a000a00370040c7b30080cf5000bd
:100d40001e0032006640400080cf50001b00320081
:100d50006940500080cf500018003a00060037006c
:100d60001480e900000a780010007800485c9000c8
:100d700008487800450037001480e900000a780030
:100d80001002780068089000cf80de000101780032
:100d900082017800009abe000292be003b0037003c
:100da0001480e900000a78001001780068089000bb
:100db000cf80de000089be00340037001480e900d7
:100dc000000a780010007800680c9000080878008d
:100dd0002e0037001180e9008008780010007800ac
:100de000cf80de000101780082017800009cbe0007
:100df0000294be0078009000000045006004980056
:100e000081c7b30008007800ee0007001f0037001c
:100e10001480e900000a780010007800600498004f
:100e2000580990000200e00002003d009d0107000b
:100e3000090037008000eb00a10107008000780066
:100e40000000e000030032006800900000805000c5
:100e50000100370058089000100c98000b00370074
:100e60007800900002757800060037007800900046
:100e7000800045000904e00001003a0059c2b300b7
:100e8000894878000000e800700498000000eb003a
:100e90004f0578004f04be00000006000400fa0071
:100ea000889fbe008a9fbe008c1f780000047800d7
:100eb0000106780070089000f800900001005000d2
:100ec0008808900001005000980890000100500030
:100ed000a808900001005000b808900001005000e0
:100ee000c8089000810550000002220090bf9f00ba
:100ef00000032300a0bf9f00081090000028a3005b
:100f000018003a000b00e000160034008b04780053
:100f100009057800e28f5400020036002a00200004
:100f2000020037000900e0000b0034005800900078
:100f3000c80190000a017800ee805700030001000c
:100f4000500498000000e00096003200680890000d
:100f500000004500600c98008a8454004240a900bb
:100f6000ebff3c00780190000200e0000b00340031
:100f700058009000c80190008c0078000300010028
:100f8000500498000000e0008600320068089000dd
:100f9000f800900001004000600c9800880c900060
:100fa0000900e0001500340009057800e28f5400c4
:100fb000020036002a002000020037000900e0008d
:100fc0000b00340058009000c80190000a0178001e
:100fd000ec80570003000100500498000000e0007e
:100fe000700032006808900000004500600c980016
:100ff0008a8454004240a900ebff3c00180990008d
:101000000200e0000b003400e8009000580090005f
:10101000c801900003000100500498000000e000a7
:1010200060003200680890009808900001004000bd
:10103000600c9800a80c90000900e0001500340036
:1010400009057800e28f5400020036002a002000d3
:10105000020037000900e0000b0034005800900047
:10106000c80190000a017800ec80570003000100dd
:10107000500498000000e0004a0032006808900028
:1010800000004500600c98008a8454004240a9008a
:10109000ebff3c00380990000200e0000d00340036
:1010a000e8009000180890008080400058009000f0
:1010b000c801900003000100500498000000e00007
:1010c0003800320068089000b80890000100400025
:1010d000600c9800c80c90000900e0001500340076
:1010e00009057800e28f5400020036002a00200033
:1010f000020037000900e0000b00340058009000a7
:10110000c80190000a017800ec805700030001003c
:10111000500498000000e0002200320068089000af
:1011200000004500600c98008a8454004240a900e9
:10113000ebff3c00081090000028a3001b003200c9
:101140000b00e000190034008b04780009057800da
:10115000e28f5400020036002a002000020037000f
:101160000900e0000b00340058009000c801900016
:101170000a017800ee805700030001005004980037
:101180000000e00007003200680890000000450001
:10119000600c98008a8454004240a9000300340087
:1011a000eaff37000080eb00010037000000eb0091
:1011b0004f0678004f05be004f04be000080fa00c5
:1011c00000000600ef02b000889fbe008a9fbe00ac
:1011d0008c9fbe008e1f78000006780050f5270017
:1011e000c0b79f0080c5b30080cf50000800320018
:1011f00042f42700c2b79f007740400080cf5000e4
:1012000003003a0083002000b3b79f000a003700b4
:1012100080c7b30080cf500005003200a40020003a
:10122000b4b79f0080c5b30080cf500002003a00e1
:1012300000012000b0b79f003c04be002c05be009a
:1012400040c6b30080cf500003003200654040002c
:1012500080cf50000b003a00e00f5400e08f5c009c
:10126000e00f5d00e08f5d0006003d006000b8000b
:101270006011b80008045000898458000a0559001c
:101280008b855900e00f5400e08f5c00e00f5d009b
:10129000e08f5d0004003a005c0890008d012000a2
:1012a0000000e0000c003200bfb09700010278009f
:1012b000cfa2de0005037800860378000800be0098
:1012c0000a01be004c0207004fb29700644078004c
:1012d000d0df9f007d0120003fb097000002780022
:1012e000cfa2de0005037800860378000800be0068
:1012f0000a01be0039020700009ebe000296be0031
:101300000d00e90061fc2f008f8040000087400045
:101310001e0037003fb1970002047800cfc4de0002
:10132000090578008a0578000802be000a03be009d
:101330007fa897008fb097001fb19700afb19700bb
:1013400031020700d0b79f00e1b79f00f2b79f00be
:1013500083bf9f008d06e9000802be000a03be009d
:10136000af0207007faa970000005200cfb097009d
:10137000615778005fb09700efb097007fb197009a
:101380008fb99700009ebe000296be003c00be00d2
:101390002c01be00f0af9f0081b79f0092b79f0065
:1013a000a3b79f00e00f5000e08f5800e00f5900f6
:1013b000e08f5900020034000d00e000d5ff3c0032
:1013c000bfb09700e88f500010003a000c1090005a
:1013d0000038a3000d003200f78f560006003e00d3
:1013e00062fc2f000f0141008d00410000c3b300db
:1013f000914f1000050032008d06e90000c3b300d4
:1014000063fc2f008f81410080f17e0078811600ff
:10141000120e98006c00900063fc2f008f81410039
:101420008d8041008cfc07001c0990005c08900036
:10143000800f510006003d0002005000000e980091
:101440000c1090000040a100001698000f0037001b
:101450000000e0000d003d000c10900074006000e2
:10146000f00f500009003a007c089000fc0090004a
:10147000010050008c089000010050000200500054
:101480004240a90001003400000e98004f07780088
:101490004f06be004f05be004f04be00ef02b10074
:1014a0000000060080007800010037000000e8001e
:1014b0001004e000fdff3a000100500000000600ab
:1014c0008001eb00040037008301e80090cf10009a
:1014d000040032000000e800828f5100faff3a0059
:1014e0000000eb00000006006022b80006022000a9
:1014f0000000d0008180d2000482d2008582d20018
:101500000000a0000202520083825a000300310052
:101510000202420083824a000000a1000603e900a3
:10152000f3ff3a0000000600889fbe008a9fbe00bd
:10153000010578000100e0000400350008003c00cf
:101540000000e000200032000500370060001000bd
:10155000e080180002003b0001f02c001a00370068
:101560000004be006011b8006b0920000982cf00a2
:10157000020039000882cf000441b00069425200e5
:101580000e00320008003b0082817100610164009e
:101590008904d1000884d3008b05e8000442e800e8
:1015a000f9ff3a00050037000804440089844c0024
:1015b0008b05e9000442e900fbff3a00b400070094
:1015c0000af0a70001f0a0004f05be004f04be00c6
:1015d0000000060003f0a200889fbe008a9fbe00a4
:1015e0008c1f7800d0000700d70033006450e10062
:1015f0004f0032006420e1005200320003826c0090
:1016000007003b000905d0000306d000820f5400fc
:101610000c065d00020039000200320089017800ea
:10162000030678008582550004003d000003fd009c
:101630008103fd008502ea008b854200840f720061
:1016400002003b0060001000e08018006011b8004c
:101650000005eb007a28e1000a0039000600780056
:10166000c75ddd00f707b200878075002d003700e9
:10167000828171000a017800610560008180d100db
:101680000080d3008502e900f9ff3b00060440001a
:101690008784480002003b0060041400e0841c00c2
:1016a0000988a300070032008a81710082817100dd
:1016b000610164008904d1000884d3008b05e8002f
:1016c000170037000978a30013003a000b00e00070
:1016d000130034008b05e9000804440089844c00a1
:1016e0000a4474000978a3000d003a000b00e000e2
:1016f000070034008b05e9000804440089844c008d
:1017000001003a000b0020000978a300f7ff320027
:101710000001eb0002003700828171000a017800ad
:101720005b0007000cf0a70001f0a0008f0037005d
:101730006420e10002003a00838f6c008f003300c8
:101740000801be000200be0088003700889fbe006e
:101750008a9fbe008c1f7800730007007a00330058
:1017600003866c006450e1002e0032006420e1002a
:10177000330032006150e1002f0032006120e100af
:101780003100320085855500eb07b00009002000cc
:1017900008042000050037000804440089844c0038
:1017a0000a0031000603430087834b000001530009
:1017b00081815b00f8ff33000203be000800a00037
:1017c0000804440089844c00f6ff3900c639dd0066
:1017d0008301730001003200130020008904d1004e
:1017e0000884d3000998a300050032000800a70070
:1017f0000300a0008904d1000884d3008b05e80011
:101800008904d1000884d3000001eb000281d200da
:101810001f00070001f0a1000cf0a70001f0a000dc
:10182000520037006420e100540032000801be007d
:101830000200be00f7ff37006120e1004f003200d8
:101840006000b800f3ff37000000200001f8270017
:10185000f0ff3700839f68000100e00002003d00b8
:1018600060001000e08018000300e00002003d006e
:1018700060011100e08119001bff07004f00e0002c
:1018800002003b0060001000e0801800000006002d
:1018900081002000618055000b003d000b002000fe
:1018a00061fe2f000100e1001d0034008281710003
:1018b000610164008904d1000884d3000000e800bd
:1018c000faff3a007100200061006400030070001c
:1018d000020060000900320061044400e0844c0012
:1018e0000988a500050032008b05e8006808e100c2
:1018f00002003a008904d1000884d300f20f2000ce
:101900000258e10005003d00c75ddd00f907b200a7
:101910008980750008007800000006000bf8270099
:101920008b007800000005000004be0016000700d0
:101930000003be000405be000200be001200070046
:10194000844f7500000006000200be006450e100f4
:10195000050036006420e100020036000968a3009b
:1019600001003a000800be000160a0004f067800a8
:101970004f05be004f04be0000000600f0ff2f0020
:10198000f1ff2700f9ff3700c70ade00f107b200b8
:10199000f50fb20008003200e1cf42000200320031
:1019a0000170a00024000500810f700001003200ca
:1019b0000408050044000500810f700002003a0091
:1019c000140005008502e9000000400081c04800c5
:1019d000fcff3b000170a00024000500020ab900d2
:1019e000001bb9000200b8008100420081004300e2
:1019f00000000600881f7800000478005001be0037
:101a00004000be00040040008580480006014900f7
:101a100087814900009cbe000294be000400e100e2
:101a20000588e1000690e1000798e100020031001e
:101a3000680044001008e8004f0478000000060029
:101a4000f4874700889fbe008a9fbe008c9fbe001f
:101a50008e1f78000205be000004be00d4b79f00b0
:101a6000e5b79f00f6b79f0087bf9f000000eb001f
:101a7000c0b79f00b0b79f00a0b79f0090b79f006e
:101a800080b79f000d042000bfb097004fb09700b3
:101a9000000140000000e0000f003d004f08de00a4
:101aa00000007100c0b79f009e00070001003d00cc
:101ab00012002000a100070001003d0012002000dc
:101ac000a6000700b1000700b60007000f004000a5
:101ad000c8ff0700220037004f08de000006710033
:101ae000ccb79f008f00070001003d0012002000ce
:101af0009200070001003d0012002000970007003f
:101b0000a20007000fb297009fb297002fb3970073
:101b1000bfb39700a90007000000520081805a005f
:101b200002015b0083815b0080b79f0091b79f003b
:101b3000a2b79f00b3b79f000007eb009f0007000c
:101b40000020e10001a8e10002b0e10003b8e100db
:101b5000010031001e0020000e005600c0b79f009b
:101b60004fb297000400e00007003500100020008d
:101b7000010020006011b800080470008984700022
:101b80000a0571008b8571008d06e900beff3a00e1
:101b90000400e00003003d00820007000f00400049
:101ba00094ff07004fa897000000e00004003a00ef
:101bb0000fb497009fb497002fb59700bfb597005b
:101bc000940007004f0778004f06be004f05be0087
:101bd0004f04be004f01b10000000600881f7800ce
:101be00018002000881f780095ff07008f87e90004
:101bf0004f04780000000600801feb0090ff0700f4
:101c00008f87e90000000600889fbe008a9fbe0003
:101c10008c1f78006e00070007003d00730007006e
:101c2000e00f5b00e08f5b0007003d003200070023
:101c30000006eb00040037003400070002003d00fe
:101c40002a0007001c00200072000700e3ff0700c5
:101c50000203be000002be000c00e00001003200e2
:101c6000220007000400be000601be004f067800f7
:101c70004f05be004f04be0000000600889fbe0056
:101c80008a9fbe008c1f78005100070005003d00b0
:101c900056000700e00f5b00e08f5b0006003d0090
:101ca000040037001900070003003d006000b80081
:101cb0006011b8001000070056000700ceff0700b3
:101cc0000203be000002be000c00e0000100320072
:101cd000060007000400be000601be004f067800a3
:101ce0004f05be004f04be00000006006000b800b3
:101cf0006011b800000037000402500085825800cf
:101d00000603590087835900000006000006eb0017
:101d1000e00f5200e08f5a00e00f5b00e08f5b00a5
:101d2000000006000180400090b79f000001eb001a
:101d30008fb097000100e000000006000200700074
:101d400090b79f000180400080b79f000001eb002a
:101d5000ffa897000100e0000000060002007000ec
:101d600080b79f00018040006faa9700cf20de005f
:101d700001007000f0af9f00040242002500070040
:101d80004f18de000002720000000600e4af9f0062
:101d90000804440089844c000a054d008b854d00e1
:101da000000006003fb29700cfb297005fb39700e4
:101db000efb3970000fe2f00000006003fb0970031
:101dc000cfb097005fb19700efb197000000060019
:101dd0000205be000004be00e00f5000e08f580076
:101de000e00f5900e08f5900000006006000b800c5
:101df0006011b80008045000898458000a05590091
:101e00008b8559001c002000e00f5200e08f5a0023
:101e1000000006000800be000a01be000000060027
:101e2000889fbe008a9fbe008c1f78000205be00fe
:101e30000004be000006eb00e00f5000e08f5800e9
:101e4000e00f5900e08f590007003d006000b80026
:101e50006011b80008045000898458000a05590030
:101e60008b8559001c002000e00f5200e08f5a00c3
:101e7000e00f5b00e08f5b0002003d000f000700f9
:101e80000c00a2000800be000a01be0012000700fc
:101e90000203be000002be000c00e00001003200a0
:101ea000060007000400be000601be004f067800d1
:101eb0004f05be004f04be00000006006000b800e1
:101ec0006011b800040250008582580006035900d2
:101ed0008783590000000600889fbe008a9fbe00cd
:101ee0008c9fbe000404b8000506b80089044600b3
:101ef00060854e000606b8000a054600e0854e00e3
:101f00000706b8008b054600040eb8008904460099
:101f10000a854e00e0854d00050eb8000a05460012
:101f20008b854e00060eb8008b0546000416b800df
:101f30000a0546008b854e000516b8008b05460045
:101f4000041eb8008b0546000800be000a01be0052
:101f50004f06be004f05be004f04be000000060045
:101f60000200fa009889020000000000ce970200eb
:101f70000000000032280200000000000000eb001a
:101f8000d855020000000000a04488000000eb00cb
:101f9000d855020000000000b04488000000eb00ab
:101fa000d855020000000000c04488000000eb008b
:101fb000d855020000000000d04488000000eb006b
:101fc000d855020000000000e04488000000eb004b
:101fd000603e020000000000f04488000000eb00ba
:101fe000603e020000000000004588000000eb0099
:101ff000603e020000000000104588000000eb0079
:10200000603e0200000000002045880020ee210014
:10201000810c2000564e0200000000003045880070
:102020008e007800b0c0b300be4602000000000081
:10203000404588008e007800b0c0b300be46020064
:1020400000000000504588008e007800b0c0b3004a
:10205000be460200000000006045880061e0a80064
:10206000c062a900c042a900c442a800d2c2a80010
:102070008660a9009660a800019e20003000200024
:10208000801f78000000eb00801f78000608200009
:1020900007002000810278009400200093c0b30064
:1020a000228e20008000eb00000721007a5c0200f5
:1020b00000000000e4875700018b29000e01780022
:1020c00090c0b300ee5f020000000000a2290200f1
:1020d000000000000080eb000080fa000000060015
:1020e0000400fa0010079800668802000000000053
:1020f000c8290200000000004c800200000000001f
:102100000040eb00e48902000000000001fe200016
:1021100030002000801f78000000eb00801f780056
:10212000063020000700200081027800c400200053
:10213000c3c0b300229e20008000eb00e0292100f4
:102140007a5c020000000000e4875700c18b290080
:102150000e017800c0c0b300ee5f02000000000076
:10216000010e210030002000801f78000000eb00ed
:10217000801f7800060820000700200081027800f8
:10218000d4002000d3c0b30022fe20008000eb006a
:10219000604521007a5c020000000000e4875700df
:1021a000118d29000e017800d0c0b300ee5f02004f
:1021b00000000000012e210030002000801f780068
:1021c0000000eb00801f78000610200007002000b0
:1021d00081027800e4002000e3c0b300220e210059
:1021e0008000eb00804d21007a5c020000000000be
:1021f000e4875700018e29000e017800e0c0b3008b
:10220000ee5f020000000000013e210030002000cf
:10221000801f78000000eb00801f78000608200077
:102220000700200081027800f4002000f3c0b30012
:10223000222e21008000eb00c05a21007a5c0200af
:1022400000000000e4875700d18e29000e017800bd
:10225000f0c0b300ee5f020000000000014e21005c
:1022600030002000801f78000000eb00801f780005
:1022700006082000070020008102780044012000a9
:1022800043c1b300223e21008000eb0020822100e8
:102290007a5c020000000000e4875700b18f29003b
:1022a0000e01780040c1b300ee5f020000000000a4
:1022b000015e210030002000801f78000000eb004c
:1022c000801f7800060820000700200081027800a7
:1022d000c4012000c3c1b300224e21008000eb00e6
:1022e000808521007a5c020000000000e48757002e
:1022f000619029000e017800c0c1b300ee5f0200ba
:1023000000000000016e210030002000801f7800d6
:102310000000eb00801f7800060820000700200066
:1023200081027800e4012000e3c1b300225e2100b5
:102330008000eb00608a21007a5c0200000000004f
:10234000e4875700319129000e017800e0c1b30005
:10235000ee5f020000000000019e2100300020001e
:10236000801f78000000eb00801f78000608200026
:102370000700200081027800a4022000a3c2b3005d
:10238000228e21008000eb0060ab21007a5c02000d
:1023900000000000e4875700219229000e01780018
:1023a000a0c2b300ee5f020000000000017e210029
:1023b00030002000801f78000000eb00801f7800b4
:1023c0000608200007002000810278008402200017
:1023d00083c2b300226e21008000eb002096210012
:1023e0007a5c020000000000e48757004193290056
:1023f0000e01780080c2b300ee5f02000000000012
:10240000018e210030002000801f78000000eb00ca
:10241000801f780006082000070020008102780055
:102420009402200093c2b300227e21008000eb00c2
:1024300060a321007a5c020000000000e4875700de
:10244000419429000e01780090c2b300ee5f0200b3
:102450000000000001ae210030002000801f780045
:102460000000eb00801f7800060820000700200015
:10247000810278005401200053c1b300229e210044
:102480008000eb0020ac21007a5c0200000000001c
:10249000e4875700119529000e01780050c1b30060
:1024a000ee5f02000000000001ee2100300020007d
:1024b000801f78000000eb00801f780006202000bd
:1024c00007002000810278006401200063c1b3008e
:1024d00022ae21008000eb00c0b621007a5c020031
:1024e00000000000e4875700119629000e017800d3
:1024f00060c1b300ee5f020000000000c796290033
:102500008e1f78000003eb0005bb210024c0b30040
:1025100002532700030020006000b800241c0200c2
:10252000000000008f87e9007045880000c0eb00c4
:102530002662020000000000fcff37004200fa00a3
:10254000701f9800f6004700c09729000900090095
:10255000b01878004101b1004001b100d46502001b
:102560000000000070079800010f98000000eb00c9
:10257000000f7800d46502000000000080007800a1
:102580007e00900000805000002798000e209000f0
:102590000000e00003003d008e2090008100ea0072
:1025a000012798000e2190006110b9005007980093
:1025b000610798000000eb00400798001c003700fe
:1025c000ce0190004e009000f60047000000400051
:1025d00060807800800078005e00900000805000ed
:1025e00000017800f6004700038041000100400030
:1025f000020878004e009000f600470000004000fe
:10260000608078000000e00006003c004e00900072
:10261000f600470000004000810040000000eb0091
:10262000800878004e0090000000e8004007980005
:102630004e009000e90f5000e1ff3400d465020025
:102640000000000070079800010f98000000eb00e8
:102650003007980030458000750147004106200092
:102660009650020000000000100f98000e00370086
:102670003e009000800078001e089000008040001e
:10268000104078000080fb00f6004700000040008a
:102690008100400080382100800878003e009000d2
:1026a0000000e800300798003e00900080007800ad
:1026b0001e08900000804000104078000004e000f8
:1026c000ebff3a0060458000750147008000eb0099
:1026d000f048020000000000b1c8bf004057980059
:1026e000604580008e4b0200000000004e509000bc
:1026f000e64f5000060032004e509000e14f50006f
:10270000030032004e509000e24f500022003a0089
:10271000a00220000e0040004201200080c0eb001b
:10272000266c0200000000000000eb00200798006b
:102730000000eb0040079800130037004e009000a7
:10274000f600470000004000608078000000e000d4
:102750000a0034002e009000a10220008e8040006c
:102760000000400001004000ce0090000108780009
:102770002e0090000000e800200798004e00900016
:102780000000e800400798004e009000e90f50005c
:10279000eaff3400340037000000eb0040079800e7
:1027a0002e0037000000eb00100798004e0090004c
:1027b000f600470000004000608078000000e00064
:1027c0002300340050458000750147008000eb0075
:1027d000f0480200000000009e0090002e009000d3
:1027e000808f500010003c001e009000a1022000cd
:1027f0008e80400000004000e08078004e00900095
:10280000808f500008003a004e009000f60047000c
:1028100000004000e0807800b0c8bf000080fb00ee
:10282000808f500004003a00a0448000de5802006f
:102830000000000050579800504580008e4b020069
:10284000000000001e0090000000e8001007980043
:102850004e0090000000e800400798004e009000f5
:10286000e90f5000cfff3400703821009e0f100098
:1028700008003400f0448000a10220008e80400057
:102880009041020000000000505798000000eb004b
:10289000000f7800421f20001e0f4100401f200043
:1028a000946302000000000032ff37001000fa00bd
:1028b000500798000080eb008080eb00008fbe0086
:1028c000d46502000000000020079800310798003e
:1028d000404580006801470001fa2000f0480200ee
:1028e00000000000028727001200780031002e004f
:1028f0000100600000097800018727002100900096
:102900000000a0000010a1000020a1000030a100e4
:10291000a000980050458000680147008000eb004f
:10292000f048020000000000018b20009140780078
:102930000087270061409800504580008e4b0200c0
:102940000000000056920200000000004045800098
:102950008e4b0200000000001e00780070079800f7
:10296000d465020000000000800078002e00900076
:1029700000805000600798006e0190000200e000a7
:1029800003003d006e0090000000ea006007980020
:102990006e0090007e0190008000510000fa20003f
:1029a000010050009463020000000000c4ff3700e3
:1029b0001c00fa00500f9800e6004700009929001b
:1029c00009000900b01878004101b1004001b100d0
:1029d00060c0b300b2e8b700604580006401470002
:1029e0008000eb00f04802000000000060c0b3006f
:1029f000b1e8b70050458000640147008000eb005b
:102a0000f048020000000000540202000000000034
:102a1000a2002000110009000200d8008000fd0083
:102a2000b0e8b700504580008e4b02000000000067
:102a3000f0448000640147008000eb00e03f0200aa
:102a400000000000100798000000eb00000f780065
:102a50001c0037001e007800000040008000780055
:102a60001e0090000080400090007800b0c8bf00b9
:102a70000080fb00808f500011003a00504580001c
:102a8000640147008000eb00f048020000000000f5
:102a90005402020000000000a20020001100090002
:102aa0000200d8008000fd00b0e8b700504580006b
:102ab0008e4b0200000000000080eb00000f780049
:102ac0001e0fe8001e007800000040008000780023
:102ad0001e0090000080400010007800e10f4000d0
:102ae000dcff3a00e60047001e00900009000900e4
:102af000b01878004101b1004001b100f0448000fd
:102b0000640147008000eb00e03f0200000000008d
:102b100010079800e6004700a20020001e00900069
:102b2000280307000000e000c7ff320010c0b30018
:102b3000b1e8b700604580008e4b02000000000045
:102b400010c0b300b2e8b70000c0eb00266202007c
:102b500000000000fcff37001000fa00400798005a
:102b600002122a00730020000000eb006a920200ab
:102b7000000000008000eb000040eb0052950200d6
:102b8000000000001100200010c0b30052950200a8
:102b9000000000004100200020c0b3005295020058
:102ba000000000006100200030c0b3005295020018
:102bb000000000008100200040c0b30052950200d8
:102bc000000000000101200050c0b3005295020037
:102bd00000000000f17f20000040eb005294020052
:102be000000000008040eb000040eb00d4920200a7
:102bf0000000000011c0b3000040eb00d4920200be
:102c00000000000021c0b3000040eb00d49202009d
:102c10000000000031c0b3000040eb00d49202007d
:102c20000000000041c0b3000040eb00d49202005d
:102c30000000000051c0b3000040eb00d49202003d
:102c4000000000000040eb00404798006045800015
:102c5000670147008000eb00f04802000000000020
:102c60000040eb0020479800b044800090550200df
:102c7000000000000000e00007003200b1c8bf0003
:102c8000e34f500004003a0040c0b300b1e8b70081
:102c900010c0b3002047980020458000223e02006b
:102ca00000000000000f78001e007800104078003f
:102cb000e14f500018003a00b1c8bf0030479800fb
:102cc0003e4090000080fb0070079800fe009000de
:102cd000e18f5000080032007e009000e10f5000ac
:102ce0000a003500fe00900063805000e20f5000a3
:102cf00006003e000300370030c0b300b1e8b70063
:102d00000200370010c0b300b1e8b70010c0b30034
:102d100020479800100037001e007800104078000f
:102d2000e24f50000c003a00b1c8bf00e34f500022
:102d300006003200b1c8bf00e44f5000030032006b
:102d4000b1c8bf00e54f500003003a004e4090006c
:102d50000040e800404798004e409000e24f50008d
:102d60000a003600b1c8bf00e34f50000300320034
:102d7000b1c8bf00e44f500004003a0050c0b30097
:102d8000b1e8b70010c0b30020479800b2c8bf0038
:102d900050479800a04480009055020000000000b9
:102da0000000e0000a003200b1c8bf00e34f50004d
:102db00003003200b1c8bf00e44f500004003a00e5
:102dc00010c0b3002047980050c0b300b1e8b7006e
:102dd000118b2000914078005e409000814f5000a0
:102de0000a0032002e4090000004e00007003a0084
:102df000c044800090550200000000000000e00088
:102e000002003a005e409000b1e8b700118b20004c
:102e1000914078006e40900080cf50001800320042
:102e2000b1c8bf000080fb0060079800ee00900072
:102e3000e38f5000120032006e009000e30f50004c
:102e400004003c00ee009000e18f500005003200cd
:102e50000b0037006e009000e40f500004003200b9
:102e6000070037000040eb0040479800040037009f
:102e700070458000e7004700521f0200000000007c
:102e8000118b2000914078005e40900080cf500070
:102e90006200320040458000670147008000eb007f
:102ea000f048020000000000018727002100900088
:102eb0000000a0000010a1000020a1000030a1002f
:102ec000a000980050458000670147008000eb009b
:102ed000f048020000000000018b200091407800c3
:102ee0000087270061409800504580008e4b02000b
:102ef00000000000b1c8bf000080fb005007980030
:102f0000de009000e38f5000240032005e0090004d
:102f1000e30f500007003c00de009000e18f5000fe
:102f20000b0032005e009000e20f500011003200f2
:102f300035003700de009000e58f50002900320098
:102f40005e009000e50f50001d0035002e00370098
:102f5000008727009000780032002e0082806000f9
:102f60000140a00001087800569202000000000015
:102f700025003700028727001200780031002e005c
:102f800001006000010420000100700000097800c9
:102f900056920200000000001b0037000087270047
:102fa0009000780032002e00828060008101b30022
:102fb000010878005692020000000000120037005d
:102fc000008727009000780032002e008280600089
:102fd0000120a000010878005692020000000000c5
:102fe00009003700028727001200780031002e0008
:102ff000010060000102200001007000000978005b
:103000005692020000000000404580008e4b0200f6
:1030100000000000b1c8bf00b2e8b700118b20006b
:103020009140780061479800604580008e4b020017
:1030300000000000401f2000946302000000000018
:1030400002ff37000600fa00100798000040eb006e
:10305000b4e8b700604580000e01e8008000eb0096
:10306000f048020000000000b1c8bf00004f780027
:10307000604580008e4b0200000000000040eb0025
:103080004047980050c0b3009e4f100002003a0025
:1030900010c0b300404798004e409000b4e8b7001d
:1030a000401f20009463020000000000e9ff370089
:1030b0000800fa003007980092900200000000001b
:1030c00000c0eb002047980000c0eb0010479800bc
:1030d0001e409000004f78002e409000104798004e
:1030e000b89002000000000020479800ae40900019
:1030f0001e40900080cf500010003a002e409000fb
:103100009e4f50000d0032002e409000e14f4000d5
:103110000a0032002e4090008080fb00008a2900c7
:10312000614078004047980000458000e400470077
:10313000904102000000000030479800200320006a
:103140009463020000000000e1ff37000e00fa0067
:1031500060079800e8004700409a29000300090032
:10316000b05878004100b1004000b1000000eb0011
:10317000000f78000000eb00300798000040eb00e3
:10318000b3e8b70000003700004580006401470045
:103190008000eb00e03f02000000000010079800f4
:1031a00010c0b300b3e8b7001e0178001e00900005
:1031b0009040780068004700000041000148780016
:1031c0001e0fe800300020009e0f100007003c009a
:1031d0001e0078003007980010458000e600470088
:1031e0009041020000000000e7ff37000040eb00c4
:1031f000b3e8b700680047009040780010c3b30000
:1032000080cf50001e003a006800470090409000b8
:1032100020c3b30080cf500019003a006800470077
:10322000a040900030c3b30080cf500014003a009b
:1032300068004700b040900040c3b30080cf50000a
:103240000f003a000000eb00000f78000000eb00d8
:103250003007980010c0b300504798001045800018
:10326000e600470090410200000000002045800079
:10327000e500470090410200000000000e0037000a
:103280000080eb00000f78000080eb003007980012
:1032900020c0b3005047980010458000e60047006a
:1032a000904102000000000020458000e50047003a
:1032b00090410200000000000000eb00000f7800c9
:1032c000b1ff37000800fa002007980001c1b300e1
:1032d00020c0b300e08602000000000088840200e5
:1032e00000000000b3c8bf000004e0005b003a002b
:1032f000c05d20009463020000000000888402008a
:1033000000000000b1c8bf000080fb00300798003b
:103310003e009000e30f50002b0032003e00900072
:10332000e30f500007003c003e009000e10f50000a
:10333000140032003e009000e20f500017003200ef
:10334000370037003e009000e50f50002f0032009c
:103350003e009000e50f5000210035003e00900037
:10336000e60f5000010032002d003700829a29003c
:103370008040eb000040eb006a8702000000000084
:1033800027003700829b29008040eb000040eb00c3
:103390006a8702000000000021003700129c29000b
:1033a0008040eb000040eb006a8702000000000054
:1033b000e29c29008040eb0010c0b3006a87020045
:1033c0000000000016003700729d29008040eb00cd
:1033d0000040eb006a870200000000001000370088
:1033e000d29d29008040eb000040eb006a8702007c
:1033f00000000000729e29008040eb0010c0b30066
:103400006a8702000000000005003700229f2900a3
:103410008040eb000040eb006a87020000000000e3
:10342000b0c8bf000080fb008e00e800801f78005d
:1034300000a02900801f7800010078000a03020024
:1034400000000000e48757000e01e800e1c0b3006f
:1034500010c0b3006a87020000000000401f200077
:1034600094630200000000009eff37000800fa008d
:103470002007980000003700104580000e81e8000a
:103480008000eb00e03f020000000000000f780029
:1034900088840200000000001e0078001000780000
:1034a000300798003e009000e10f50001d003200f0
:1034b0003e009000e10f500007003c003e009000ed
:1034c000e10f40000b0032003e0090000000e000e1
:1034d0000e003200e8ff37003e009000e20f50007f
:1034e000160032003e009000e30f50001900320039
:1034f000e1ff370052a029008040eb000040eb00c4
:103500006a87020000000000dbff370042a12900ab
:103510008040eb000040eb006a87020000000000e2
:10352000d5ff370002a229008040eb000040eb00ed
:103530006a87020000000000cfff370022a22900a6
:103540008040eb000040eb006a87020000000000b2
:10355000c9ff370052a229008040eb000040eb0079
:103560006a87020000000000c3ff37000400fa0071
:103570001007980000c0eb00266202000000000067
:10358000fcff37000a00fa0040079800c642a90075
:10359000dec2a900df02a900d04480006601470016
:1035a0008000eb00585702000000000000003700c8
:1035b000b4c8bf000004e000400032000000eb008f
:1035c000200798000f0037002e00900021072200ee
:1035d0000000400060807800349802000000000085
:1035e000a30020000041eb008040eb000040eb0016
:1035f00002640200000000002e0090000000e800bd
:1036000020079800ae009000f0032000808f50004b
:10361000edff3400d0448000660147008000eb00dd
:103620005857020000000000e0448000de5802000d
:10363000000000000000eb00200798001100370098
:10364000e2e2a9002e009000210f220000004000bd
:10365000608078003498020000000000e2e2a800d8
:10366000a30020000041eb008040eb000040eb0095
:1036700002640200000000002e0090000000e8003c
:1036800020079800ae009000f0032000808f5000cb
:10369000ebff3400e2e2a800d0448000660147005e
:1036a0008000eb005857020000000000e04480005a
:1036b000de58020000000000bdff3700431f20005d
:1036c0000041eb008040eb000040eb000264020090
:1036d00000000000b6ff37000800fa00300798002d
:1036e0000104200020072200709802000000000062
:1036f000d0448000de5802000000000001042000d9
:10370000200f22007098020000000000d0448000ca
:10371000de58020000000000e04480006401470021
:103720008000eb0058570200000000000104200058
:10373000200722007098020000000000d0448000a2
:10374000de58020000000000e044800064014700f1
:103750008000eb005857020000000000e7ff370030
:103760000600fa00100798002107980060458000c5
:103770000e0178008000eb00f0480200000000001d
:1037800050c0b300b1e8b700c0448000de5802006a
:1037900000000000004f7800604580008e4b020062
:1037a00000000000704580008e0178000001eb00f1
:1037b0008040eb00f21f0200000000000080fa00d1
:1037c000000006000a00fa00100798002107980080
:1037d000320798000000eb00000f7800120037005d
:1037e0001e00780000004000800078001e0090005d
:1037f00000804000100178001e00780000004000aa
:10380000800078002e0090000080400010007800ba
:10381000800f5100030032000000eb0040079800c9
:10382000060037001e0fe8003e0090009e0f1000bb
:10383000ebff350010002000400798004e0090007c
:103840000080fa00000006001600fa002007980029
:10385000310798004207980053079800444f98009a
:1038600075079800060f9800170f980013c8bf003f
:103870000004e00006003200ceb89700b0c8b300e4
:10388000804878000000eb00200f980046003700c9
:10389000a703070054020700100798001e009000bd
:1038a0000000e00007003a00a9030700ceb8970027
:1038b00060c8b300804878008000eb00210f9800ba
:1038c000390037009e00900010c0b300f0609800ef
:1038d0001e0090002e019000be0190007200980022
:1038e000030898001e0090004e019000de01900039
:1038f00012089800230898001e009000ce499000fe
:10390000636098001e009000fe0090001100980077
:103910001e0090000e099000220098001e089000e2
:103920000000e0001a0032001e089000543102002e
:1039300000000000004f7800f3c0b3009ecf1100dc
:1039400006003e001e009000760040009e08900099
:103950001e310200000000000d0037009e009000a4
:1039600030c2b300e05098009e0090000040eb0091
:10397000f0509800ceb89700c0c8b30080487800d7
:10398000730307001e009000200f98000600370008
:103990006f030700ceb897000040eb008048780026
:1039a0009e009000210f98002e0890000080fa00e1
:1039b000000006000800fa00000f780011079800c8
:1039c0001e0078009040780040c6b30080cf5000c1
:1039d000060032009e00900090c8b3008048780036
:1039e0000000eb00300798003d00370013c8bf000f
:1039f0000004e000060032009e009000b0c8b30052
:103a0000804878000000eb00300798003400370051
:103a1000470307001e007800706090000080fb00e4
:103a2000200798002e009000e20f500007003c0095
:103a30002e009000e10f500013003d002e0090007a
:103a40000000e000190032001f0037002e00900037
:103a5000e30f5000010032001b0037001e00780009
:103a6000f60207001e007800fc010700380307007b
:103a70009e0090000040eb0080487800100020007d
:103a800030079800160037001e007800f301070089
:103a90002f0307009e0090000040eb008048780054
:103aa00010002000300798000d00370028030700a1
:103ab0009e00900070c8b300804878000000eb00c2
:103ac0003007980006003700210307009e00900091
:103ad000d0c8b300804878000000eb0030079800a1
:103ae0003e0090000080fa00000006000c00fa0082
:103af0001007980021079800320798001e009000d8
:103b00009040780040c6b30080cf500006003200dd
:103b1000be00900090c8b300804878000000eb0021
:103b2000500798003100370013c8bf000004e000c0
:103b300006003200be00900010c1b300804878003b
:103b40000000eb005007980028003700f80207003b
:103b50001e009000706090000080fb0040079800fd
:103b60004e0090000000e000130032004e00900074
:103b70000000e000170035004e009000e30f5000f9
:103b800014003c001e009000f60040002e00900043
:103b90001e31020000000000004f7800ec02070018
:103ba000be0090000040eb00804878001e80fb00c3
:103bb000500798000d003700e5020700be00900096
:103bc00070c8b300804878000000eb0050079800f0
:103bd00006003700de020700be009000d0c8b30028
:103be000804878000000eb00500798005e009000cd
:103bf0000080fa00000006000e00fa00200798007e
:103c0000310798002e0090009040780040c6b30025
:103c100080cf500007003200be00900090c8b30073
:103c2000804878006000b80050079800610798004d
:103c30006c00370013c8bf000004e000070032002a
:103c4000be009000b0c8b300804878006011b80092
:103c5000520798006307980062003700b40207001b
:103c60002e009000706090000080fb0040079800dc
:103c7000ce019000e18f51001d0032004e009000f7
:103c8000e10f500004003c00ce0090000100e00075
:103c9000450032004c0037004e019000e20f510009
:103ca00039003200ce019000e38f51000100320054
:103cb000450037002e00900050019000e001900078
:103cc000a0418000b1418000001f510001975900c0
:103cd0009f020700be0090000040eb008048780083
:103ce0001e00be0050079800610798003d00370095
:103cf0002e009000606090000080fb00e20f5000fa
:103d000001003200140037002e009000800890005f
:103d100070009000e00f5000e08f580005003a005e
:103d20002e00900010099000a0099000028fbe00a4
:103d3000040037002e009000700190008009900070
:103d4000028fbe0082020700be0090000040eb0020
:103d500080487800080037002e0090007001900025
:103d600080099000028fbe0079020700be0090001b
:103d70000040eb00804878001e00be00500798000d
:103d8000610798001700370071020700be0090001d
:103d90000040eb00804878006011b800520798009e
:103da000630798000f00370069020700be0090000b
:103db00070c8b300804878006000b80050079800d1
:103dc000610798000700370061020700be009000fd
:103dd000d0c8b300804878006011b800520798003e
:103de000630798005e009000ee0090000080fa00eb
:103df000000006000800fa0010079800210798004c
:103e00001e0090009040780040c6b30080cf500064
:103e100006003200ae00900090c8b30080487800e1
:103e20000000eb00300798001b00370013c8bf00ec
:103e30000004e00006003200ae009000b0c8b300fd
:103e4000804878008000eb003107980012003700ae
:103e5000370207001e009000f0609000014f7800cc
:103e60001e80fb0060004000e30f500004003e0095
:103e7000ae0090000040eb0080487800030037005f
:103e8000ae009000d0c8b300804878003002070030
:103e90001e80fb00300798003e0090000080fa0072
:103ea000000006000800fa00000f780011079800d3
:103eb0001e0078009040780040c6b30080cf5000cc
:103ec000060032009e00900090c8b3008048780041
:103ed0000000eb00300798003f00370013c8bf0018
:103ee0000004e000060032009e009000b0c8b3005d
:103ef000804878000000eb0030079800360037005b
:103f00000b0207001e007800706090000080fb002c
:103f1000200798002e009000e20f500007003c00a0
:103f20002e009000e10f500014003d002e00900084
:103f30000000e0001b003200210037002e0090003e
:103f4000e30f5000010032001d0037001e00780012
:103f5000ba0107008040eb001e0078005a010700fc
:103f6000fb0107009e0090000040eb0080487800b5
:103f70001000200030079800170037008040eb0049
:103f80001e00780050010700f10107009e0090001c
:103f90000040eb00804878001000200030079800b7
:103fa0000d003700ea0107009e00900070c8b300c2
:103fb000804878000000eb003007980006003700ca
:103fc000e30107009e009000d0c8b300804878004d
:103fd0000000eb00300798003e0090000080fa00df
:103fe000000006001000fa001007980041479800f2
:103ff00032079800430798001e0090009040780018
:1040000040c6b30080cf500006003200ce009000c2
:1040100090c8b300804878000000eb00700798005b
:104020006600370013c8bf000004e000060032003d
:10403000ce009000b0c8b300804878008000eb004c
:10404000710798005d003700b90107001e0090005d
:10405000706090000080fb00600798006e00900088
:10406000e20f500007003c00ee009000e18f50008e
:104070003e003d006e0090000000e0004200320073
:1040800048003700ee009000e38f5000010032003e
:10409000440037001e009000680107004e009000a9
:1040a0008040eb00014878004e4090000080fb000b
:1040b000500798005e009000e30f500007003200a8
:1040c000de009000e48f5000130032005e0090008c
:1040d0000000e000210032001d0037001e009000ab
:1040e00090009000010f78001e00e00006003200f2
:1040f0001e009000a00090001e0178001e0090009d
:104100000200010015003700ce009000f0c8b30097
:1041100080487800110037001e0090009000900049
:10412000010f78001e00e000050032001e0178003b
:10413000be0090001e009000020001000700370042
:10414000ce009000f0c8b30080487800030037002c
:10415000ce00900040c8b300804878007c01070082
:104160001000200070079800140037007801070045
:10417000ce009000e0c8b300804878001100200015
:10418000710798000d00370071010700ce00900004
:1041900070c8b300804878000000eb0070079800fa
:1041a000060037006a010700ce009000d0c8b300b7
:1041b000804878008000eb00710798007e00900036
:1041c0000080fa00000006000200fa00d0418000e2
:1041d000de58020000000000004f78001e80fb0047
:1041e0000080fa00000006000400fa00e0418000b0
:1041f0000000e00003003a000000eb001007980008
:1042000013003700e0418000000f78001e007800a6
:1042100030009000e04188009e0078000000eb0034
:10422000b00098009e0078000000eb00c0009800ed
:10423000904180000000e8009041880080418000ab
:104240000000e900804188001e00780010079800f7
:104250001e0090000080fa00000006000200fa0034
:10426000000f78009e0078000040eb00f06098009e
:104270009e0078000040eb00e06098001e0178008e
:104280006000b80010099800210998001e0178000c
:104290006000b80050019800610198009e0078000d
:1042a0000000eb00900098009e0078000000eb00fa
:1042b000a00098009e007800f0c3b300e050980082
:1042c0009e0078000040eb00f05098009e007800bf
:1042d0000000eb00c0009800e14180001e00780063
:1042e000310098001e007800e04188009041800075
:1042f0000000e90090418800804180000000e80053
:10430000804188000080fa00000006000800fa00e2
:1043100000e7220001282000842f02000000000096
:104320000023230001022000842f0200000000006f
:1043300000e722001007980080e92200000f7800b3
:104340000000eb0020079800170037009e00900047
:1043500040c6b300804878009e0090000040eb000b
:10436000f06098001e0090009e00780031009800d8
:104370009e009000f0c3b300e05098009e009000b3
:104380000040eb00f05098001e0090008002b0004a
:1043900010079800800220001e0f40002e009000a1
:1043a0000000e800200798002e009000ee0f50005b
:1043b000e6ff36009e00900040c6b30080487800bb
:1043c0009e0090000040eb00f06098009e0090007e
:1043d0000000eb00b00098009e009000f0c3b30016
:1043e000e05098009e0090000040eb00f0509800d4
:1043f0006000b800a0418800b14188000000eb00d7
:1044000090418800000120008041880000e72200e0
:10441000e041880010002000d85502000000000094
:10442000c04188000000eb00d855020000000000e9
:10443000d041880041bb2900c0418000660147008f
:10444000a224020000000000f1bb2900d04180003e
:1044500066014700a22402000000000002000700dd
:104460000080fa00000006000200fa00e1222300aa
:1044700030002000801f78000000eb00801f7800d3
:10448000060a20000700200081027800d4ff2f00d8
:10449000a3c0b300020f23008000eb00403b2200ca
:1044a0007a5c020000000000e487570091bc2900fc
:1044b0000e017800a0c0b300ee5f02000000000013
:1044c0000080fa00000006000a00fa003007980099
:1044d000014f98003e00900031c0b3007160980019
:1044e0000e489000e14f50000b003a003e00900053
:1044f00010099000a0099000a0418000b141800007
:1045000002004000838048003e0190005001980066
:10451000610198001b0037003e0090008008900069
:1045200070009000e00f5000e08f58000b003a0040
:104530003e00900010099000a0099000a04180006a
:10454000b141800002004000838048003e0190009d
:1045500050019800610198000a0037003e00900069
:104560007001900080099000a0418000b14180005e
:1045700002004000838048003e01900050019800f6
:10458000610198003e009000e00090005000900013
:10459000670f60001e0078004200dd008000780098
:1045a0000023230000804000100798001e009000a8
:1045b000100078000000e0000a003a001e009000a1
:1045c000be00900001087800be0090000000eb00e3
:1045d000b00098009e00900010002000900098000d
:1045e000110037001e00900090007800210798000d
:1045f0001e009000be009000010878003e00900070
:10460000ae009000310098002e009000be00900097
:10461000410098001e009000100090008000e8000b
:104620001e00900011009800be0090000000eb00fa
:10463000c00098000080fa00000006000a00fa009e
:10464000400798004e009000e0009000500090005d
:10465000670f60001e0078004200dd0080007800d7
:104660000023230000804000100798001e009000e7
:10467000900078004e009000808f50000d003a00ae
:104680004e00900030009000300798001e0090000f
:10469000be009000010878003e0090000000e0009d
:1046a00013003200be0090000000eb00c000980034
:1046b0000f0037004e009000400090003007980037
:1046c0004e00900030009000200798003e009000bf
:1046d000ae009000310098002e0090000000e00035
:1046e000030032002e009000be00900041009800b0
:1046f000ce00900010c0b300f0609800ce00900093
:104700000000eb00b0009800ce0090000000eb002d
:10471000c00098001e009000100090008000e9008a
:104720001e009000110098000080fa0000000600b2
:104730000200fa00c04180000e0178008000eb000a
:1047400058570200000000000080fa000000060038
:104750000000fa00c0418000de58020000000000a6
:104760000080fa00000006000e00fa0060079800c2
:10477000d04180006a0147008000eb0058570200da
:1047800000000000eaff0700a0418000b141800066
:1047900061004000e0804800a0418800b1418800ed
:1047a000a0418000b1418000670f60001e007800ca
:1047b0004200dd00800078000023230000804000dc
:1047c000100798001e0090009000780041079800a4
:1047d000250037004e009000300090003007980010
:1047e0004e00900050019000e0019000a041800038
:1047f000b1418000800f5100818f590018003a00ac
:104800004e00900090009000210798002e0090002c
:104810000000e000050032004e009000a000900073
:104820002e0190004e009000020001004e0090000a
:1048300082ff07004e00900060609000e24f500041
:1048400004003a0011c0b3004e0090001eff0700a4
:1048500003003700ce00900020c0b300f060980045
:104860003e009000400798004e0090000000e000dd
:10487000d8ff3a00b6ff0700bdff37000c00fa0072
:104880002007980031079800420798000000eb00cd
:10489000000f780013c8bf000004e00006003200db
:1048a000ce00900010c1b300804878000000eb00fb
:1048b00050079800200037002e009000104078002c
:1048c0000080fb000000e900e30f500015003e00ef
:1048d00010028000000f7800210420009140780031
:1048e00000ceb30000c0700042e0b7002e00900080
:1048f000ef0040003e00900050060700204798005f
:104900001e00780010028800ce0090000040eb00ee
:10491000804878002e4090000080fb0050079800ef
:1049200005003700ce00900010c0b300804878002a
:104930000000eb00500798005e0090000080fa0035
:10494000000006000a00fa002007980031079800ce
:10495000420798000000eb00000f780013c8bf006a
:104960000004e00004003200ce00900020c1b3003b
:1049700080487800270037002e0090001040780013
:104980000080fb000000e900e30f50000e003e0035
:1049900010028000000f7800210420009140780070
:1049a00000ceb30000c0700042e0b7003e009000af
:1049b0003d060700204798002e409000ef4f500022
:1049c00005003e000a003700ce00900010c0b30082
:1049d000804878000f0037001e0078001002880021
:1049e000ce009000b0c0b3008048780009003700c6
:1049f0002e0090006f004000be0090000f060700e0
:104a00001e00780010028800ce0090000040eb00ed
:104a1000804878000080fa00000006002400fa00b8
:104a200070079800010f9800120f9800230f98004c
:104a3000340f98000000eb00000f78008e08900003
:104a40000000eb00800878007e009000600798006e
:104a50006e00900090007800510798001900370010
:104a60005e009000104078000080fb001017980056
:104a70001e109000e20f50000c0032009e109000bb
:104a8000e38f5000090032001e109000e10f50002b
:104a900006003200be08900010c0b30080487800c5
:104aa0008000eb00011798006b0137006e0090004a
:104ab0000080e800600798006e0090009000780089
:104ac000510798005e0090000000e000e4ff3a000b
:104ad00013c8bf000004e00006003200be089000ca
:104ae00020c0b300804878000000eb000017980059
:104af0005901370014c8bf000004e000060032006e
:104b0000be089000d0c0b300804878008000eb0061
:104b1000011798005001370010028000000f780044
:104b2000210420009140780000ceb30000c0700046
:104b300042e0b7000040eb00604798000000eb0047
:104b4000200798000040eb0020479800fe009000ee
:104b5000610798006e00900090007800510798005f
:104b60008d0037005e009000104078000080fb0050
:104b7000700f98007e089000e20f50004400320051
:104b8000fe089000e38f5000040032007e08900081
:104b9000e10f5000200032006e0037005e009000f0
:104ba000200090000000e000170032005e0090003e
:104bb000200090008000e9005e0090002100980035
:104bc0000e089000de009000010878000e089000aa
:104bd0000080e800000f980010c0b3006047980004
:104be0009e0890000000eb00800878001e089000ee
:104bf0000080e800100f98002e0090000000e800f0
:104c0000200798005e0037002e4090000004a000ae
:104c1000204798005a0037005e0090001000900076
:104c20000000e000160032005e009000900090004e
:104c30001e089000010878001e0890000080e8001f
:104c4000100f9800de0090000000eb00900098002c
:104c50000e089000de009000010878000e08900019
:104c60000080e800000f980010c0b3006047980073
:104c70002e0090000000e800200798004000370058
:104c80002e4090000014a000204798003c00370000
:104c90005e00900010009000400798004e009000c9
:104ca000600090000000e000260032004e009000fe
:104cb00040019000920078001e08900001087800e2
:104cc0001e0890000080e800100f98008280e80025
:104cd0004e009000410098004e009000c0009000ef
:104ce0004e00900020009000808f500004003a0099
:104cf0004e009000900090004e00900041009800ff
:104d00004e009000600090008000e9004e0090008e
:104d1000610098000e089000de0090000108780005
:104d20000e0890000080e800000f980010c0b3004b
:104d3000604798002e0090000000e80020079800cf
:104d40000f0037002e4090000024a000204798005c
:104d50000b0037001e007800100288008e089000bb
:104d60000000eb0080087800be08900010c0b3007f
:104d700080487800ae00900001179800b600370018
:104d80006e0090000080e800600798006e009000c0
:104d900090007800510798005e0090000000e0004d
:104da00070ff3a006e409000e14f50000b003a0057
:104db0008e0890000000eb00800878001e0078004c
:104dc00010028800be0890000040eb008048780088
:104dd000ae009000011798009f003700f24080005d
:104de000f0408000e05890002e40900080c070009d
:104df00000c8b30000c0700060599800f140800006
:104e00000040eb00f0589800f0408000ae089000a1
:104e1000610898007e009000a60207001e0078003e
:104e2000100288005d04070011028000010f780065
:104e3000210420009140780000ceb30000c0700033
:104e400042e0b700f0408000705890000080fb0006
:104e5000600f98006e0890000000e000040032002f
:104e6000ee089000e28f5000010032001a00370077
:104e7000f040800090089000510798005e0090007c
:104e80000000e0000d0032000e089000de009000ef
:104e9000010878000e0890000080e800000f9800dc
:104ea0008e0890000000eb00800878002e00900033
:104eb0000000e800200798000a003700f04080005a
:104ec00011c0b30071589800f0408000fe009000bf
:104ed000ec02070003003700f0408000fe00900065
:104ee000e8020700f0408000705890000080fb004e
:104ef000500f98005e0890000000e00004003200af
:104f0000de089000e28f50002d003200360037009e
:104f10005e009000104078000080fb00400f980079
:104f20004e089000e10f500016003500ce089000aa
:104f3000e28f50000b0034004e089000e30f500049
:104f4000010032000f0037009e0890000000eb00c7
:104f5000800878001e0890000080e800100f98007c
:104f600013003700f0408000b00890001e08900049
:104f7000010878001e0890000080e800100f9800db
:104f80000b0037009e007800110288008e08900008
:104f90000000eb0080087800be08900010c0b3004d
:104fa000804878002e009000001798002a003700f3
:104fb000be0890000040eb008048780013003700e6
:104fc0009e0890000000eb00800878001e0890000a
:104fd0000080e800100f9800be089000e0c0b30009
:104fe00080487800090037009e0890000000eb0020
:104ff000800878001e0890000080e800100f9800dc
:10500000be089000a0c0b30080487800f140800046
:105010000040eb00e0589800f14080000040eb00b9
:10502000f0589800f14080000000eb0090089800d4
:10503000f14080000000eb00a0089800f1408000e3
:105040000000eb00b00898009e0078001102880074
:105050002e009000001798000e1090000080fa00bb
:10506000000006000000fa00ce8b020000000000e5
:105070000c0307002703070072030700d70207008d
:10508000063d020000000000b845020000000000dc
:1050900050550200000000003a03070051030700ca
:1050a0008621020000000000dc8b020000000000ee
:1050b000228e0200000000000080fa0000000600be
:1050c0000000fa0018c8bf00e14f500006003a0087
:1050d00013c8bf00e14f40000300320013c8bf00f7
:1050e0000040e80013e8b7000080fa000000060066
:1050f0000200fa000000eb00000f780018c8bf00a3
:10510000e14f50004c003a0010028000000f780080
:10511000210420009140780000ceb30000c0700050
:1051200042e0b70013c8bf000004e00003003200f3
:1051300013c8bf000040e90013e8b70013c8bf0060
:105140000004e0003a003a0014c8bf000004e00088
:1051500037003a0027040700618120009140780061
:1051600015c8bf0080cf50003100320016c8bf0004
:105170000080fb00816e220000004000608078000b
:10518000104188001241800032109000c21090003f
:1051900061004000e0804800301198004111980003
:1051a000004080001140800061004000e080480025
:1051b000004088001140880016c8bf0061406000b0
:1051c000614060006140600061406000004140005b
:1051d000012d200091407800d0cfb30000c06000c6
:1051e00002407000d0e2b700d042a900d062a9000e
:1051f000d082a900e982a900e9a2a900e9c2a90018
:1052000016c8bf00e14060000040eb0000c0600035
:1052100061406000c700dd00e9c2bf000074a1006a
:1052200001407000e9e2b7008c8b02000000000032
:105230001e007800100288000080fa0000000600be
:105240000200fa000000eb00000f780018c8bf0051
:10525000e14f500012003a0010028000000f780069
:10526000210420009140780000ceb30000c07000ff
:1052700042e0b70013c8bf000004e00006003a0097
:1052800014c8bf00e14f40000300320014c8bf0043
:105290000040e80014e8b7001e0078001002880003
:1052a0000080fa00000006000200fa000000eb0097
:1052b000000f780018c8bf00e14f50001f003a00ef
:1052c00010028000000f7800210420009140780037
:1052d00000ceb30000c0700042e0b70014c8bf00a9
:1052e0000004e0001300320014c8bf000040e900d1
:1052f00014e8b70014c8bf000004e0000a003a0038
:1053000013c8bf000004e00004003a001e0078004b
:105310001002880021030700080037001e007800f3
:1053200010028800050037001e0078001002880077
:10533000020037001e007800100288000080fa008a
:10534000000006000000fa0018c8bf000004e000da
:105350000d003a00a703070016c8bf0015e8b70004
:1053600016c8bf000080fb00816e220000004000d4
:10537000608078001041880010418000f040880073
:10538000ca8a0200000000000080fa000000060047
:105390000200fa000000eb00000f7800200020005f
:1053a000946302000000000010028000000f7800eb
:1053b000210420009140780000ceb30000c07000ae
:1053c00042e0b7006000b800d0408800e1408800ab
:1053d0001e0078001002880040062000946302003e
:1053e0000000000010028000000f7800210420005f
:1053f0009140780000ceb30000c0700042e0b700da
:10540000d0408000e140800050408800614088002a
:1054100010c0b30012e8b7001e0078001002880028
:105420000080fa00000006000800fa000000eb000f
:10543000000f78002a8c020000000000100280009b
:10544000000f7800210420009140780000ceb300c6
:1054500000c0700042e0b7006041800071418000f0
:1054600061004000e0804800604188007141880090
:105470009e0078001102880018c8bf00e14f50005c
:105480006e003a0026c8bf000080fb00300798007d
:105490003e009000e10f50000a003200be00900074
:1054a000e28f50000a0032003e0090000000e00051
:1054b000010032000b00370010c0b30020479800f5
:1054c0000c0037000040eb0020479800090037002f
:1054d00010c0b3002047980010c0b30026e8b70002
:1054e0000400370010c0b300204798000040eb00d4
:1054f00026e8b7002e4090000004e0004f00320084
:1055000021418000210798004700370010028000e9
:10551000000f7800210420009140780000ceb300f5
:1055200000c0700042e0b7002e00900060089000bc
:105530000000e000370032002e009000600890006c
:105540008000e9002e009000610898002e00900075
:10555000600890000000e0002e003a002e0090004d
:10556000605890008080fb00700320000080600085
:105570000000e0000a0032002e009000e058900089
:1055800080ccb30080c060002e009000615898006d
:10559000ae00900010c0b300f05898000300370030
:1055a000ae0090000040eb00f05898002e009000f4
:1055b000605890000080fb004300de000000a20065
:1055c000610060000004e000120032002e00900034
:1055d000c060900017c8bf0000c0700017e8b70097
:1055e0002e009000206090000081fb002e009000b3
:1055f000206090008080fb00005a2200e14078008b
:105600002e0090003060900080c07000005a220090
:10561000017178002e009000f000900021079800a2
:105620001e007800100288002e009000806090001c
:10563000f0c3b30080cf5000b4ff3a000080fa00fe
:10564000000006000000fa00e01120000080fa00cf
:10565000000006000000fa000080fa0000000600ca
:105660000c00fa003007980041079800224f98007c
:10567000334f98003e009000604090008080fb0017
:10568000a0a2290061417800224798002e40900096
:105690000080fb00be00900066004000010040005a
:1056a000104090008080fb00a0a22900614178009a
:1056b000124798002e4090000080fb004300dd0060
:1056c000804078001e40900000c04000004f7800ed
:1056d0001e80fb00816e2200000040006081780087
:1056e00022079800ae0090000000eb00e008980050
:1056f0002e009000ce009000310898002e009000ff
:1057000060589000804078002e48900000c0ea0069
:1057100000c06000804078002e0090006158980022
:105720002e0090003e499000725898002e00900084
:10573000605890000080fb004300de000000a200e3
:10574000610060000004e000100032002e009000b4
:10575000c060900017c8bf0000c0700017e8b70015
:105760002e4090000081fb002e4090008080fb00c6
:10577000005a2200e14078002e0090003060900036
:1057800080c07000005a220001717800be009000b5
:105790002e009000920007002e009000200890003c
:1057a0000000e000070032002e009000a0089000ea
:1057b0002e009000b30007002e009000be00900065
:1057c000110898001e80fb000080fa00000006000f
:1057d0000400fa0010079800f04080009e0090003e
:1057e00011089800f0408000206090000081fb00cc
:1057f000f0408000206090000080fb009e00900040
:10580000660040000100400090409000f0408000a1
:105810003060900080c070001e00900002004000c8
:1058200066004000114098001e009000e04090008b
:10583000f04080004060900080c070001e0090002a
:1058400061409800f0408000a0609000014f780017
:105850001e81fb009e80fb00005a22006140780000
:1058600080407800f04080003060900000c0ea0086
:1058700000c0600080407800005a2200017178006a
:105880009e80fb00005a2200614078000004e00086
:1058900006003a00f04080004060900080c0ea00be
:1058a00017c8bf0000c0600017e8b7000080fa000a
:1058b000000006000800fa0030079800f140800060
:1058c0000000eb0090089800f0408000be009000bf
:1058d000210898003e009000200798002e009000bc
:1058e00090007800110798001e003700f0408000fb
:1058f000206090000081fb00f0408000206090005c
:105900000080fb009e009000660040000100400007
:1059100090409000f04080003060900080c07000a7
:105920001e009000020040006600400011409800f8
:105930001e009000e0409000f04080004060900029
:1059400080c070001e009000614098002e00900002
:105950000080e800200798002e009000900078005a
:10596000110798001e0090000000e000dfff3a00e1
:10597000f0408000a0609000014f78001e81fb0085
:105980009e80fb00005a2200614078008040780031
:10599000f04080003060900000c0ea0000c060006d
:1059a00080407800005a2200017178009e80fb0040
:1059b000005a2200614078000004e00006003a002e
:1059c000f04080004060900080c0ea0017c8bf002f
:1059d00000c0600017e8b7000080fa000000060071
:1059e0000600fa0010079800210798001e0090009a
:1059f000a0609000014f78001e81fb001e80fb001c
:105a0000ae00900066004000010040001040900091
:105a1000804078001e0090003060900000c0ea00d6
:105a200000c06000804078002e009000020040001e
:105a300066004000114098001e80fb00ae00900000
:105a40006600400001004000104090000004e000ab
:105a50000a003a002e0090006040900080407800dc
:105a60001e0090004060900000c0ea0000c060008e
:105a7000804078002e009000614098000080fa007d
:105a8000000006000c00fa0040079800510798003b
:105a90004e009000a0609000214798004e009000ba
:105aa000c0609000114798004e009000b0609000d8
:105ab000014f78005e009000300798003e00900093
:105ac0009000780021079800280037002e409000b1
:105ad0000081fb002e4090000080fb00ae00900093
:105ae00066004000010040001040900080407800b7
:105af0001e40780000c0ea0000c0600080407800ce
:105b00002e00900002004000660040001140980006
:105b10002e4090000080fb00ae0090006600400028
:105b200001004000104090000004e00009003a002d
:105b30002e00900060409000804078001e40900051
:105b400000c0ea0000c06000804078002e00900095
:105b5000614098003e0090000080e8003007980007
:105b60003e00900090007800210798002e009000e1
:105b70000000e000d5ff3a000080fa0000000600b7
:105b80000600fa0020079800ae0090000040eb00ed
:105b9000e04098002e009000670040001007980039
:105ba0000040eb00004f7800070037009e00900097
:105bb0000040eb00804878001e0090000000e800e4
:105bc000100798001e4fe80070c0b3009e4f1000f1
:105bd000f6ff36000080fa00000006000600fa001a
:105be0002017220001282000c700070020172200ec
:105bf0001007980020192200000f78000000eb0029
:105c000020079800140037009e0090000040eb0031
:105c1000804878001e0090009e00780011009800d7
:105c20009e009000f0c3b300f04898009e009000e2
:105c30000040eb00805098001e0090000002b00071
:105c400010079800000220001e0f40002e00900058
:105c50000000e800200798002e009000f20f50008e
:105c6000e9ff36009e0090000040eb00804878007d
:105c70009e0090000000eb00900098009e009000b5
:105c8000f0c3b300f04898009e0090000040eb0085
:105c90008050980020172200204088000080fa00e1
:105ca000000006000000fa006000b80060418800b3
:105cb000714188000040eb0013e8b7000040eb00a2
:105cc00014e8b7000040eb0019e8b7000040eb0013
:105cd00018e8b7006000b800004088001140880054
:105ce0006000b800d0408800e14088006000b80043
:105cf00070408800814088006000b80050408800f3
:105d0000614088000040eb0012e8b7000080fa0014
:105d1000000006000400fa000040eb0017e8b7009e
:105d2000005a2200000f78000040eb002047980046
:105d3000070037009e0078000040eb0080487800a4
:105d40001e0fe8002e4090000040e8002047980019
:105d50002e409000e74f5000f6ff36000040eb0069
:105d600015e8b7000040eb0016e8b7000000eb00b4
:105d7000104188000000eb00f04088000080fa002d
:105d8000000006000200fa00616e220030002000d0
:105d9000801f78000000eb00801f7800060a2000ba
:105da00007002000810278000082eb00f3c3b300fb
:105db000825a22008000eb00401723007a5c020028
:105dc00000000000e4875700a1b229000e0178000e
:105dd000f0c3b300ee5f0200000000000080fa0094
:105de000000006000200fa00e15922003000200005
:105df000801f78000000eb00801f7800060a20005a
:105e00000700200081027800e4ff2f00e3c3b30005
:105e1000024622008000eb00001a23007a5c020098
:105e200000000000e487570081b329000e017800cc
:105e3000e0c3b300ee5f0200000000000080fa0043
:105e4000000006000600fa008076220001632000b0
:105e50002d000700806e2200010820002a000700a4
:105e60008076220010079800007b2200000f780047
:105e70000040eb0040479800110037001e009000e2
:105e80009e007800710098009e009000f0c3b3005f
:105e9000807898009e0090000040eb009078980079
:105ea0001e0090008004b0001007980080042000bd
:105eb0001e0f40004e4090000040e8004047980010
:105ec0004e409000f44f5000ecff36009e009000d2
