:020000040000fa
:08000000f88e0400000000006e
:020000040000fa
:100400005e060400000000008808040000000000f0
:10041000300a040000000000b20a040000000000de
:100420008c0b040000000000420e040000000000dd
:100430007c0e040000000000ca0e04000000000052
:10044000c6100400000000008c0f04000000000033
:100450004610040000000000d2100400000000005c
:100460007811040000000000bc110400000000002e
:10047000d0190400000000008827040000000000dc
:100480000466040000000000f8730400000000008f
:10049000f076040000000000881f780050548100ae
:1004a0000000e00001003200000001002054810043
:1004b0000000e000010032000000010090498100ce
:1004c0000000e000010032000000010060498100ee
:1004d0000000e0000100320000000100c0a822007e
:1004e0001004e00026003a0030548100415481009d
:1004f0000004eb00d2602600930120007801070081
:10050000f2352f00e3c6230000004100818049003e
:100510000804e800e80f5400f6ff3a003054890060
:100520004154890048932200d260260093012000a4
:10053000305481004154810069010700f2352f00d9
:10054000e3c6230000004100818049003054890047
:1005500041548900009cbe00409b2200800f540043
:10056000f1ff3a00804d8100914d81007049890072
:100570008149890011c0b300c0a822000148780059
:10058000d260260093012000305481004154810044
:1005900053010700f2352f00e3c62300000041009d
:1005a000818049003054890041548900e292220040
:1005b000120178007f0161004211dd0043932200a7
:1005c000030141001202be00744989008549890077
:1005d0000089be0070498100814981004008de0029
:1005e00000f0a1004f047800000006006022b8006f
:1005f000060220000000d0008180d2000482d200d8
:100600008582d2000000a0000202520083825a00bc
:10061000030031000202420083824a000000a10070
:100620000603e900f3ff3a0000000600889fbe00c1
:100630008a9fbe00010578000100e000040035003b
:1006400008003c000000e0002000320005003700f8
:1006500060001000e080180002003b0001f02c0058
:100660001a0037000004be006011b8006b092000ba
:100670000982cf00020039000882cf000441b00097
:10068000694252000e00320008003b008281710076
:10069000610164008904d1000884d3008b05e8005f
:1006a0000442e800f9ff3a0005003700080444005e
:1006b00089844c008b05e9000442e900fbff3a0005
:1006c000b40007000af0a70001f0a0004f05be002b
:1006d0004f04be000000060003f0a200889fbe0089
:1006e0008a9fbe008c1f7800d0000700d70033001f
:1006f0006450e1004f0032006420e10052003200fb
:1007000003826c0007003b000905d0000306d000ff
:10071000820f54000c065d00020039000200320016
:1007200089017800030678008582550004003d00a9
:100730000003fd008103fd008502ea008b85420075
:10074000840f720002003b0060001000e08018007f
:100750006011b8000005eb007a28e1000a003900ba
:1007600006007800c75ddd00f707b20087807500de
:100770002d003700828171000a0178006105600058
:100780008180d1000080d3008502e900f9ff3b00a1
:10079000060440008784480002003b006004140007
:1007a000e0841c000988a300070032008a817100e0
:1007b00082817100610164008904d1000884d30042
:1007c0008b05e800170037000978a30013003a00f2
:1007d0000b00e000130034008b05e900080444001e
:1007e00089844c000a4474000978a3000d003a0083
:1007f0000b00e000070034008b05e900080444000a
:1008000089844c0001003a000b0020000978a30005
:10081000f7ff32000001eb00020037008281710017
:100820000a0178005b0007000cf0a70001f0a000af
:100830008f0037006420e10002003a00838f6c00d3
:100840008f0033000801be000200be0088003700a0
:10085000889fbe008a9fbe008c1f7800730007002f
:100860007a00330003866c006450e1002e003200f1
:100870006420e100330032006150e1002f003200bb
:100880006120e1003100320085855500eb07b000a2
:100890000900200008042000050037000804440077
:1008a00089844c000a0031000603430087834b0013
:1008b0000001530081815b00f8ff33000203be009a
:1008c0000800a0000804440089844c00f6ff3900a9
:1008d000c639dd00830173000100320013002000df
:1008e0008904d1000884d3000998a30005003200d0
:1008f0000800a7000300a0008904d1000884d300e9
:100900008b05e8008904d1000884d3000001eb00c6
:100910000281d2001f00070001f0a1000cf0a70027
:1009200001f0a000520037006420e10054003200c2
:100930000801be000200be00f7ff37006120e100a1
:100940004f0032006000b800f3ff370000002000c5
:1009500001f82700f0ff3700839f68000100e000e6
:1009600002003d0060001000e08018000300e0007d
:1009700002003d0060011100e08119001bff07002b
:100980004f00e00002003b0060001000e080180013
:100990000000060081002000618055000b003d0032
:1009a0000b00200061fe2f000100e1001d0034005b
:1009b00082817100610164008904d1000884d30040
:1009c0000000e800faff3a007100200061006400b6
:1009d000030070000200600009003200610444005e
:1009e000e0844c000988a500050032008b05e80072
:1009f0006808e10002003a008904d1000884d300ad
:100a0000f20f20000258e10005003d00c75ddd0047
:100a1000f907b20089807500080078000000060020
:100a20000bf827008b007800000005000004be00d2
:100a3000160007000003be000405be000200be0051
:100a400012000700844f7500000006000200be007f
:100a50006450e100050036006420e1000200360029
:100a60000968a30001003a000800be000160a00070
:100a70004f0678004f05be004f04be000000060080
:100a8000f0ff2f00f1ff2700f9ff3700c70ade0053
:100a9000f107b200f50fb20008003200e1cf4200ca
:100aa000020032000170a00024000500810f7000d8
:100ab000010032000408050044000500810f7000a9
:100ac00002003a00140005008502e9000000400021
:100ad00081c04800fcff3b000170a000240005001d
:100ae000020ab900001bb9000200b80081004200f0
:100af00081004300000006000200fa00ba7d0200f7
:100b000000000000408b020000000000561e0200a2
:100b1000000000000000eb00c44b020000000000d9
:100b200050b788000000eb00c44b0200000000003a
:100b300060b788000000eb00c44b0200000000001a
:100b400070b788000000eb00c44b020000000000fa
:100b500080b788000000eb00c44b020000000000da
:100b600090b788000000eb0016340200000000007f
:100b7000a0b788000000eb0016340200000000005f
:100b8000b0b788000000eb0016340200000000003f
:100b9000c0b788000000eb0016340200000000001f
:100ba000b0b788000000eb0016340200000000001f
:100bb000d0b788000000eb001634020000000000ef
:100bc000e0b788000000eb001634020000000000cf
:100bd000f0b7880020702100810c20003a44020008
:100be0000000000000b888008e007800b0c0b3009c
:100bf000823c02000000000090c488008e00780053
:100c0000b0c0b300823c020000000000a0c4880015
:100c10008e007800b0c0b300823c020000000000eb
:100c2000b0c488008e007800b0c0b300823c0200df
:100c300000000000c0c4880061e0a800c062a900f4
:100c4000c042a900c442a800d2c2a8008660a90080
:100c50009660a8008196200030002000801f780058
:100c60000000eb00801f7800060a2000070020002b
:100c7000810278009400200093c0b300a28220007b
:100c80008000eb00e06520007852020000000000c8
:100c9000e4875700a1b027000e01780090c0b30090
:100ca0000c56020000000000f21f020000000000cd
:100cb0000080eb000080fa00000006000400fa004b
:100cc00010079800887c020000000000da7602001d
:100cd000000000000040eb00067e02000000000063
:100ce00081f6200030002000801f78000000eb001b
:100cf000801f780006302000070020008102780065
:100d0000c4002000c3c0b300a29620008000eb0006
:100d1000808820007852020000000000e48757001d
:100d200061b127000e017800c0c0b3000c5602006c
:100d3000000000008106210030002000801f7800a4
:100d40000000eb00801f780006082000070020004c
:100d500081027800d4002000d3c0b300a2f62000a6
:100d60008000eb0000a32000785202000000000089
:100d7000e4875700b1b227000e017800d0c0b3005d
:100d80000c560200000000008116210030002000f7
:100d9000801f78000000eb00801f7800060820000c
:100da0000700200081027800e4002000e3c0b300c7
:100db000a20621008000eb0020ab20007852020048
:100dc00000000000e4875700a1b327000e0178005f
:100dd000e0c0b3000c560200000000008126210094
:100de00030002000801f78000000eb00801f78009a
:100df000060820000700200081027800f40020008f
:100e0000f3c0b300a21621008000eb00c0b82000a0
:100e10007852020000000000e487570071b42700f8
:100e20000e017800f0c0b3000c5602000000000074
:100e30008136210030002000801f78000000eb0088
:100e4000801f78000608200007002000810278003b
:100e50004401200043c1b300a22621008000eb0022
:100e600020e420007852020000000000e4875700d0
:100e700051b527000e01780040c1b3000c560200a6
:100e800000000000813e210030002000801f78001b
:100e90000000eb00801f78000604200007002000ff
:100ea00081027800c4012000c3c1b300a236210032
:100eb0008000eb00c0e72000785202000000000034
:100ec000e487570001b627000e017800c0c1b300c7
:100ed0000c56020000000000814621003000200076
:100ee000801f78000000eb00801f780006042000bf
:100ef0000700200081027800e4012000e3c1b30074
:100f0000a23e21008000eb00a0ec200078520200fd
:100f100000000000e4875700d1b627000e017800da
:100f2000e0c1b3000c56020000000000815e210009
:100f300030002000801f78000000eb00801f780048
:100f4000060420000700200081027800a40220008f
:100f5000a3c2b300a25621008000eb00600c210068
:100f60007852020000000000e4875700c1b7270054
:100f70000e017800a0c2b3000c5602000000000071
:100f8000814e210030002000801f78000000eb001f
:100f9000801f7800060420000700200081027800ee
:100fa0008402200083c2b300a24621008000eb002f
:100fb000c0f820007852020000000000e4875700cb
:100fc000e1b827000e01780080c2b3000c56020081
:100fd000000000008156210030002000801f7800b2
:100fe0000000eb00801f78000604200007002000ae
:100ff000810278009402200093c2b300a24e210027
:101000008000eb0060042100785202000000000024
:10101000e4875700e1b927000e01780090c2b300c1
:101020000c56020000000000816621003000200004
:10103000801f78000000eb00801f7800060420006d
:1010400007002000810278005401200053c1b30042
:10105000a25e21008000eb00200d210078520200ea
:1010600000000000e4875700b1ba27000e017800a5
:1010700050c1b3000c56020000000000816e210038
:1010800030002000801f78000000eb00801f7800f7
:10109000060420000700200081027800640120007f
:1010a00063c1b300a26621008000eb00801721001d
:1010b0007852020000000000e4875700b1bb27000f
:1010c0000e01780060c1b3000c5602000000000061
:1010d00067bc27008e1f78000003eb00c51b2100b2
:1010e00024c0b30082382100030020006000b80053
:1010f00032120200000000008f87e900d0c488008f
:1011000000c0eb004c58020000000000fcff37005c
:101110001a00fa00300f98000e5c02000000000078
:1011200070079800010f98000000eb00000f780096
:101130000e5c020000000000800078007e0090003d
:1011400000805000400f98004e0890000000e00022
:1011500003003d00ce0890008100ea00410f980096
:101160004e0990006110b90050079800610798007f
:101170000000eb00400798001c003700ce019000f3
:101180004e009000618120000000400060807800e7
:10119000800078005e009000008050000001780020
:1011a00061812000038041000100400002087800b6
:1011b0004e009000618120000000400060807800b7
:1011c0000000e00006003c004e009000618120001d
:1011d00000004000810040000000eb008008780023
:1011e0004e0090000000e800400798004e0090007c
:1011f000e90f5000e1ff34000e5c02000000000027
:1012000070079800010f98000000eb00300798006d
:1012100000b8800075014700410620007e460200ac
:1012200000000000100f98000e0037003e009000f4
:10123000800078001e089000008040001040780078
:101240000080fb0061812000000040008100400020
:1012500080382100800878003e0090000000e800ff
:10126000300798003e009000800078001e08900033
:1012700000804000104078000004e000ebff3a00de
:10128000b0c48000750147008000eb00b83e02004a
:1012900000000000d089210090407800415798005c
:1012a000b0c4800064410200000000004e50900075
:1012b000e64f5000060032004e509000e14f5000c3
:1012c000030032004e509000e24f500020003a00e0
:1012d0004201200080c0eb002080200060620200fc
:1012e000000000000000eb00200798000000eb0069
:1012f00040079800120037004e00900061812000e6
:1013000000004000608078000000e0000900340028
:101310002e009000218020000000400001004000cd
:101320004e019000020878002e0090000000e800b6
:10133000200798004e0090000000e8004007980049
:101340004e009000e90f5000ebff340034003700ee
:101350000000eb00400798002e0037000000eb0073
:10136000100798004e0090006181200000004000ae
:10137000608078000000e00023003400a0c48000fa
:10138000750147008000eb00b83e0200000000003d
:101390009e0090002e009000808f500010003c00b6
:1013a0001e0090002180200000004000e0807800b6
:1013b0004e009000808f500009003a004e009000cf
:1013c0006181200000004000e0807800c089210099
:1013d000104078000080fb00808f500004003a002d
:1013e00050b78000d24e0200000000005057980015
:1013f000a0c4800064410200000000001e009000b4
:101400000000e800100798004e0090000000e8007f
:10141000400798004e009000e90f5000cfff3400c5
:10142000703821009e0f100007003400a0b7800024
:10143000218020004e370200000000005057980025
:101440000000eb00000f7800401f20001e0f40003e
:10145000401f2000c05902000000000034ff370088
:101460001000fa00500798000080eb008080eb002d
:10147000008fbe000e5c02000000000020079800f4
:101480003107980090c480006801470001fa2000ed
:10149000b83e02000000000002872700120078001a
:1014a00031002e000100600000097800018727004c
:1014b000210090000000a0000010a1000020a10069
:1014c0000030a100a0009800a0c48000680147007f
:1014d0008000eb00b83e020000000000c08921003f
:1014e000904078000087270061409800a0c48000e9
:1014f0006441020000000000be8502000000000000
:1015000090c4800064410200000000001e007800ca
:10151000700798000e5c0200000000008000780058
:101520002e00900000805000600798006e0190002f
:101530000200e00003003d006e0090000000ea00a1
:10154000600798006e0090007e01900080005100be
:1015500000fa200001005000c05902000000000005
:10156000c4ff37000800fa0030079800f189210015
:1015700060c0b30080487800b0c4800064014700b8
:101580008000eb00b83e020000000000d18921007d
:1015900060c0b30080487800a0c4800064014700a8
:1015a0008000eb00b83e0200000000004c02020088
:1015b00000000000a2002000110009000200d80075
:1015c0008000fd0080407800c0892100014878003b
:1015d000a0c480006441020000000000a0b78000a9
:1015e000640147008000eb009a3502000000000013
:1015f000100798000000eb00000f78001f00370074
:101600001e00780000004000800078001e0090005e
:101610000080400090007800c089210010407800d0
:101620000080fb00808f500013003a00a0c48000af
:10163000640147008000eb00b83e0200000000009b
:101640004c02020000000000a2002000110009006e
:101650000200d8008000fd0080407800c089210091
:1016600001487800a0c4800064410200000000002e
:101670000080eb00000f78001e0fe8001e007800cd
:1016800000004000800078001e00900000804000b4
:1016900010007800e10f4000d9ff3a0081fe2700da
:1016a0001e00900009000900b01878004101b10047
:1016b0004001b100a0b78000640147008000eb004a
:1016c0009a3502000000000010079800a2002000d8
:1016d00081fe27001e009000410307000000e0008b
:1016e000c4ff3200d189210010c0b30080487800c7
:1016f000b0c480006441020000000000f1892100b4
:1017000010c0b3008048780000c0eb004c580200c5
:1017100000000000fcff37001000fa0040079800ae
:1017200002122a00730020000000eb00d2850200a4
:10173000000000008000eb000040eb00ba880200cf
:10174000000000001100200010c0b300ba880200a1
:10175000000000004100200020c0b300ba88020051
:10176000000000006100200030c0b300ba88020011
:10177000000000008100200040c0b300ba880200d1
:10178000000000000101200050c0b300ba88020030
:1017900000000000f17f20000040eb00ba8702004b
:1017a000000000008040eb000040eb003c8602009f
:1017b0000000000011c0b3000040eb003c860200b6
:1017c0000000000021c0b3000040eb003c86020096
:1017d0000000000031c0b3000040eb003c86020076
:1017e0000000000041c0b3000040eb003c86020056
:1017f0000000000051c0b3000040eb003c86020036
:10180000000000000040eb0040479800b0c480009a
:10181000660147008000eb00b83e020000000000b7
:101820000040eb002047980060b780007c4b02002e
:10183000000000000000e00009003200d089210013
:1018400010407800e34f500005003a00d089210095
:1018500041c0b3000148780010c0b3002047980091
:10186000f0b78000d833020000000000000f7800bd
:101870001e00780010407800e14f50001b003a0035
:10188000d089210090407800314798003e40900078
:101890000080fb00700798007e009000e10f500070
:1018a00008003200fe009000e18f50000c0035006f
:1018b000fe00900063805000e20f500008003e00e0
:1018c00004003700d189210030c0b300804878007f
:1018d00003003700d189210010c0b3008048780090
:1018e00010c0b30020479800130037001e00780096
:1018f00010407800e24f50000f003a00d0892100dc
:1019000010407800e34f500008003200d0892100d9
:1019100010407800e44f500004003200d0892100cc
:1019200010407800e54f500003003a004e40900010
:101930000040e800404798004e409000e24f5000c1
:101940000d003600d089210010407800e34f500090
:1019500004003200d089210010407800e44f50008c
:1019600005003a00d089210051c0b3000148780039
:1019700010c0b30020479800c0c480006601470033
:101980008000eb00b83e020000000000f08921005a
:1019900090407800e08921000148780050b780002d
:1019a0007c4b0200000000000000e0000d0032004f
:1019b000d089210010407800e34f5000040032002d
:1019c000d089210010407800e44f500005003a0013
:1019d00010c0b30020479800d189210050c0b30047
:1019e00080487800e089210090407800d08921006b
:1019f0001040780080cf50000c0032002e40900044
:101a00000004e00009003a0070b780007c4b02003f
:101a1000000000000000e00004003a00e08921001e
:101a200090407800d089210001487800d0892100b9
:101a3000904078005e40900080cf50001900320046
:101a4000d0892100104078000080fb0060079800da
:101a50006e009000e30f500012003200ee00900084
:101a6000e38f500004003c006e009000e10f500036
:101a7000050032000b003700ee009000e48f5000ac
:101a800004003200070037000040eb004047980098
:101a900004003700d0c48000e60047006a15020049
:101aa00000000000d089210090407800e0892100ea
:101ab0001040780080cf50006500320090c4800054
:101ac000660147008000eb00b83e02000000000005
:101ad00001872700210090000000a0000010a10055
:101ae0000020a1000030a100a0009800a0c4800048
:101af000660147008000eb00b83e020000000000d5
:101b0000c08921009040780000872700614098003c
:101b1000a0c480006441020000000000d0892100c0
:101b2000104078000080fb00500798005e00900095
:101b3000e30f500024003200de009000e38f5000dd
:101b400007003c005e009000e10f50000b003200e7
:101b5000de009000e28f50001100320035003700a7
:101b60005e009000e50f500029003200de0090007a
:101b7000e58f50001d0035002e003700008727003c
:101b80009000780032002e00828060000140a000aa
:101b900001087800be850200000000002500370023
:101ba000028727001200780031002e00010060003b
:101bb000010420000100700000097800be850200c9
:101bc000000000001b00370000872700900078000d
:101bd00032002e00828060008101b300010878008d
:101be000be850200000000001200370000872700b9
:101bf0009000780032002e00828060000120a0005a
:101c000001087800be8502000000000009003700ce
:101c1000028727001200780031002e0001006000ca
:101c2000010220000100700000097800be8502005a
:101c30000000000090c48000644102000000000029
:101c4000d089210090407800f08921000148780077
:101c5000d08921009040780051479800c0c480008e
:101c60006441020000000000b0c480006441020032
:101c700000000000401f2000c059020000000000ca
:101c8000e2fe37000600fa0010079800118a2100d2
:101c90000040eb0080487800b0c480000e01e800ee
:101ca0008000eb00b83e020000000000d089210057
:101cb000104f7800b0c480006441020000000000b2
:101cc0000040eb004047980051c0b3009ecf100089
:101cd00002003a0010c0b30040479800108a21006b
:101ce000ce40900001487800803e2000c05902009c
:101cf00000000000e8ff37000800fa0030079800f5
:101d0000fa8302000000000000c0eb0020479800aa
:101d100000c0eb00104798001e409000004f780074
:101d20002e40900010479800208402000000000020
:101d300020479800ae4090001e40900080cf500099
:101d400010003a002e4090009e4f50000d003200cf
:101d50002e409000e14f40000a0032002e409000db
:101d60008080fb0080fd270061407800404798009c
:101d7000b0b78000e40047004e37020000000000ca
:101d80003047980020032000c059020000000000e6
:101d9000e1ff37000e00fa0060079800e8004700f6
:101da000c0ff270003000900b05878004100b100cf
:101db0004000b1000000eb00000f78000000eb00d5
:101dc00030079800018a21000040eb00804878002d
:101dd00000003700b0b78000640147008000eb00ce
:101de0009a3502000000000010079800018a2100c7
:101df00010c0b300804878001e0178001e009000db
:101e000090407800680047000000410001487800d9
:101e10001e0fe800300020009e0f100007003c005d
:101e20001e00780030079800d0b78000e600470019
:101e30004e37020000000000e6ff3700018a210053
:101e40000040eb0080487800680047009040780030
:101e500010c3b30080cf50001e003a006800470056
:101e60009040900020c3b30080cf500019003a008a
:101e700068004700a040900030c3b30080cf5000fe
:101e800014003a0068004700b040900040c3b3001f
:101e900080cf50000f003a000000eb00000f7800e8
:101ea0000000eb003007980010c0b30050479800c6
:101eb000d0b78000e60047004e3702000000000067
:101ec000f0b78000e50047004e3702000000000038
:101ed0000e0037000080eb00000f78000080eb0060
:101ee0003007980020c0b30050479800d0b780005a
:101ef000e60047004e37020000000000f0b7800007
:101f0000e50047004e370200000000000000eb0033
:101f1000000f7800afff37000600fa0010079800a6
:101f200001c1b30020c0b300fe7a0200000000002f
:101f30009c78020000000000008a21001040780018
:101f40000004e0004d003a00c05d2000c0590200ce
:101f5000000000009c78020000000000d0892100f1
:101f6000104078000080fb00200798002e009000b1
:101f7000e30f50002b0032002e009000e30f5000c2
:101f800007003c002e009000e10f500014003200ca
:101f90002e009000e20f500017003200370037008b
:101fa0002e009000e50f50002f0032002e00900010
:101fb000e50f5000210035002e009000e60f500084
:101fc000010032002d00370062bd27008040eb0089
:101fd0000040eb008a7b0200000000002700370071
:101fe00062be27008040eb000040eb008a7b0200cd
:101ff0000000000021003700f2be27008040eb0007
:102000000040eb008a7b020000000000c2bf2700f6
:102010008040eb0010c0b3008a7b0200000000008b
:102020001600370052c027008040eb000040eb0054
:102030008a7b02000000000010003700b2c02700b9
:102040008040eb000040eb008a7b020000000000b3
:1020500052c127008040eb0010c0b3008a7b020011
:10206000000000000500370002c227008040eb009e
:102070000040eb008a7b020000000000401f2000af
:10208000c059020000000000abff37000800fa0052
:102090002007980000003700d0b780000e81e800cc
:1020a0008000eb009a35020000000000000f78006d
:1020b0009c780200000000001e00780010007800ec
:1020c000300798003e009000e10f50001d003200e4
:1020d0003e009000e10f500007003c003e009000e1
:1020e000e10f40000b0032003e0090000000e000d5
:1020f0000e003200e8ff37003e009000e20f500073
:10210000160032003e009000e30f5000190032002c
:10211000e1ff3700e2c227008040eb000040eb0007
:102120008a7b020000000000dbff3700d2c32700db
:102130008040eb000040eb008a7b020000000000c2
:10214000d5ff370092c427008040eb000040eb0031
:102150008a7b020000000000cfff3700b2c42700d6
:102160008040eb000040eb008a7b02000000000092
:10217000c9ff3700e2c427008040eb000040eb00bd
:102180008a7b020000000000c3ff37000400fa0051
:102190001007980000c0eb004c580200000000003f
:1021a000fcff37000a00fa0040079800c642a90069
:1021b000dec2a900df02a90080b7800066014700e7
:1021c0008000eb00484d02000000000000003700d6
:1021d000108a2100104078000004e0003d00320029
:1021e0000000eb00200798000f0037002e00900041
:1021f000218a21000000400060807800a68b020048
:1022000000000000a30020000041eb008040eb0034
:102210000040eb00365a0200000000002e00900043
:102220000000e80020079800ae009000f0032000b6
:10223000808f5000edff340080b7800066014700ba
:102240008000eb00484d02000000000090b78000c5
:10225000d24e0200000000000000eb0020079800b2
:102260000f0037002e009000219221000000400056
:1022700060807800a68b020000000000a300200010
:102280000041eb008040eb000040eb00365a0200ba
:10229000000000002e0090000000e80020079800d9
:1022a000ae009000f0032000808f5000edff34005e
:1022b00080b78000660147008000eb00484d0200b7
:1022c0000000000090b78000d24e02000000000025
:1022d000bfff3700431f20000041eb008040eb00b0
:1022e0000040eb00365a020000000000b8ff370043
:1022f0000800fa003007980001042000208a21001d
:10230000e28b02000000000080b78000d24e020085
:10231000000000000104200020922100e28b020056
:102320000000000080b78000d24e020000000000d4
:1023300090b78000640147008000eb00484d020028
:102340000000000001042000208a2100e28b02002e
:102350000000000080b78000d24e020000000000a4
:1023600090b78000640147008000eb00484d0200f8
:1023700000000000e7ff37000600fa001007980091
:1023800021079800b0c480000e0178008000eb00a7
:10239000b83e020000000000d189210050c0b30007
:1023a0008048780070b78000d24e02000000000024
:1023b000004f7800b0c480006441020000000000bb
:1023c000d0c480008e0178000001eb008040eb005b
:1023d0000c160200000000000080fa000000060059
:1023e0000a00fa00100798002107980032079800a9
:1023f0000000eb00000f7800120037001e0078008c
:1024000000004000800078001e0090000080400026
:10241000100178001e007800000040008000780065
:102420002e0090000080400010007800800f5100c6
:10243000030032000000eb00400798000600370060
:102440001e0fe8003e0090009e0f1000ebff3500cd
:1024500010002000400798004e0090000080fa0015
:10246000000006001600fa002007980031079800c7
:102470004207980053079800444f9800750798004a
:10248000060f9800170f980080c9210010407800af
:102490000004e00006003200ceb89700b0c8b300d8
:1024a000804878000000eb00200f980046003700bd
:1024b000ad0307005a020700100798001e009000a5
:1024c0000000e00007003a00af030700ceb8970015
:1024d00060c8b300804878008000eb00210f9800ae
:1024e000390037009e00900010c0b300f0609800e3
:1024f0001e0090002e019000be0190007200980016
:10250000030898001e0090004e019000de0190002c
:1025100012089800230898001e009000ce499000f1
:10252000636098001e009000fe009000110098006b
:102530001e0090000e099000220098001e089000d6
:102540000000e0001a0032001e0890006827020018
:1025500000000000004f7800f3c0b3009ecf1100d0
:1025600006003e001e009000760040009e0890008d
:1025700032270200000000000d0037009e0090008e
:1025800030c2b300e05098009e0090000040eb0085
:10259000f0509800ceb89700c0c8b30080487800cb
:1025a000790307001e009000200f980006003700f6
:1025b00075030700ceb897000040eb008048780014
:1025c0009e009000210f98002e0890000080fa00d5
:1025d000000006000800fa00000f780011079800bc
:1025e0001e0078009040780040c6b30080cf5000b5
:1025f000060032009e00900090c8b300804878002a
:102600000000eb00300798003e00370080c9210031
:10261000104078000004e000060032009e009000a8
:10262000b0c8b300804878000000eb003007980085
:10263000340037004c0307001e00780070609000e3
:102640000080fb00200798002e009000e20f500051
:1026500007003c002e009000e10f500013003d00e9
:102660002e0090000000e000190032001f0037002b
:102670002e009000e30f5000010032001b003700d5
:102680001e007800fb0207001e0078000102070010
:102690003d0307009e0090000040eb00804878005a
:1026a0001000200030079800160037001e00780048
:1026b000f8010700340307009e0090000040eb0083
:1026c0008048780010002000300798000d00370087
:1026d0002d0307009e00900070c8b300804878006a
:1026e0000000eb00300798000600370026030700c3
:1026f0009e009000d0c8b300804878000000eb0036
:10270000300798003e0090000080fa0000000600ac
:102710000c00fa0010079800210798003207980073
:102720001e0090009040780040c6b30080cf50005b
:1027300006003200be00900090c8b30080487800c8
:102740000000eb00500798003200370080c92100dc
:10275000104078000004e00006003200be00900047
:1027600010c1b300804878000000eb0050079800cb
:1027700028003700fc0207001e00900070609000e7
:102780000080fb00400798004e0090000000e00031
:10279000130032004e0090000000e00017003500ea
:1027a0004e009000e30f500014003c001e0090000b
:1027b000f60040002e0090003227020000000000ca
:1027c000004f7800f0020700be0090000040eb00d0
:1027d000804878001e80fb00500798000d003700ed
:1027e000e9020700be00900070c8b300804878007e
:1027f0000000eb005007980006003700e2020700d7
:10280000be009000d0c8b300804878000000eb0004
:10281000500798005e0090000080fa00000006005b
:102820000e00fa0020079800310798002e00900053
:102830009040780040c6b30080cf500007003200bf
:10284000be00900090c8b300804878006000b800d7
:1028500050079800610798006d00370080c921007b
:10286000104078000004e00007003200be00900035
:10287000b0c8b300804878006011b80052079800d3
:102880006307980062003700b70207002e0090002f
:10289000706090000080fb0040079800ce0190001f
:1028a000e18f51001d0032004e009000e10f5000fa
:1028b00004003c00ce0090000100e0004500320022
:1028c0004c0037004e019000e20f510039003200f9
:1028d000ce019000e38f5100010032004500370027
:1028e0002e00900050019000e0019000102a81001d
:1028f000212a8100001f510001975900a202070000
:10290000be0090000040eb00804878001e00be0032
:1029100050079800610798003d0037002e00900096
:10292000606090000080fb00e20f50000100320068
:10293000140037002e009000800890007000900076
:10294000e00f5000e08f580005003a002e00900084
:1029500010099000a0099000028fbe00040037000b
:102960002e0090007001900080099000028fbe0040
:1029700085020700be0090000040eb008048780010
:10298000080037002e009000700190008009900030
:10299000028fbe007c020700be0090000040eb00ea
:1029a000804878001e00be0050079800610798001c
:1029b0001700370074020700be0090000040eb00d3
:1029c000804878006011b8005207980063079800ab
:1029d0000f0037006c020700be00900070c8b30003
:1029e000804878006000b8005007980061079800a0
:1029f0000700370064020700be009000d0c8b30093
:102a0000804878006011b80052079800630798006a
:102a10005e009000ee0090000080fa0000000600ca
:102a20000800fa0010079800210798001e00900087
:102a30009040780040c6b30080cf500006003200be
:102a4000ae00900090c8b300804878000000eb0012
:102a5000300798001c00370080c921001040780022
:102a60000004e00006003200ae009000b0c8b300e1
:102a7000804878008000eb00310798001200370092
:102a8000390207001e009000f0609000014f7800ae
:102a90001e80fb0060004000e30f500004003e0079
:102aa000ae0090000040eb00804878000300370043
:102ab000ae009000d0c8b300804878003202070012
:102ac0001e80fb00300798003e0090000080fa0056
:102ad000000006000800fa00000f780011079800b7
:102ae0001e0078009040780040c6b30080cf5000b0
:102af000060032009e00900090c8b3008048780025
:102b00000000eb00300798004000370080c921002a
:102b1000104078000004e000060032009e009000a3
:102b2000b0c8b300804878000000eb003007980080
:102b3000360037000c0207001e007800706090001d
:102b40000080fb00200798002e009000e20f50004c
:102b500007003c002e009000e10f500014003d00e3
:102b60002e0090000000e0001b0032002100370022
:102b70002e009000e30f5000010032001d003700ce
:102b80001e007800bb0107008040eb001e007800ab
:102b90005b010700fc0107009e0090000040eb0075
:102ba0008048780010002000300798001700370098
:102bb0008040eb001e00780051010700f201070081
:102bc0009e0090000040eb0080487800100020003c
:102bd000300798000d003700eb0107009e009000c1
:102be00070c8b300804878000000eb003007980000
:102bf00006003700e40107009e009000d0c8b30033
:102c0000804878000000eb00300798003e009000fc
:102c10000080fa00000006001000fa00100798007b
:102c20004147980032079800430798001e00900023
:102c30009040780040c6b30080cf500006003200bc
:102c4000ce00900090c8b300804878000000eb00f0
:102c5000700798006700370080c921001040780095
:102c60000004e00006003200ce009000b0c8b300bf
:102c7000804878008000eb00710798005d00370005
:102c8000b90107001e009000706090000080fb00fa
:102c9000600798006e009000e20f500007003c00b3
:102ca000ee009000e18f50003e003d006e0090006d
:102cb0000000e0004200320048003700ee009000c3
:102cc000e38f500001003200440037001e009000e6
:102cd000680107004e0090008040eb00014878003a
:102ce0004e4090000080fb00500798005e0090006e
:102cf000e30f500007003200de009000e48f500028
:102d0000130032005e0090000000e000210032005d
:102d10001d0037001e00900090009000010f780009
:102d20001e00e000060032001e009000a00090008f
:102d30001e0178001e0090000200010015003700ff
:102d4000ce009000f0c8b300804878001100370032
:102d50001e00900090009000010f78001e00e0001f
:102d6000050032001e017800be0090001e00900099
:102d70000200010007003700ce009000f0c8b30049
:102d80008048780003003700ce00900040c8b300b0
:102d9000804878007c010700100020007007980030
:102da0001400370078010700ce009000e0c8b3009f
:102db0008048780011002000710798000d0037004e
:102dc00071010700ce00900070c8b3008048780001
:102dd0000000eb0070079800060037006a0107004a
:102de000ce009000d0c8b300804878008000eb008f
:102df000710798007e0090000080fa000000060035
:102e00000200fa00402a8100d24e020000000000b9
:102e1000004f78001e80fb000080fa0000000600d2
:102e20000400fa00503e81000000e00003003a0078
:102e30000000eb001007980013003700503e81009f
:102e4000000f78001e00780030009000503e89008e
:102e50009e0078000000eb00b00098009e00780013
:102e60000000eb00c0009800002a81000000e8008c
:102e7000002a8900f02981000000e900f02989007a
:102e80001e007800100798001e0090000080fa00d5
:102e9000000006000200fa00000f78009e00780093
:102ea0000040eb00f06098009e0078000040eb00ce
:102eb000e06098001e0178006000b80010099800da
:102ec000210998001e0178006000b80050019800a8
:102ed000610198009e0078000000eb0090009800cf
:102ee0009e0078000000eb00a00098009e00780093
:102ef000f0c3b300e05098009e0078000040eb0063
:102f0000f05098009e0078000000eb00c000980090
:102f1000513e81001e007800310098001e007800ac
:102f2000503e8900002a81000000e900002a890043
:102f3000f02981000000e800f02989000080fa00f3
:102f4000000006000800fa00a0542200012820001a
:102f50007a25020000000000c0902200010220003b
:102f60007a25020000000000a054220010079800fb
:102f700020572200000f78000000eb002007980087
:102f8000170037009e00900040c6b30080487800cc
:102f90009e0090000040eb00f06098001e00900042
:102fa0009e007800310098009e009000f0c3b300ae
:102fb000e05098009e0090000040eb00f050980018
:102fc0001e0090008002b0001007980080022000d0
:102fd0001e0f40002e0090000000e800200798001f
:102fe0002e009000ee0f5000e6ff36009e0090008d
:102ff00040c6b300804878009e0090000040eb007f
:10300000f06098009e0090000000eb00b000980077
:103010009e009000f0c3b300e05098009e00900026
:103020000040eb00f05098006000b800102a8900c2
:10303000212a89000000eb00002a890000012000fd
:10304000f0298900a0542200503e89001000200081
:10305000c44b020000000000302a89000000eb0091
:10306000c44b020000000000402a8900c1a12200d8
:10307000302a810066014700c01a020000000000eb
:1030800071a22200402a810066014700c01a020096
:1030900000000000020007000080fa0000000600a7
:1030a0000200fa00a190220030002000801f78006a
:1030b0000000eb00801f7800060a200007002000b7
:1030c00081027800d4ff2f00a3c0b300c27c22008d
:1030d0008000eb00009d21007852020000000000fb
:1030e000e487570011a322000e017800a0c0b300ae
:1030f0000c560200000000000080fa0000000600ec
:103100000a00fa0030079800014f98003e00900036
:1031100031c0b300716098000e489000e14f50003c
:103120000b003a003e00900010099000a0099000aa
:10313000102a8100212a810002004000838048007b
:103140003e01900050019800610198001b0037007b
:103150003e0090008008900070009000e00f50004a
:10316000e08f58000b003a003e00900010099000dc
:10317000a0099000102a8100212a8100020040004d
:10318000838048003e019000500198006101980042
:103190000a0037003e009000700190008009900006
:1031a000102a8100212a810002004000838048000b
:1031b0003e01900050019800610198003e0090008f
:1031c000e000900050009000670f60001e00780043
:1031d0004200dd0080007800c090220000804000a6
:1031e000100798001e009000100078000000e0001a
:1031f0000a003a001e009000be009000010878000e
:10320000be0090000000eb00b00098009e0090000f
:103210001000200090009800110037001e00900060
:1032200090007800210798001e009000be009000da
:10323000010878003e009000ae0090003100980038
:103240002e009000be009000410098001e009000eb
:10325000100090008000e8001e009000110098000f
:10326000be0090000000eb00c00098000080fa0053
:10327000000006000a00fa00400798004e00900087
:10328000e000900050009000670f60001e00780082
:103290004200dd0080007800c090220000804000e5
:1032a000100798001e009000900078004e009000db
:1032b000808f50000d003a004e00900030009000ca
:1032c000300798001e009000be00900001087800b2
:1032d0003e0090000000e00013003200be009000ad
:1032e0000000eb00c00098000f0037004e00900077
:1032f00040009000300798004e0090003000900091
:10330000200798003e009000ae0090003100980029
:103310002e0090000000e000030032002e0090001c
:10332000be00900041009800ce00900010c0b30095
:10333000f0609800ce0090000000eb00b000980014
:10334000ce0090000000eb00c00098001e0090002e
:10335000100090008000e9001e009000110098000d
:103360000080fa00000006000200fa00302a810006
:103370000e0178008000eb00484d020000000000c4
:103380000080fa00000006000000fa00302a8100e8
:10339000d24e0200000000000080fa00000006008b
:1033a0000e00fa0060079800402a81006a01470079
:1033b0008000eb00484d020000000000eaff07001b
:1033c000102a8100212a810061004000e08048002d
:1033d000102a8900212a8900102a8100212a8100cf
:1033e000670f60001e0078004200dd00800078005a
:1033f000c090220000804000100798001e0090003e
:103400009000780041079800250037004e0090009a
:1034100030009000300798004e009000500190005e
:10342000e0019000102a8100212a8100800f5100c4
:10343000818f590018003a004e00900090009000d3
:10344000210798002e0090000000e00005003200e7
:103450004e009000a00090002e0190004e009000c1
:10346000020001004e00900082ff07004e00900015
:1034700060609000e24f500004003a0011c0b300b9
:103480004e0090001eff070003003700ce009000a2
:1034900020c0b300f06098003e0090004007980004
:1034a0004e0090000000e000d8ff3a00b6ff070091
:1034b000bdff37000c00fa00200798003107980084
:1034c000420798000000eb00000f780080c921003f
:1034d000104078000004e00006003200ce009000aa
:1034e00010c1b300804878000000eb00500798003e
:1034f000200037002e009000104078000080fb0074
:103500000000e900e30f500015003e0010028000ab
:10351000000f7800210420009140780000ceb30015
:1035200000c0700042e0b7002e009000ef004000a5
:103530003e0090004b060700204798001e007800d0
:1035400010028800ce0090000040eb008048780018
:103550002e4090000080fb005007980005003700c7
:10356000ce00900010c0b300804878000000eb004f
:10357000500798005e0090000080fa0000000600ee
:103580000a00fa00200798003107980042079800c7
:103590000000eb00000f780080c921001040780087
:1035a0000004e00004003200ce00900020c1b3000f
:1035b00080487800270037002e00900010407800e7
:1035c0000080fb000000e900e30f50000e003e0009
:1035d00010028000000f7800210420009140780044
:1035e00000ceb30000c0700042e0b7003e00900083
:1035f00037060700204798002e409000ef4f5000fc
:1036000005003e000a003700ce00900010c0b30055
:10361000804878000f0037001e00780010028800f4
:10362000ce009000b0c0b300804878000900370099
:103630002e0090006f004000be00900009060700b9
:103640001e00780010028800ce0090000040eb00c1
:10365000804878000080fa00000006002400fa008c
:1036600070079800010f9800120f9800230f980020
:10367000340f98000000eb00000f78008e089000d7
:103680000000eb00800878007e0090006007980042
:103690006e009000900078005107980019003700e4
:1036a0005e009000104078000080fb00101798002a
:1036b0001e109000e20f50000c0032009e1090008f
:1036c000e38f5000090032001e109000e10f5000ff
:1036d00006003200be08900010c0b3008048780099
:1036e0008000eb00011798006d0137006e0090001c
:1036f0000080e800600798006e009000900078005d
:10370000510798005e0090000000e000e4ff3a00de
:1037100080c92100104078000004e000060032005b
:10372000be08900020c0b300804878000000eb0085
:10373000001798005a01370090c921001040780006
:103740000004e00006003200be089000d0c0b300c4
:10375000804878008000eb00011798005001370086
:1037600010028000000f78002104200091407800b2
:1037700000ceb30000c0700042e0b7000040eb0094
:10378000604798000000eb00200798000040eb0025
:1037900020479800fe009000610798006e0090009e
:1037a00090007800510798008d0037005e0090006f
:1037b000104078000080fb00700f98007e08900099
:1037c000e20f500044003200fe089000e38f5000ea
:1037d000040032007e089000e10f5000200032000b
:1037e0006e0037005e009000200090000000e000b6
:1037f000170032005e009000200090008000e90079
:103800005e009000210098000e089000de009000fd
:10381000010878000e0890000080e800000f980072
:1038200010c0b300604798009e0890000000eb00b5
:10383000800878001e0890000080e800100f9800b3
:103840002e0090000000e800200798005e0037007e
:103850002e4090000004a000204798005a00370036
:103860005e009000100090000000e00016003200a2
:103870005e009000900090001e0890000108780003
:103880001e0890000080e800100f9800de009000f5
:103890000000eb00900098000e089000de00900001
:1038a000010878000e0890000080e800000f9800e2
:1038b00010c0b300604798002e0090000000e800a0
:1038c00020079800400037002e4090000014a00010
:1038d000204798003c0037005e00900010009000e8
:1038e000400798004e009000600090000000e0004b
:1038f000260032004e0090004001900092007800b7
:103900001e089000010878001e0890000080e80062
:10391000100f98008280e8004e009000410098004f
:103920004e009000c00090004e00900020009000db
:10393000808f500004003a004e00900090009000ec
:103940004e009000410098004e00900060009000f2
:103950008000e9004e009000610098000e08900081
:10396000de009000010878000e0890000080e8005a
:10397000000f980010c0b300604798002e00900020
:103980000000e800200798000f0037002e4090004c
:103990000024a000204798000b0037001e0078008c
:1039a000100288008e0890000000eb00800878006c
:1039b000be08900010c0b30080487800ae009000b0
:1039c00001179800b60037006e0090000080e800f4
:1039d000600798006e0090009000780051079800f2
:1039e0005e0090000000e00070ff3a006e40900022
:1039f000e14f50000b003a008e0890000000eb00f1
:103a0000800878001e00780010028800be08900030
:103a10000040eb0080487800ae009000011798004d
:103a20009f00370062ef800060ef8000e058900058
:103a30002e40900080c0700000c8b30000c070002d
:103a40006059980061ef80000040eb00f05898004a
:103a500060ef8000ae089000610898007e00900042
:103a6000a50207001e007800100288004604070027
:103a700011028000010f780021042000914078009d
:103a800000ceb30000c0700042e0b70060ef8000dd
:103a9000705890000080fb00600f98006e08900046
:103aa0000000e00004003200ee089000e28f5000b9
:103ab000010032001a00370060ef8000900890008b
:103ac000510798005e0090000000e0000d003200f9
:103ad0000e089000de009000010878000e089000ab
:103ae0000080e800000f98008e0890000000eb00b6
:103af000800878002e0090000000e8002007980061
:103b00000a00370060ef800011c0b30071589800c0
:103b100060ef8000fe009000ee0207000300370017
:103b200060ef8000fe009000ea02070060ef800076
:103b3000705890000080fb00500f98005e089000c5
:103b40000000e00004003200de089000e28f500028
:103b50002d003200360037005e00900010407800e3
:103b60000080fb00400f98004e089000e10f5000cd
:103b700016003500ce089000e28f50000b00340094
:103b80004e089000e30f5000010032000f00370094
:103b90009e0890000000eb00800878001e0890004e
:103ba0000080e800100f98001300370060ef8000dd
:103bb000b00890001e089000010878001e089000d0
:103bc0000080e800100f98000b0037009e0078007e
:103bd000110288008e0890000000eb008008780039
:103be000be08900010c0b300804878002e009000fe
:103bf000001798002a003700be0890000040eb0034
:103c000080487800130037009e0890000000eb0009
:103c1000800878001e0890000080e800100f9800cf
:103c2000be089000e0c0b30080487800090037006b
:103c30009e0890000000eb00800878001e089000ad
:103c40000080e800100f9800be089000a0c0b300ec
:103c50008048780061ef80000040eb00e058980059
:103c600061ef80000040eb00f058980061ef8000a9
:103c70000000eb009008980061ef80000000eb006e
:103c8000a008980061ef80000000eb00b0089800e9
:103c90009e007800110288002e0090000017980006
:103ca0000e1090000080fa00000006000000fa00ec
:103cb000f07f0200000000000e030700250307004c
:103cc0005b030700d9020700b832020000000000c1
:103cd0007a3b0200000000003c4b020000000000a4
:103ce0003b030700a217020000000000fe7f020055
:103cf000000000000080fa00000006000000fa004a
:103d000050ca210010407800e14f500009003a00ed
:103d100080c9210010407800e14f400005003200ca
:103d200080c92100104078008040e80080c921004f
:103d3000014878000080fa00000006000200fa0046
:103d40000000eb00000f780050ca210010407800fe
:103d5000e14f500055003a0010028000000f78003b
:103d6000210420009140780000ceb30000c0700014
:103d700042e0b70080c92100104078000004e00054
:103d80000500320080c92100104078008040e90021
:103d900080c921000148780080c9210010407800c6
:103da0000004e0003f003a0090c921001040780074
:103db0000004e0003b003a0015040700b0c92100f0
:103dc00090407800a0c921001040780080cf5000ba
:103dd00034003200b0c92100104078000080fb00a0
:103de00041df2100000040006080780080ef880003
:103df00082ef800032109000c210900061004000fd
:103e0000e0804800301198004111980010cd8000ea
:103e100021cd800061004000e080480010cd880086
:103e200021cd8800b0c921001040780061406000b9
:103e300061406000614060006140600000414000fe
:103e4000012d200091407800d0cfb30000c0600069
:103e500002407000d0e2b700d042a900d062a900b1
:103e6000d082a900e982a900e9a2a900e9c2a900bb
:103e7000b0c9210010407800e14060000040eb0034
:103e800000c0600061406000c700dd00e9c2bf0003
:103e90000074a10001407000e9e2b700ae7f0200ab
:103ea000000000001e007800100288000080fa0068
:103eb000000006000200fa000000eb00000f78008e
:103ec00050ca210010407800e14f500016003a001f
:103ed00010028000000f780021042000914078003b
:103ee00000ceb30000c0700042e0b70080c92100de
:103ef000104078000004e00009003a0090c9210059
:103f000010407800e14f40000500320090c92100c8
:103f1000104078008040e80090c9210001487800f6
:103f20001e007800100288000080fa0000000600e1
:103f30000200fa000000eb00000f780050ca2100d8
:103f400010407800e14f500024003a001002800039
:103f5000000f7800210420009140780000ceb300cb
:103f600000c0700042e0b70090c921001040780006
:103f70000004e0001700320090c9210010407800d2
:103f80008040e90090c921000148780090c92100d3
:103f9000104078000004e0000b003a0080c92100c6
:103fa000104078000004e00004003a001e00780091
:103fb00010028800f4020700080037001e00780095
:103fc00010028800050037001e00780010028800eb
:103fd000020037001e007800100288000080fa00fe
:103fe000000006000000fa0050ca210010407800ce
:103ff0000004e00010003a0085030700b0c921006a
:1040000090407800a0c9210001487800b0c9210083
:10401000104078000080fb0041df210000004000dc
:104020006080780080ef880080ef800060ef88007b
:10403000ec7e0200000000000080fa000000060094
:104040000800fa000000eb00000f78004c8002002e
:104050000000000010028000000f78002104200002
:104060009140780000ceb30000c0700042e0b7007d
:10407000d0298100e129810061004000e0804800f2
:10408000d0298900e12989009e007800110288006a
:1040900050ca210010407800e14f500073003a00f0
:1040a000c0452200104078000080fb0030079800d7
:1040b0003e009000e10f50000a003200be00900068
:1040c000e28f50000a0032003e0090000000e00045
:1040d000010032000c00370010c0b30020479800e8
:1040e0000e0037000040eb00204798000b0037001f
:1040f00010c0b30020479800c145220010c0b30093
:10410000804878000500370010c0b30020479800b1
:10411000c14522000040eb00804878002e4090000e
:104120000004e0005100320091ef80002107980068
:104130004900370010028000000f780021042000a1
:104140009140780000ceb30000c0700042e0b7009c
:104150002e009000600890000000e000390032005e
:104160002e009000600890008000e9002e00900072
:10417000610898002e009000600890000000e000a8
:1041800030003a002e009000605890008080fb00c4
:1041900070032000008060000000e0000a00320090
:1041a0002e009000e058900080ccb30080c06000ea
:1041b0002e00900061589800ae00900010c0b3002f
:1041c000f058980003003700ae0090000040eb006c
:1041d000f05898002e009000605890000080fb007e
:1041e0004300de000000a200610060000004e00067
:1041f000140032002e009000c0609000c0c9210061
:104200001040780080c07000c0c9210001487800cb
:104210002e009000206090000081fb002e00900096
:10422000206090008080fb00d0c92100e140780030
:104230002e0090003060900080c07000d0c9210036
:10424000017178002e009000f00090002107980086
:104250001e007800100288002e0090008060900000
:10426000f0c3b30080cf5000b2ff3a000080fa00e4
:10427000000006000000fa00e01120000080fa00b3
:10428000000006000000fa000080fa0000000600ae
:104290000c00fa003007980041079800224f980060
:1042a000334f98003e009000604090008080fb00fb
:1042b00040d9270061417800224798002e409000a5
:1042c0000080fb00be00900066004000010040003e
:1042d000104090008080fb0040d9270061417800a9
:1042e000124798002e4090000080fb004300dd0044
:1042f000804078001e40900000c04000004f7800d1
:104300001e80fb0041df210000004000608178003a
:1043100022079800ae0090000000eb00e008980033
:104320002e009000ce009000310898002e009000e2
:1043300060589000804078002e48900000c0ea004d
:1043400000c06000804078002e0090006158980006
:104350002e0090003e499000725898002e00900068
:10436000605890000080fb004300de000000a200c7
:10437000610060000004e000120032002e00900096
:10438000c0609000c0c921001040780080c070005b
:10439000c0c92100014878002e4090000081fb0038
:1043a0002e4090008080fb00d0c92100e1407800c1
:1043b0002e0090003060900080c07000d0c92100b5
:1043c00001717800be0090002e0090009800070058
:1043d0002e009000200890000000e000070032004e
:1043e0002e009000a00890002e009000b900070059
:1043f0002e009000be009000110898001e80fb0067
:104400000080fa00000006000400fa00100798007f
:1044100060ef80009e0090001108980060ef80001f
:10442000206090000081fb0060ef80002060900021
:104430000080fb009e0090006600400001004000ec
:104440009040900060ef80003060900080c070006d
:104450001e009000020040006600400011409800dd
:104460001e009000e040900060ef800040609000ef
:1044700080c070001e0090006140980060ef8000d6
:10448000a0609000014f78001e81fb009e80fb0021
:10449000d0c92100614078008040780060ef800042
:1044a0003060900000c0ea0000c0600080407800ea
:1044b000d0c92100017178009e80fb00d0c9210085
:1044c000614078000004e00009003a0060ef8000dd
:1044d0004060900080c0ea00c0c921001040780010
:1044e00000c0600080407800c0c921000148780009
:1044f0000080fa00000006000800fa00300798006b
:1045000061ef80000000eb009008980060ef8000f1
:10451000be009000210898003e00900020079800ff
:104520002e00900090007800110798001e003700c0
:1045300060ef8000206090000081fb0060ef800051
:10454000206090000080fb009e009000660040000c
:10455000010040009040900060ef800030609000cb
:1045600080c070001e009000020040006600400005
:10457000114098001e009000e040900060ef800025
:104580004060900080c070001e0090006140980064
:104590002e0090000080e800200798002e00900078
:1045a00090007800110798001e0090000000e000c5
:1045b000dfff3a0060ef8000a0609000014f7800bc
:1045c0001e81fb009e80fb00d0c921006140780065
:1045d0008040780060ef80003060900000c0ea000a
:1045e00000c0600080407800d0c9210001717800cf
:1045f0009e80fb00d0c92100614078000004e000eb
:1046000009003a0060ef80004060900080c0ea003e
:10461000c0c921001040780000c0600080407800d0
:10462000c0c92100014878000080fa00000006009f
:104630000600fa0010079800210798001e0090005d
:10464000a0609000014f78001e81fb001e80fb00df
:10465000ae00900066004000010040001040900055
:10466000804078001e0090003060900000c0ea009a
:1046700000c06000804078002e00900002004000e2
:1046800066004000114098001e80fb00ae009000c4
:104690006600400001004000104090000004e0006f
:1046a0000a003a002e0090006040900080407800a0
:1046b0001e0090004060900000c0ea0000c0600052
:1046c000804078002e009000614098000080fa0041
:1046d000000006000c00fa004007980051079800ff
:1046e0004e009000a0609000214798004e0090007e
:1046f000c0609000114798004e009000b06090009c
:10470000014f78005e009000300798003e00900056
:104710009000780021079800280037002e40900074
:104720000081fb002e4090000080fb00ae00900056
:10473000660040000100400010409000804078007a
:104740001e40780000c0ea0000c060008040780091
:104750002e009000020040006600400011409800ca
:104760002e4090000080fb00ae00900066004000ec
:1047700001004000104090000004e00009003a00f1
:104780002e00900060409000804078001e40900015
:1047900000c0ea0000c06000804078002e00900059
:1047a000614098003e0090000080e80030079800cb
:1047b0003e00900090007800210798002e009000a5
:1047c0000000e000d5ff3a000080fa00000006007b
:1047d0000600fa0020079800ae0090000040eb00b1
:1047e000e04098002e0090006700400010079800fd
:1047f0000040eb00004f7800070037009e0090005b
:104800000040eb00804878001e0090000000e800a7
:10481000100798001e4fe80070c0b3009e4f1000b4
:10482000f6ff36000080fa00000006000600fa00dd
:10483000809a210001282000ae000700809a210004
:1048400010079800809c2100000f78000000eb000a
:1048500020079800140037009e0090000040eb00f5
:10486000804878001e0090009e007800110098009b
:104870009e009000f0c3b300f04898009e009000a6
:104880000040eb00805098001e0090000002b00035
:1048900010079800000220001e0f40002e0090001c
:1048a0000000e800200798002e009000f20f500052
:1048b000e9ff36009e0090000040eb008048780041
:1048c0009e0090000000eb00900098009e00900079
:1048d000f0c3b300f04898009e0090000040eb0049
:1048e00080509800809a210030cd88000080fa0026
:1048f000000006000000fa006000b800d02989001e
:10490000e129890081c921000040eb00804878003e
:1049100091c921000040eb008048780061ca210065
:104920000040eb008048780051ca21000040eb00b5
:10493000804878006000b80010cd880021cd880044
:104940006000b80040e5880051e588000080fa006a
:10495000000006000400fa00c1c921000040eb007d
:1049600080487800d0c92100000f78000040eb009b
:1049700020479800070037009e0078000040eb00b9
:10498000804878001e0fe8002e4090000040e800ac
:10499000204798002e409000e74f5000f6ff360069
:1049a000a1c921000040eb0080487800b1c9210076
:1049b0000040eb00804878000000eb0080ef8800aa
:1049c0000000eb0060ef88000080fa0000000600a5
:1049d0000200fa00a1de210030002000801f7800d4
:1049e0000000eb00801f7800060a2000070020006e
:1049f000810278000082eb00f3c3b300c2ca210039
:104a00008000eb0080782200785202000000000055
:104a1000e4875700e1a422000e017800f0c3b30040
:104a20000c560200000000000080fa0000000600a2
:104a30000600fa0040e72100815e20002d000700fb
:104a400040df2100010820002a00070040e7210084
:104a500010079800c0eb2100000f78000040eb0029
:104a600040479800110037001e0090009e0078001b
:104a7000710098009e009000f0c3b3008078980009
:104a80009e0090000040eb00907898001e0090007f
:104a90008004b00010079800800420001e0f400022
:104aa0004e4090000040e800404798004e40900083
:104ab000f34f5000ecff36009e0090000000eb002a
:104ac000f00098009e009000f0c3b300807898003a
:104ad0009e0090000040eb00907898000000eb00f2
:104ae00090ef880040e7210070ef88000080fa0016
:104af000000006000400fa00000f7800110798007b
:104b0000070037009e0078000040eb0080487800e6
:104b10001e0fe8001e0090000000e900100798003a
:104b20001e0090000000e000f6ff3a000080fa004e
:104b3000000006000600fa00000f78001107980038
:104b4000220798000b0037001e009000904078006c
:104b50001e007800014878001e0fe8001e0090003b
:104b60000000e800100798002e0090000000e90007
:104b7000200798002e0090000000e000f2ff3a00ad
:104b80000080fa00000006000200fa000000eb00be
:104b9000000f780010028000000f78002104200030
:104ba0009140780000ceb30000c0700042e0b70032
:104bb00080c92100104078000004e00090003a0015
:104bc00090c92100104078000004e0008c003a00f9
:104bd0008f000700b0c9210090407800a0c92100d3
:104be0001040780080cf500085003200b0c921000d
:104bf000104078000080fb0041df210000004000f1
:104c00006080780080ef880082ef80003210900092
:104c1000c210900061004000e08048003011980010
:104c20004111980010cd800021cd8000610040002e
:104c3000e080480010cd880021cd8800b0c9210057
:104c40001040780061406000614060006140600099
:104c50006140600000414000012d2000914078003b
:104c6000d0cfb30000c0600002407000d0e2b700b7
:104c7000b0c92100104078000080fb006200600095
:104c80000080d10061406000614060004201dd00b1
:104c9000012d200091407800b0cfb30000c060002b
:104ca00002407000d0e2b700b0c921001040780087
:104cb0000080fb00640060004280de006140600014
:104cc000614060004301dd00012d2000914078002b
:104cd00070cfb30000c0600002407000d0e2b700a7
:104ce000b0c92100104078000080fb00680060001f
:104cf0004380de0061406000614060004401dd00ef
:104d0000012d200091407800f0ceb30000c060007b
:104d100002407000d0e2b700b0c921001040780016
:104d20000080fb00700060004480de006140600095
:104d3000614060004401dd00912e20009140780028
:104d4000f0ceb30000c0600002407000e9e2b7009e
:104d5000b0c92100104078008080fb0000022000d4
:104d6000008060004580de006140600061406000be
:104d70004501dd00912e200091407800f0cdb30078
:104d800000c0600002407000e9e2b700b0c9210035
:104d9000104078008080fb0000042000008060004c
:104da0004680de0061406000614060004601dd0039
:104db000912e200091407800f0cbb30000c060003d
:104dc00002407000e9e2b700b0c92100104078004d
:104dd0008080fb0000082000008060004780de002b
:104de00061406000c700dd00e9c2bf000074a1009f
:104df00001407000e9e2b7002c7f020000000000d3
:104e00001e007800100288000080fa0000000600f2
:104e10000200fa00c0c92100104078008080fb0029
:104e200040d92700614f78001e80fb004300dd0061
:104e3000004178009e80fb00d0c9210061407800cd
:104e40008080fb0040d9270061407800004041008d
:104e500080407800b0c92100014878000080fa0045
:104e6000000006000600fa001007980021079800cd
:104e70000040eb00004f78000b0037002e00900040
:104e8000904078001e009000014878001e009000bd
:104e90000000e800100798002e0090000000e800d5
:104ea000200798001e4fe8002e0090001040780068
:104eb0000004e000f1ff3a009e0090000040eb008b
:104ec000804878001e80fb000080fa000000060089
:104ed0000400fa00100798000040eb00004f780033
:104ee000040037001e0090000000e8001007980042
:104ef0001e4fe8001e009000104078000004e00003
:104f0000f8ff3a001e80fb000080fa000000060057
:104f10000400fa00100798000000eb00000f780072
:104f200010028000000f78002104200091407800da
:104f300000ceb30000c0700042e0b70040e5800042
:104f400051e5800061004000e080480040e58800b5
:104f500051e588001e0078001002880020800200c1
:104f600000000000eeff37000c00fa000040eb00ec
:104f7000004f780022003700e40047001e40780010
:104f80006857020000000000104798001e40900083
:104f90000004e00019003a001e80fb0041df210000
:104fa0000000400060817800120798001e00900009
:104fb0000000e000110032001e009000e10f5000e0
:104fc0000e0032001e009000200190001e00900094
:104fd000c0009000300090000000400080005100b0
:104fe0001e009000111898004e009000de00900006
:104ff0001e01900020199800311998001e4fe800fa
:10500000f0c3b3009e4f1000dbff36000080fa00b3
:10501000000006001600fa0040479800310798008b
:105020004207980053079800640798007507980096
:10503000060f9800170f98000000eb00000f780093
:1050400010028000000f78002104200091407800b9
:1050500000ceb30000c0700042e0b70071ef8000e6
:10506000110798001e0090000000e000a700320029
:105070001e0090007000900070ef88001e01780004
:10508000120288001e009000be0190000308780004
:105090001e009000ce409000016098009e0090009d
:1050a0000040eb00e05898009e0090000040eb00ac
:1050b000f05898009e0090000000eb00e008980077
:1050c0001e0090000e099000120098001e00900033
:1050d0006e019000fe01900032009800430098009d
:1050e0001e009000ce019000230098001e0090004a
:1050f0009e089000510098001e0090005e019000f4
:10510000620098009e0090000040eb00d060980084
:105110004e4090000080fb004300de00804078009d
:105120001e009000216098004e409000e740600013
:105130001e009000116098001e00900020609000fa
:105140008080fb00100020000100dd00804078001e
:105150001e009000416098001e00900010609000ba
:105160008080fb00100020000100dd0080407800fe
:105170001e009000316098009e0090000000eb003f
:10518000900898009e0090000000eb00a008980096
:105190009e0090000000eb00c00898009e00900068
:1051a0000000eb00b00898001e0190006000b800fd
:1051b00030119800411198001e0190006000b80065
:1051c00070119800011998001e0190006000b8004d
:1051d00050119800611198009e0090000000eb00b3
:1051e000901898001e0190006000b80020199800e7
:1051f000311998009e009000f0c3b30080789800a9
:105200009e0090000040eb00907898001e009000f7
:105210003e800200000000001e009000048002009a
:105220000000000013028000030f7800210420001a
:105230009140780000ceb30000c0700042e0b7009b
:105240004e4090000080fb0041df21000000400044
:10525000010040009e0090000108780091ef80005e
:105260001e009000710098009e0090000000eb006e
:105270008008980090ef80000000e00003003200fa
:1052800090ef80001e019000020898009e0190009f
:1052900093ef88001e009000c0609000c0c92100fc
:1052a0001040780080c07000c0c92100014878001b
:1052b0001e009000206090000081fb001e00900006
:1052c000206090008080fb00d0c92100e140780080
:1052d0001e0090003060900080c07000d0c9210096
:1052e0000171780060ca2100104078008040e80019
:1052f00060ca2100014878001e0078001002880072
:105300008000eb00210f9800040037001e01780098
:105310001202880023042000230f98002e0890001a
:105320000080fa00000006001200fa003007980022
:1053300041079800224f9800630798000000eb0097
:10534000000f78003e00900010407800e54f5000bc
:1053500006003200ee00900010c0b30080487800d4
:105360000000eb00000f98009c003700ae48900052
:1053700000c8b30000c06000304798003e40900075
:105380000004e000060032002e4890000074a100e6
:10539000204f980010c0b30020479800020037004b
:1053a0000040eb0020479800ee0090000040eb002a
:1053b0008048780010028000000f7800210420004f
:1053c0009140780000ceb30000c0700042e0b7000a
:1053d0002e4890000080fb00700798007e0090002f
:1053e000e10f50005b0032007e009000e10f5000a2
:1053f00004003c007e0090000000e0003b00320012
:105400006d0037007e009000e20f50000400320073
:105410007e009000e30f50001b0032006600370052
:105420003e009000a00090004e00900000806000c0
:1054300020079800ae0090004e009000808f500032
:105440000b003a002e409000e14f50000b003a0054
:105450003e009000a00090002e0090000080ea0026
:10546000808060003e00900021009800030037001b
:10547000ee00900000c7b300804878001e0078005e
:1054800010028800530037003e009000a0009000fa
:105490004e00900000806000200798002e009000d1
:1054a0000000e0000b0032002e409000e14f500061
:1054b0000b003a003e009000a00090002e009000eb
:1054c0000080ea00808060003e009000210098008b
:1054d00003003700ee00900000c7b300804878005a
:1054e0001e007800100288003a0037003e0090004d
:1054f000200090008080ea004e0090000080600054
:1055000020079800ae0090004e009000808f500061
:105510000a003a002e409000e14f50000a003a0085
:105520003e009000a00090002e009000808070004f
:105530003e0090002100980003003700ee0090002c
:1055400000c7b300804878001e0078001002880071
:10555000200037003e009000200090008080ea008c
:105560004e00900000806000200798002e00900000
:105570000000e0000a0032002e409000e14f500091
:105580000a003a003e009000a00090002e0090001b
:10559000808070003e0090002100980003003700da
:1055a000ee00900000c7b300804878001e0078002d
:1055b00010028800070037001e00780010028800e3
:1055c0000000eb0020079800ee009000f0c6b3004a
:1055d000804878002e009000000f98000e08900080
:1055e0000080fa00000006000a00fa002007980078
:1055f000310798000000eb00000f780080c92100ff
:10560000104078000004e00006003200be00900068
:1056100000c1b300804878000000eb00400798000c
:105620002b00370011028000010f780021042000b8
:105630009140780000ceb30000c0700042e0b70097
:10564000b0e48000100798001e0090000000e00009
:1056500018003200b0e4800010009000b0e4880030
:105660009e00900050c0b300804878001e0090005b
:10567000ae009000210098009e0090000000eb001a
:10568000900098009e009000f0c3b300e0409800a6
:105690009e0090000040eb00f04098001e00780053
:1056a00010028800be0090000040eb0080487800a7
:1056b000050037009e00780011028800be009000af
:1056c00020c7b300804878001e0090004007980073
:1056d0004e0090000080fa00000006001200fa0060
:1056e00040079800214f9800620798000000eb00e7
:1056f000000f780080c92100104078000004e0000d
:1057000006003200ee009000f0c0b3008048780040
:105710004e009000000f98007c0037004e00900073
:1057200010407800e54f500006003200ee00900077
:1057300010c0b300804878004e009000000f980021
:105740007200370010028000000f78002104200052
:105750009140780000ceb30000c0700042e0b70076
:105760004e009000100090000000e00003003200a6
:1057700010c0b30060479800020037000040eb0003
:10578000604798002e4890000080fb00700798004a
:105790007e0090000000e000040032007e009000d7
:1057a000e10f5000250032004f0037006e4090009e
:1057b0000004e00019003a00ce009000f0c3b300ee
:1057c000e0409800ce0090000040eb00f0409800d0
:1057d000ce0090000040eb0080487800b1e48000eb
:1057e0004e00900011009800ce0090000000eb00e9
:1057f000a00098004e009000b0e488001e007800e1
:1058000010028800ee0090000040eb008048780015
:105810000000eb00100798003a0037001e007800e7
:1058200010028800ee00900090c4b3008048780019
:105830004e00900010079800320037004e00900094
:105840001000900020079800060037008000eb0051
:105850002e009000790307002e00900010007800c1
:10586000200798002e0090000000e000f7ff3a00ab
:10587000ce009000f0c3b300e0409800ce0090004e
:105880000040eb00f0409800ce0090000040eb009c
:1058900080487800b1e480004e009000110098002c
:1058a000ce0090000000eb00a00098004e00900099
:1058b000b0e488001e007800100288006e4090005e
:1058c000e14f500002003a00c42502000000000031
:1058d0006e0090008040eb00014878000000eb0073
:1058e00010079800070037001e007800100288009b
:1058f000ee00900070c0b300804878004e00900029
:10590000100798001e009000000f98000e089000ed
:105910000080fa00000006000c00fa002007980042
:1059200031079800420798000000eb00000f780054
:1059300080c92100104078000004e0000600320019
:10594000ce00900010c1b300804878000000eb004a
:10595000500798002100370010028000000f7800e7
:10596000210420009140780000ceb30000c07000f8
:1059700042e0b7002e00900010407800e54f500044
:10598000080032001e00780010028800ce0090004f
:1059900010c0b300804878000000eb00500798006a
:1059a0000e0037002e009000e60040003e00900000
:1059b0003227020000000000204798001e007800f7
:1059c00010028800ce0090000040eb008048780074
:1059d0002e4090000080fb00500798005e00900071
:1059e0000080fa00000006000a00fa002007980074
:1059f00031079800420798000000eb00000f780084
:105a000080c92100104078000004e000040032004a
:105a1000ce00900020c1b3008048780028003700f5
:105a200010028000000f78002104200091407800cf
:105a300000ceb30000c0700042e0b7002e0090001e
:105a400010407800e54f5000060032001e0078003c
:105a500010028800ce00900010c0b300804878008b
:105a6000170037003e009000682702000000000089
:105a7000204798002e409000ef4f5000060036005f
:105a80001e00780010028800ce00900030c7b300de
:105a9000804878000a0037002e0090006600400021
:105aa000be00900032270200000000001e007800b7
:105ab00010028800ce0090000040eb008048780083
:105ac0000080fa00000006002400fa00200f980071
:105ad000310f9800025f9800530f9800640f9800f0
:105ae0000000eb00000f780080c921001040780012
:105af0000004e00006003200ee08900020c0b30071
:105b0000804878000000eb00101798003e01370035
:105b100090c92100104078000004e0000600320027
:105b2000ee089000d0c0b300804878008000eb0001
:105b300011179800340137002e08900010407800ab
:105b4000e54f500006003200ee08900010c0b30090
:105b5000804878000000eb00101798002a013700f9
:105b60008e58900000c8b30000c060004047980005
:105b70004e4090000004e00007003200f1c7b3007f
:105b80000e58900001406000005f980010c0b30004
:105b900020479800020037000040eb0020479800a3
:105ba00011028000010f780021042000914078004c
:105bb00000ceb30000c0700042e0b7000e58900065
:105bc0000080fb00001798000e109000e10f5000bd
:105bd000820032008e109000e18f500004003c00e3
:105be0000e1090000000e00055003200a1003700c8
:105bf0008e109000e28f5000040032000e109000d2
:105c0000e30f5000280032009a0037002e08900061
:105c1000a00090003e0890000080600030079800cf
:105c2000be0090003e089000808f500015003a00a2
:105c30002e409000e14f500007003a002e089000df
:105c4000a00090003e0090000080ea00808060008c
:105c50002e0890002100980060ef8000be009000a8
:105c6000510898001e00780010028800ee0890008d
:105c70000040eb0080487800be00900011179800ab
:105c8000e1003700e80047005e0a90008e5990005e
:105c90003e0990002e089000e20107001e007800e7
:105ca000100288007d0037002e089000a0009000b0
:105cb0003e08900000806000300798003e00900091
:105cc0000000e000150032002e409000e14f50002f
:105cd00007003a002e089000a00090003e009000bf
:105ce0000080ea00808060002e089000210098006b
:105cf00060ef8000be009000510898001e00780000
:105d000010028800ee0890000040eb008048780008
:105d1000be00900011179800bb003700e800470054
:105d20005e0a90008e5990003e0990002e08900067
:105d3000bc0107001e0078001002880057003700e1
:105d40002e089000200090008080ea003e0890001d
:105d50000080600030079800be0090003e08900070
:105d6000808f500014003a002e409000e14f500008
:105d700006003a002e089000a00090003e0090001f
:105d8000808070002e0890002100980060ef800055
:105d9000be009000510898001e0078001002880094
:105da000ee0890000040eb0080487800be009000b4
:105db0001117980094003700e80047005e0a900031
:105dc0008e5990003e0990002e0890009501070022
:105dd0001e00780010028800300037002e08900066
:105de000200090008080ea003e0890000080600063
:105df000300798003e0090000000e00014003200e0
:105e00002e409000e14f500006003a002e0890000e
:105e1000a00090003e009000808070002e0890004e
:105e20002100980060ef8000be00900051089800ab
:105e30001e00780010028800ee0890000040eb0081
:105e400080487800be009000111798006e0037005f
:105e5000e80047005e0a90008e5990003e099000cd
:105e60002e0890006f0107001e00780010028800c5
:105e70000a0037009e007800110288000000eb0045
:105e800030079800ee089000f0c6b3008048780014
:105e90003e009000101798005b003700c4250200f8
:105ea0000000000011028000010f78002104200092
:105eb0009140780000ceb30000c0700042e0b7000f
:105ec00060ef8000705890000004e0001e00320077
