:020000040000fa
:080000005a9204000000000008
:020000040000fa
:100400002606040000000000e807040000000000c9
:10041000c2090400000000005c0a040000000000a3
:10042000fa0a040000000000c80c040000000000ec
:10043000e20c040000000000300d04000000000089
:10044000f40e040000000000b80d040000000000dd
:10045000740e0400000000009e160400000000005e
:10046000ec24040000000000182504000000000037
:10047000ea63040000000000de71040000000000d8
:10048000e674040000000000881f780070f5830007
:100490000000e000010032000000010040f5830090
:1004a0000000e0000100320000000100b0ec830019
:1004b0000000e000010032000000010080ec830039
:1004c0000000e000010032000000010000eb270006
:1004d0001004e00026003a0050f5830061f5830027
:1004e0000004eb00d2602600930120007801070091
:1004f000f2352f00e3c6230000004100818049004f
:100500000804e800e80f5400f6ff3a0050f58b00ad
:1005100061f58b0088d92700d26026009301200066
:1005200050f5830061f5830069010700f2352f0063
:10053000e3c62300000041008180490050f58b0094
:1005400061f58b00009cbe0080e12700800f540005
:10055000f1ff3a00a0f08300b1f0830090ec8b0033
:10056000a1ec8b0011c0b30000eb2700014878001c
:10057000d26026009301200050f5830061f58300ce
:1005800053010700f2352f00e3c6230000004100ad
:100590008180490050f58b0061f58b0022d927003e
:1005a000120178007f0161004211dd0083d927002c
:1005b000030141001202be0094ec8b00a5ec8b00fd
:1005c0000089be0090ec8300a1ec83004008de00af
:1005d00000f0a1004f047800000006006022b8007f
:1005e000060220000000d0008180d2000482d200e8
:1005f0008582d2000000a0000202520083825a00cd
:10060000030031000202420083824a000000a10080
:100610000603e900f3ff3a0000000600889fbe00d1
:100620008a9fbe00010578000100e000040035004b
:1006300008003c000000e000200032000500370008
:1006400060001000e080180002003b0001f02c0068
:100650001a0037000004be006011b8006b092000ca
:100660000982cf00020039000882cf000441b000a7
:10067000694252000e00320008003b008281710086
:10068000610164008904d1000884d3008b05e8006f
:100690000442e800f9ff3a0005003700080444006e
:1006a00089844c008b05e9000442e900fbff3a0015
:1006b000b40007000af0a70001f0a0004f05be003b
:1006c0004f04be000000060003f0a200889fbe0099
:1006d0008a9fbe008c1f7800d0000700d70033002f
:1006e0006450e1004f0032006420e100520032000b
:1006f00003826c0007003b000905d0000306d00010
:10070000820f54000c065d00020039000200320026
:1007100089017800030678008582550004003d00b9
:100720000003fd008103fd008502ea008b85420085
:10073000840f720002003b0060001000e08018008f
:100740006011b8000005eb007a28e1000a003900ca
:1007500006007800c75ddd00f707b20087807500ee
:100760002d003700828171000a0178006105600068
:100770008180d1000080d3008502e900f9ff3b00b1
:10078000060440008784480002003b006004140017
:10079000e0841c000988a300070032008a817100f0
:1007a00082817100610164008904d1000884d30052
:1007b0008b05e800170037000978a30013003a0002
:1007c0000b00e000130034008b05e900080444002e
:1007d00089844c000a4474000978a3000d003a0093
:1007e0000b00e000070034008b05e900080444001a
:1007f00089844c0001003a000b0020000978a30016
:10080000f7ff32000001eb00020037008281710027
:100810000a0178005b0007000cf0a70001f0a000bf
:100820008f0037006420e10002003a00838f6c00e3
:100830008f0033000801be000200be0088003700b0
:10084000889fbe008a9fbe008c1f7800730007003f
:100850007a00330003866c006450e1002e00320001
:100860006420e100330032006150e1002f003200cb
:100870006120e1003100320085855500eb07b000b2
:100880000900200008042000050037000804440087
:1008900089844c000a0031000603430087834b0023
:1008a0000001530081815b00f8ff33000203be00aa
:1008b0000800a0000804440089844c00f6ff3900b9
:1008c000c639dd00830173000100320013002000ef
:1008d0008904d1000884d3000998a30005003200e0
:1008e0000800a7000300a0008904d1000884d300f9
:1008f0008b05e8008904d1000884d3000001eb00d7
:100900000281d2001f00070001f0a1000cf0a70037
:1009100001f0a000520037006420e10054003200d2
:100920000801be000200be00f7ff37006120e100b1
:100930004f0032006000b800f3ff370000002000d5
:1009400001f82700f0ff3700839f68000100e000f6
:1009500002003d0060001000e08018000300e0008d
:1009600002003d0060011100e08119001bff07003b
:100970004f00e00002003b0060001000e080180023
:100980000000060081002000618055000b003d0042
:100990000b00200061fe2f000100e1001d0034006b
:1009a00082817100610164008904d1000884d30050
:1009b0000000e800faff3a007100200061006400c6
:1009c000030070000200600009003200610444006e
:1009d000e0844c000988a500050032008b05e80082
:1009e0006808e10002003a008904d1000884d300bd
:1009f000f20f20000258e10005003d00c75ddd0058
:100a0000f907b20089807500080078000000060030
:100a10000bf827008b007800000005000004be00e2
:100a2000160007000003be000405be000200be0061
:100a300012000700844f7500000006000200be008f
:100a40006450e100050036006420e1000200360039
:100a50000968a30001003a000800be000160a00080
:100a60004f0678004f05be004f04be000000060090
:100a7000f0ff2f00f1ff2700f9ff3700c70ade0063
:100a8000f107b200f50fb20008003200e1cf4200da
:100a9000020032000170a00024000500810f7000e8
:100aa000010032000408050044000500810f7000b9
:100ab00002003a00140005008502e9000000400031
:100ac00081c04800fcff3b000170a000240005002d
:100ad000020ab900001bb9000200b8008100420000
:100ae00081004300000006000200fa001e7e0200a2
:100af00000000000688c020000000000241b0200bf
:100b00000000000020002000aa49020000000000b0
:100b100010d0880030002000aa4902000000000028
:100b200020d088000000eb00fc3102000000000033
:100b300030d088000000eb00fc3102000000000013
:100b400040d088000000eb00fc31020000000000f3
:100b500050d088000000eb00fc31020000000000d3
:100b600060d088000000eb00fc31020000000000b3
:100b700050d088000000eb00fc31020000000000b3
:100b800070d088000000eb00fc3102000000000083
:100b900080d0880040a121004101200020420200b5
:100ba0000000000090d088008e007800b0c0b30034
:100bb000683a02000000000080d288008e007800b1
:100bc000b0c0b300683a02000000000090d2880074
:100bd0008e007800b0c0b300683a02000000000048
:100be000a0d288000190200030002000801f7800f3
:100bf0000000eb00801f780006082000070020009e
:100c0000810278009400200093c0b300228020006d
:100c10008000eb00606220005e50020000000000d7
:100c2000e4875700e1c928000e01780090c0b300a6
:100c3000f253020000000000c61c02000000000089
:100c40000080eb000080fa00000006000400fa00bb
:100c500010079800ec7c020000000000f41c020069
:100c600000000000c0740200000000000040eb0023
:100c70006a7e020000000000011021003000200008
:100c8000801f78000000eb00801f780006402000e5
:100c90000700200081027800b4002000b3c0b30038
:100ca000229020008000eb00807e20005e50020039
:100cb00000000000e4875700a1ca28000e01780058
:100cc000b0c0b300f2530200000000000120210078
:100cd00030002000801f78000000eb00801f7800ab
:100ce000060820000700200081027800c4002000d0
:100cf000c3c0b300221021008000eb00209c200024
:100d00005e50020000000000e4875700f1cb28008d
:100d10000e017800c0c0b300f253020000000000d2
:100d20000130210030002000801f78000000eb001f
:100d3000801f78000608200007002000810278004c
:100d4000d4002000d3c0b300222021008000eb009b
:100d5000c0a520005e50020000000000e48757009c
:100d6000e1cc28000e017800d0c0b300f25302009d
:100d7000000000000140210030002000801f7800aa
:100d80000000eb00801f780006082000070020000c
:100d900081027800f4002000f3c0b300223021006b
:100da0008000eb00a0af20005e50020000000000b9
:100db000e4875700b1cd28000e017800f0c0b300e1
:100dc000f25302000000000001502100300020001a
:100dd000801f78000000eb00801f780006082000cc
:100de00007002000810278004401200043c1b300c5
:100df000224021008000eb0080cc20005e500200e9
:100e000000000000e487570091ce28000e01780012
:100e100040c1b300f2530200000000000160210055
:100e200030002000801f78000000eb00801f780059
:100e3000060820000700200081027800c40120007d
:100e4000c3c1b300225021008000eb0020ce20005f
:100e50005e50020000000000e487570041cf2800e8
:100e60000e017800c0c1b300f25302000000000080
:100e70000170210030002000801f78000000eb008e
:100e8000801f7800060820000700200081027800fb
:100e9000e4012000e3c1b300226021008000eb00e8
:100ea00000d320005e50020000000000e4875700dd
:100eb00011d028000e017800e0c1b300f253020007
:100ec0000000000001a0210030002000801f7800f9
:100ed0000000eb00801f78000608200007002000bb
:100ee00081027800a4022000a3c2b3002290210056
:100ef0008000eb0040ef20005e5002000000000088
:100f0000e487570001d128000e017800a0c2b30089
:100f1000f253020000000000018021003000200098
:100f2000801f78000000eb00801f7800060820007a
:100f300007002000810278008402200083c2b300f1
:100f4000227021008000eb0080db20005e50020058
:100f500000000000e487570021d228000e0178002d
:100f600080c2b300f2530200000000000190210093
:100f700030002000801f78000000eb00801f780008
:100f8000060820000700200081027800940220005b
:100f900093c2b300228021008000eb0040e72000d4
:100fa0005e50020000000000e487570021d32800b3
:100fb0000e01780090c2b300f2530200000000005e
:100fc00000c0eb003256020000000000fcff3700ba
:100fd0001a04fa006141200081004700800878006f
:100fe000f600470000d42800ff000900b018780080
:100ff0000120b1000020b100f459020000000000ff
:1010000070079800010f9800e2e2a800f45902006e
:1010100000000000800078007e00900000805000fa
:1010200000017800814120008e8040008208780015
:10103000804120000e004000100078000000e00019
:1010400007003d00814120008e8040009100780023
:101050000101ea00814120008e8040008208780072
:10106000804120000e004000100078006101b900ae
:101070000080eb008080eb0002005000838058006d
:1010800050079800610798000000eb0040079800a7
:101090001a003700ce0190004e009000f600470085
:1010a00000004000e08078005e0090000081500069
:1010b000f60047000380410001004000020878006c
:1010c0004e009000f600470000004000608078006d
:1010d0000000e00006003a004e009000f6004700d5
:1010e00000004000810040000000eb008008780014
:1010f0004e0090000000e80040079800ce009000ed
:10110000f00f2000808f5000e2ff3400f4590200fd
:101110000000000070079800010f98000000eb002d
:10112000300798000e0037003e00900080007800e5
:101130001e08900000804000104078000080fb00f6
:10114000f600470000004000810040008038210088
:10115000800878003e0090000000e800300798000a
:1011600090d08000750147004106200064440200d1
:1011700000000000100f98001e0890000000e00022
:10118000e9ff3a00a0d28000750147008000eb0023
:101190009e3c02000000000070a5210090407800f5
:1011a00041579800a0d280004a3f02000000000092
:1011b0004e5090000004e000060032004e509000b7
:1011c000e14f5000030032004e509000e24f5000bb
:1011d00021003a00602120000e0040000220200083
:1011e00080c0eb0046600200000000000000eb0041
:1011f00040079800130037000000eb00000f780054
:101200004e009000f600470000004000608078002b
:101210000000e000080032001e007800612120007c
:101220008e80400000004000010040004e01900010
:10123000020878001e0fe8004e0090000000e80051
:1012400040079800ce009000f00f2000808f5000e3
:10125000e9ff3400370037000000eb00400798003a
:10126000300037000000eb00100798004e0090009f
:10127000f600470000004000608078000000e000b9
:101280002500320090d28000750147008000eb00fd
:101290009e3c0200000000009e0090002e00900086
:1012a000808f500011003c001e0090006121200042
:1012b0008e80400000004000e08078004e009000ea
:1012c000808f500009003a004e009000f600470061
:1012d00000004000e080780060a521001040780008
:1012e0000080fb00808f500005003a00e2e2a80079
:1012f00020d08000b84c0200000000005057980039
:1013000090d280004a3f0200000000001e009000c2
:101310000000e800100798004e0090000000e80070
:1013200040079800ce009000f00f2000808f500002
:10133000ccff340030d08000612120008e8040003e
:10134000343502000000000050579800e2c2bf0090
:101350000080fb004700de000004a2006140600046
:10136000c700dd00e2c2bf000074a10001407000b0
:10137000e2e2b70020032000a657020000000000b0
:1013800022ff37001000fa0050079800e302a8007f
:101390000080eb008080eb00008fbe00f45902005b
:1013a00000000000200798003107980080d28000dc
:1013b0006801470001fa20009e3c02000000000086
:1013c000028727001200780031002e000100600023
:1013d0000009780001872700210090000000a0008c
:1013e0000010a1000020a1000030a100a000980082
:1013f00090d28000680147008000eb009e3c020014
:101400000000000060a521009040780000872700c0
:101410006140980090d280004a3f02000000000026
:10142000de8602000000000080d280004a3f0200f9
:1014300000000000e3c2bf00614060000004a200a1
:101440006140600061416000312e200091407800d1
:10145000e0cfb30000c0600002407000e3e2b700dc
:101460001e00780070079800f45902000000000088
:10147000800078002e0090000080500060079800e7
:101480006e0190000200e00003003d006e0090003d
:101490000000ea00600798006e0090007e01900056
:1014a0008000510000fa200001005000a657020001
:1014b00000000000b9ff37000800fa00300798006c
:1014c00090d28000640147008000eb009e3c020047
:1014d0000000000044020200000000000210200092
:1014e000110009000200d8008000fd008040780053
:1014f00060a521000148780090d280004a3f020098
:1015000000000000e2c2a80030d080006401470063
:101510008000eb00803302000000000010079800fc
:101520000000eb00000f78001c0037001e00780060
:1015300000004000800078001e0090000080400005
:101540009000780060a52100104078000080fb002a
:10155000808f500010003a0090d280006401470054
:101560008000eb009e3c02000000000044020200ec
:10157000000000004800dd008040780060a52100e8
:101580000148780090d280004a3f0200000000002d
:101590000080eb00000f78001e0fe8001e007800ae
:1015a00000004000800078001e0090000080400095
:1015b00010007800e10f4000dcff3a0030d08000de
:1015c000640147008000eb0080330200000000004f
:1015d000800078001e009000808f5000caff32000b
:1015e000e2c2a90000c0eb00325602000000000079
:1015f000fcff37000800fa0020079800a0d2800006
:101600000e81e8008000eb009e3c0200000000001c
:1016100071a521000040eb0080487800a0d2800036
:101620004a3f02000000000002122a00730020005e
:101630000000eb00f2860200000000008000eb00da
:101640000040eb00da8902000000000011002000d9
:1016500010c0b300da890200000000004100200041
:1016600020c0b300da890200000000006100200001
:1016700030c0b300da8902000000000081002000c1
:1016800040c0b300da890200000000000101200020
:1016900050c0b300da89020000000000f17f200092
:1016a0000040eb00da880200000000008040eb0000
:1016b0000040eb005c8702000000000011c0b30096
:1016c0000040eb005c8702000000000021c0b30076
:1016d0000040eb005c8702000000000031c0b30056
:1016e0000040eb005c8702000000000041c0b30036
:1016f0000040eb005c8702000000000051c0b30016
:101700000040eb005c870200000000009860a80029
:10171000a0d280000e81e8008000eb009e3c020019
:101720000000000071a5210010c0b30080487800bf
:10173000a0d280004a3f02000000000040d080009c
:10174000be31020000000000100078001047980031
:10175000a0d280000e81e8008000eb009e3c0200d9
:101760000000000070a52100104f780020d08000fc
:101770006249020000000000c0d28800c0d2800090
:101780000000e00007003a0070a52100104078003a
:10179000e34f500003003e0071a5210040c0b3009c
:1017a00080487800e2e2a90070a52100904078000e
:1017b0001e409000814f50000300360070a52100ac
:1017c0009e40900001487800e2e2a900e2e2a80011
:1017d00070a52100904078001e40900080cf5000fe
:1017e0006400320080d280000e81e8008000eb00af
:1017f0009e3c0200000000000187270021009000ad
:101800000000a0000010a1000020a1000030a100f5
:10181000a000980090d280000e81e8008000eb00cc
:101820009e3c02000000000060a52100904078006e
:10183000008727006140980090d280004a3f020054
:101840000000000070a52100104078000080fb001f
:10185000300798003e009000e20f50001d0032005b
:10186000be009000e28f500007003c003e00900058
:101870000000e0003c003200be009000e18f50000c
:101880000b003200380037003e009000e40f50009b
:1018900023003200be009000e48f50001700350096
:1018a0003e009000e50f5000260032002e00370069
:1018b000008727009000780032002e0082806000b0
:1018c0000140a00001087800de8602000000000050
:1018d00025003700028727001200780031002e0013
:1018e0000100600001042000010070000009780080
:1018f000de860200000000001b0037000087270082
:101900009000780032002e00828060008101b300d8
:1019100001087800de860200000000001200370097
:10192000008727009000780032002e00828060003f
:101930000120a00001087800de86020000000000ff
:1019400009003700028727001200780031002e00be
:101950000100600001022000010070000009780011
:10196000de8602000000000080d280004a3f0200b4
:1019700000000000a0d280004a3f020000000000ea
:10198000b0042000a6570200000000006bff3700e3
:101990000400fa0010079800a0d280000e01e800b1
:1019a0008000eb009e3c02000000000070a52100ba
:1019b000104f7800a0d280004a3f020000000000d3
:1019c000f5ff37000800fa00300798001a8502007a
:1019d0000000000000c0eb002047980000c0eb00b2
:1019e000104798001e409000004f78002e40900055
:1019f0001047980040850200000000002047980032
:101a0000ae4090001e40900080cf500010003a0081
:101a10002e4090009e4f50000d0032002e4090004e
:101a2000e14f40000a0032002e4090008080fb0011
:101a3000e0c82800614078004047980050d08000fe
:101a4000e4004700343502000000000030479800f1
:101a500020032000a657020000000000e1ff37002d
:101a60000c00fa0050079800ca42a8006600470020
:101a700001f4280003000900315878004000b1004b
:101a80004100b1000000eb0020079800ca42a90005
:101a90000000370050d080000e81e8008000eb008d
:101aa0008033020000000000000f78002e0190003b
:101ab0001e0078009040780066004700000041005a
:101ac000014878002e0090000000e80020079800f0
:101ad0002e009000e30f500005003c0070d0800005
:101ae000e40047003435020000000000e9ff370041
:101af0006600470010407800e14f500013003a00a4
:101b00006600470010409000e24f50000f003a007e
:101b10006600470020409000e34f50000b003a0061
:101b20006600470030409000e44f500007003a0044
:101b30000000eb002007980070d08000e400470010
:101b40003435020000000000060037000080eb0082
:101b50002007980070d08000e40047003435020070
:101b6000000000000000eb0020079800c9ff3700cc
:101b70000600fa001007980001c1b30020c0b300ae
:101b8000627b0200000000000079020000000000fb
:101b90000079020000000000a0d280000e01780051
:101ba0008000eb009e3c02000000000070a52100b8
:101bb000104078000080fb00200798002e00900065
:101bc000e20f5000200032002e009000e20f500083
:101bd00007003c002e0090000000e0000e003200e4
:101be0002e009000e10f5000110032003700370046
:101bf0002e009000e40f5000240032002e009000d0
:101c0000e40f50001b0035002e009000e50f50003f
:101c1000290032002d00370042f428008040eb00fc
:101c20000040eb00ee7b02000000000027003700c0
:101c300042f528008040eb000040eb00ee7b020004
:101c40000000000021003700d2f528008040eb00a2
:101c50000040eb00ee7b020000000000a2f628002e
:101c60008040eb0010c0b300ee7b020000000000db
:101c70001600370032f728008040eb000040eb00f0
:101c8000ee7b0200000000001000370092f72800f1
:101c90008040eb000040eb00ee7b02000000000003
:101ca00032f828008040eb0010c0b300ee7b020049
:101cb0000000000005003700e2f828008040eb003b
:101cc0000040eb00ee7b020000000000a0d280008c
:101cd0004a3f020000000000803e2000a65702009c
:101ce00000000000aaff37000800fa002007980053
:101cf0000000370070d080000e81e8008000eb000b
:101d00008033020000000000000f7800007902001c
:101d1000000000001e0078001000780030079800d6
:101d20003e009000e10f50001d0032003e00900088
:101d3000e10f500007003c003e009000e10f400022
:101d40000b0032003e0090000000e0000e00320068
:101d5000e8ff37003e009000e20f5000160032000e
:101d60003e009000e30f500019003200e1ff370001
:101d7000c2f928008040eb000040eb00ee7b02003f
:101d800000000000dbff3700b2fa28008040eb00c3
:101d90000040eb00ee7b020000000000d5ff3700a2
:101da00072fb28008040eb000040eb00ee7b02005d
:101db00000000000cfff370092fb28008040eb00be
:101dc0000040eb00ee7b020000000000c9ff37007e
:101dd000c2fb28008040eb000040eb00ee7b0200dd
:101de00000000000c3ff37000400fa00100798004d
:101df00000c0eb003256020000000000fcff37007c
:101e00001600fa0020079800310798004207980052
:101e100053079800444f980075079800060f9800e4
:101e2000170f9800c0e92100104078000004e0007e
:101e300006003200ceb89700b0c8b30080487800e2
:101e40000000eb00200f980046003700ad030700ac
:101e50005a020700100798001e0090000000e000e2
:101e600007003a00af030700ceb8970060c8b30080
:101e7000804878008000eb00210f9800390037007f
:101e80009e00900010c0b300f06098001e0090000b
:101e90002e019000be019000720098000308980087
:101ea0001e0090004e019000de0190001208980084
:101eb000230898001e009000ce49900063609800af
:101ec0001e009000fe009000110098001e0090007f
:101ed0000e099000220098001e0890000000e0000b
:101ee0001a0032001e089000cc24020000000000fe
:101ef000004f7800f3c0b3009ecf110006003e00f3
:101f00001e009000760040009e089000962402007b
:101f1000000000000d0037009e00900030c2b300aa
:101f2000e05098009e0090000040eb00f0509800b8
:101f3000ceb89700c0c8b300804878007903070086
:101f40001e009000200f9800060037007503070060
:101f5000ceb897000040eb00804878009e009000cb
:101f6000210f98002e0890000080fa000000060063
:101f70000800fa00000f7800110798001e00780092
:101f80009040780040c6b30080cf50000600320079
:101f90009e00900090c8b300804878000000eb00dd
:101fa000300798003e003700c0e92100104078005b
:101fb0000004e000060032009e009000b0c8b300ac
:101fc000804878000000eb003007980034003700ac
:101fd0004c0307001e007800706090000080fb003a
:101fe000200798002e009000e20f500007003c00f0
:101ff0002e009000e10f500013003d002e009000d5
:102000000000e000190032001f0037002e00900091
:10201000e30f5000010032001b0037001e00780063
:10202000fb0207001e007800010207003d030700c5
:102030009e0090000040eb008048780010002000d7
:1020400030079800160037001e007800f8010700de
:10205000340307009e0090000040eb0080487800a9
:1020600010002000300798000d0037002d030700f6
:102070009e00900070c8b300804878000000eb001c
:102080003007980006003700260307009e009000e6
:10209000d0c8b300804878000000eb0030079800fb
:1020a0003e0090000080fa00000006000c00fa00dc
:1020b0001007980021079800320798001e00900032
:1020c0009040780040c6b30080cf50000600320038
:1020d000be00900090c8b300804878000000eb007c
:1020e0005007980032003700c0e921001040780006
:1020f0000004e00006003200be00900010c1b300f2
:10210000804878000000eb00500798002800370056
:10211000fc0207001e009000706090000080fb0031
:10212000400798004e0090000000e00013003200cd
:102130004e0090000000e000170035004e009000b7
:10214000e30f500014003c001e009000f600400019
:102150002e0090009624020000000000004f78003e
:10216000f0020700be0090000040eb0080487800bd
:102170001e80fb00500798000d003700e9020700a1
:10218000be00900070c8b300804878000000eb00eb
:102190005007980006003700e2020700be009000da
:1021a000d0c8b300804878000000eb0050079800ca
:1021b0005e0090000080fa00000006000e00fa00a9
:1021c00020079800310798002e009000904078007a
:1021d00040c6b30080cf500007003200be00900020
:1021e00090c8b300804878006000b800500798009d
:1021f000610798006d003700c0e9210010407800a9
:102200000004e00007003200be009000b0c8b30038
:10221000804878006011b800520798006307980062
:1022200062003700b70207002e0090007060900037
:102230000080fb0040079800ce019000e18f510024
:102240001d0032004e009000e10f500004003c00e1
:10225000ce0090000100e000450032004c00370045
:102260004e019000e20f510039003200ce01900083
:10227000e38f510001003200450037002e0090002e
:1022800050019000e0019000703c8100813c810091
:10229000001f510001975900a2020700be009000e4
:1022a0000040eb00804878001e00be0050079800f8
:1022b000610798003d0037002e009000606090009c
:1022c0000080fb00e20f50000100320014003700d4
:1022d0002e0090008008900070009000e00f5000e9
:1022e000e08f580005003a002e0090001009900081
:1022f000a0099000028fbe00040037002e0090005d
:102300007001900080099000028fbe0085020700d6
:10231000be0090000040eb008048780008003700c5
:102320002e0090007001900080099000028fbe0086
:102330007c020700be0090000040eb00804878005f
:102340001e00be0050079800610798001700370074
:1023500074020700be0090000040eb008048780047
:102360006011b80052079800630798000f0037000b
:102370006c020700be00900070c8b300804878006f
:102380006000b80050079800610798000700370008
:1023900064020700be009000d0c8b30080487800f7
:1023a0006011b80052079800630798005e00900023
:1023b000ee0090000080fa00000006000800fa001d
:1023c00010079800210798001e00900090407800a8
:1023d00040c6b30080cf500006003200ae0090002f
:1023e00090c8b300804878000000eb0030079800e8
:1023f0001c003700c0e92100104078000004e00014
:1024000006003200ae009000b0c8b30080487800eb
:102410008000eb00310798001200370039020700f6
:102420001e009000f0609000014f78001e80fb00bd
:1024300060004000e30f500004003e00ae0090003a
:102440000040eb008048780003003700ae009000a9
:10245000d0c8b30080487800320207001e80fb001d
:10246000300798003e0090000080fa00000006004f
:102470000800fa00000f7800110798001e0078008d
:102480009040780040c6b30080cf50000600320074
:102490009e00900090c8b300804878000000eb00d8
:1024a0003007980040003700c0e921001040780054
:1024b0000004e000060032009e009000b0c8b300a7
:1024c000804878000000eb003007980036003700a5
:1024d0000c0207001e007800706090000080fb0076
:1024e000200798002e009000e20f500007003c00eb
:1024f0002e009000e10f500014003d002e009000cf
:102500000000e0001b003200210037002e00900088
:10251000e30f5000010032001d0037001e0078005c
:10252000bb0107008040eb001e0078005b01070044
:10253000fc0107009e0090000040eb0080487800fe
:102540001000200030079800170037008040eb0093
:102550001e00780051010700f20107009e00900064
:102560000040eb0080487800100020003007980001
:102570000d003700eb0107009e00900070c8b3000b
:10258000804878000000eb00300798000600370014
:10259000e40107009e009000d0c8b3008048780096
:1025a0000000eb00300798003e0090000080fa0029
:1025b000000006001000fa0010079800414798003c
:1025c00032079800430798001e0090009040780062
:1025d00040c6b30080cf500006003200ce0090000d
:1025e00090c8b300804878000000eb0070079800a6
:1025f00067003700c0e92100104078000004e000c7
:1026000006003200ce009000b0c8b30080487800c9
:102610008000eb00710798005d003700b9010700ea
:102620001e009000706090000080fb006007980022
:102630006e009000e20f500007003c00ee0090009a
:10264000e18f50003e003d006e0090000000e00071
:102650004200320048003700ee009000e38f500047
:1026600001003200440037001e009000680107009e
:102670004e0090008040eb00014878004e409000f2
:102680000080fb00500798005e009000e30f5000b0
:1026900007003200de009000e48f5000130032008b
:1026a0005e0090000000e000210032001d003700b5
:1026b0001e00900090009000010f78001e00e000c6
:1026c000060032001e009000a00090001e0178005d
:1026d0001e0090000200010015003700ce0090009f
:1026e000f0c8b30080487800110037001e00900049
:1026f00090009000010f78001e00e00005003200fd
:102700001e017800be0090001e0090000200010033
:1027100007003700ce009000f0c8b3008048780072
:1027200003003700ce00900040c8b3008048780016
:102730007c0107001000200070079800140037008b
:1027400078010700ce009000e0c8b3008048780010
:1027500011002000710798000d003700710107007b
:10276000ce00900070c8b300804878000000eb00f5
:1027700070079800060037006a010700ce0090003d
:10278000d0c8b300804878008000eb007107980043
:102790007e0090000080fa00000006000200fa00af
:1027a000a03c8100b84c020000000000004f7800ff
:1027b0001e80fb000080fa00000006000400fa0002
:1027c000b05081000000e00003003a000000eb0080
:1027d0001007980013003700b0508100000f7800f8
:1027e0001e00780030009000b05089009e007800f4
:1027f0000000eb00b00098009e0078000000eb00a5
:10280000c0009800603c81000000e800603c890046
:10281000503c81000000e900503c89001e00780017
:10282000100798001e0090000080fa0000000600cb
:102830000200fa00000f78009e0078000040eb00d4
:10284000f06098009e0078000040eb00e060980087
:102850001e0178006000b800100998002109980056
:102860001e0178006000b8005001980061019800d6
:102870009e0078000000eb00900098009e00780019
:102880000000eb00a00098009e007800f0c3b300a9
:10289000e05098009e0078000040eb00f050980057
:1028a0009e0078000000eb00c0009800b15081004d
:1028b0001e007800310098001e007800b05089009a
:1028c000603c81000000e900603c8900503c8100d0
:1028d0000000e800503c89000080fa00000006007b
:1028e0000800fa006079220001282000de220200a0
:1028f0000000000080b5220001022000de2202005c
:10290000000000006079220010079800e07b2200a0
:10291000000f78000000eb00200798001700370038
:102920009e00900040c6b300804878009e00900052
:102930000040eb00f06098001e0090009e007800c0
:10294000310098009e009000f0c3b300e050980062
:102950009e0090000040eb00f05098001e00900098
:102960008002b00010079800800220001e0f400077
:102970002e0090000000e800200798002e00900034
:10298000ee0f5000e6ff36009e00900040c6b300f8
:10299000804878009e0090000040eb00f0609800b6
:1029a0009e0090000000eb00b00098009e00900098
:1029b000f0c3b300e05098009e0090000040eb0090
:1029c000f05098006000b800703c8900813c89009c
:1029d0000000eb00603c890000012000503c8900b1
:1029e00060792200b050890010002000aa4902003e
:1029f00000000000903c89000000eb00aa490200a2
:102a000000000000a03c8900a1142900903c810036
:102a1000660147008e1702000000000051152900d2
:102a2000a03c8100660147008e17020000000000f4
:102a3000020007000080fa00000006000200fa0011
:102a400061b5220030002000801f78000000eb00fc
:102a5000801f7800060a200007002000810278000d
:102a6000d4ff2f00a3c0b30082a122008000eb009e
:102a7000e06921005e50020000000000e48757007a
:102a8000f11529000e017800a0c0b300f253020036
:102a9000000000000080fa00000006000a00fa00b2
:102aa00030079800014f98003e00900031c0b300fd
:102ab000716098000e489000e14f50000b003a0002
:102ac0003e00900010099000a0099000703c810029
:102ad000813c810002004000838048003e0190005c
:102ae00050019800610198001b0037003e009000e3
:102af0008008900070009000e00f5000e08f5800b8
:102b00000b003a003e00900010099000a0099000d0
:102b1000703c8100813c81000200400083804800bd
:102b20003e01900050019800610198000a003700b2
:102b30003e0090007001900080099000703c810080
:102b4000813c810002004000838048003e019000eb
:102b500050019800610198003e009000e000900054
:102b600050009000670f60001e0078004200dd00fa
:102b70008000780080b52200008040001007980097
:102b80001e009000100078000000e0000a003a00eb
:102b90001e009000be00900001087800be0090006a
:102ba0000000eb00b00098009e0090001000200094
:102bb00090009800110037001e00900090007800ef
:102bc000210798001e009000be00900001087800c8
:102bd0003e009000ae009000310098002e00900062
:102be000be009000410098001e0090001000900070
:102bf0008000e8001e00900011009800be009000c8
:102c00000000eb00c00098000080fa000000060001
:102c10000a00fa00400798004e009000e000900083
:102c200050009000670f60001e0078004200dd0039
:102c30008000780080b522000080400010079800d6
:102c40001e009000900078004e009000808f500091
:102c50000d003a004e0090003000900030079800c0
:102c60001e009000be009000010878003e00900019
:102c70000000e00013003200be0090000000eb00f6
:102c8000c00098000f0037004e00900040009000f8
:102c9000300798004e009000300090002007980008
:102ca0003e009000ae009000310098002e00900091
:102cb0000000e000030032002e009000be009000f3
:102cc00041009800ce00900010c0b300f060980062
:102cd000ce0090000000eb00b0009800ce00900005
:102ce0000000eb00c00098001e0090001000900053
:102cf0008000e9001e009000110098000080fa009a
:102d0000000006000200fa00903c81000e017800ed
:102d10008000eb002e4b0200000000000080fa0053
:102d2000000006000000fa00903c8100b84c020050
:102d3000000000000080fa00000006000e00fa000b
:102d400060079800a03c81006a0147008000eb000a
:102d50002e4b020000000000eaff0700703c8100db
:102d6000813c810061004000e0804800703c8900a7
:102d7000813c8900703c8100813c8100670f6000cc
:102d80001e0078004200dd008000780080b522003f
:102d900000804000100798001e009000900078000e
:102da00041079800250037004e0090003000900049
:102db000300798004e00900050019000e001900014
:102dc000703c8100813c8100800f5100818f59004f
:102dd00018003a004e0090009000900021079800e3
:102de0002e0090000000e000050032004e00900030
:102df000a00090002e0190004e0090000200010003
:102e00004e00900082ff07004e009000606090002e
:102e1000e24f500004003a0011c0b3004e00900091
:102e20001eff070003003700ce00900020c0b30053
:102e3000f06098003e009000400798004e0090001f
:102e40000000e000d8ff3a00b6ff0700bdff3700e2
:102e50000c00fa00200798003107980042079800fc
:102e60000000eb00000f7800c0e92100104078005e
:102e70000004e00006003200ce00900010c1b30054
:102e8000804878000000eb005007980020003700d1
:102e90002e009000104078000080fb000000e90048
:102ea000e30f500015003e0010028000000f780074
:102eb000210420009140780000ceb30000c07000d3
:102ec00042e0b7002e009000ef0040003e0090006e
:102ed00096060700204798001e0078001002880020
:102ee000ce0090000040eb00804878002e4090001b
:102ef0000080fb005007980005003700ce009000ce
:102f000010c0b300804878000000eb005007980024
:102f10005e0090000080fa00000006000a00fa003f
:102f20002007980031079800420798000000eb0046
:102f3000000f7800c0e92100104078000004e00094
:102f400004003200ce00900020c1b3008048780019
:102f5000270037002e009000104078000080fb0012
:102f60000000e900e30f50000e003e001002800058
:102f7000000f7800210420009140780000ceb300bb
:102f800000c0700042e0b7003e00900082060700db
:102f9000204798002e409000ef4f500005003e0063
:102fa0000a003700ce00900010c0b30080487800bf
:102fb0000f0037001e00780010028800ce0090003d
:102fc000b0c0b30080487800090037002e009000a0
:102fd0006f004000be009000540607001e007800fd
:102fe00010028800ce0090000040eb00804878007e
:102ff0000080fa00000006002400fa007007980024
:10300000010f9800120f9800230f9800340f9800ba
:103010000000eb00000f78008e0890000000eb002d
:10302000800878007e009000600798006e00900095
:103030009000780051079800190037005e0090005a
:10304000104078000080fb00101798001e109000c0
:10305000e20f50000c0032009e109000e38f5000f1
:10306000090032001e109000e10f500006003200ef
:10307000be08900010c0b300804878008000eb00cc
:10308000011798006d0137006e0090000080e80085
:10309000600798006e00900090007800510798003b
:1030a0005e0090000000e000e4ff3a00c0e921006b
:1030b000104078000004e00006003200be089000d6
:1030c00020c0b300804878000000eb000017980093
:1030d0005a013700d0e92100104078000004e000d8
:1030e00006003200be089000d0c0b30080487800cf
:1030f0008000eb000117980050013700100280009b
:10310000000f7800210420009140780000ceb30029
:1031100000c0700042e0b7000040eb00604798003c
:103120000000eb00200798000040eb0020479800cb
:10313000fe009000610798006e00900090007800fb
:10314000510798008d0037005e0090001040780015
:103150000080fb00700f98007e089000e20f500086
:1031600044003200fe089000e38f5000040032005b
:103170007e089000e10f5000200032006e00370002
:103180005e009000200090000000e0001700320078
:103190005e009000200090008000e9005e0090003a
:1031a000210098000e089000de00900001087800d1
:1031b0000e0890000080e800000f980010c0b300d7
:1031c000604798009e0890000000eb00800878009f
:1031d0001e0890000080e800100f98002e0090005c
:1031e0000000e800200798005e0037002e409000a5
:1031f0000004a000204798005a0037005e009000ad
:10320000100090000000e000160032005e00900008
:10321000900090001e089000010878001e089000a1
:103220000080e800100f9800de0090000000eb0026
:10323000900098000e089000de00900001087800d1
:103240000e0890000080e800000f980010c0b30046
:10325000604798002e0090000000e80020079800ca
:10326000400037002e4090000014a0002047980036
:103270003c0037005e00900010009000400798006e
:103280004e009000600090000000e0002600320038
:103290004e00900040019000920078001e089000bf
:1032a000010878001e0890000080e800100f9800c8
:1032b0008280e8004e009000410098004e0090008f
:1032c000c00090004e00900020009000808f5000c1
:1032d00004003a004e009000900090004e009000d4
:1032e000410098004e009000600090008000e900ce
:1032f0004e009000610098000e089000de009000e3
:10330000010878000e0890000080e800000f980087
:1033100010c0b300604798002e0090000000e80045
:10332000200798000f0037002e4090000024a000d6
:10333000204798000b0037001e007800100288001c
:103340008e0890000000eb0080087800be08900016
:1033500010c0b30080487800ae00900001179800bc
:10336000b60037006e0090000080e800600798000b
:103370006e00900090007800510798005e00900069
:103380000000e00070ff3a006e409000e14f5000f6
:103390000b003a008e0890000000eb0080087800d7
:1033a0001e00780010028800be0890000040eb006c
:1033b00080487800ae009000011798009f00370009
:1033c00082ff800080ff8000e05890002e40900037
:1033d00080c0700000c8b30000c070006059980041
:1033e00081ff80000040eb00f058980080ff8000d3
:1033f000ae089000610898007e009000cf020700a0
:103400001e0078001002880091040700110280005d
:10341000010f7800210420009140780000ceb30015
:1034200000c0700042e0b70080ff8000705890003c
:103430000080fb00600f98006e0890000000e00024
:1034400004003200ee089000e28f500001003200cc
:103450001a00370080ff8000900890005107980004
:103460005e0090000000e0000d0032000e089000a9
:10347000de009000010878000e0890000080e8004f
:10348000000f98008e0890000000eb008008780084
:103490002e0090000000e800200798000a00370086
:1034a00080ff800011c0b3007158980080ff800039
:1034b000fe009000180307000300370080ff800023
:1034c000fe0090001403070080ff800070589000f9
:1034d0000080fb00500f98005e0890000000e000a4
:1034e00004003200de089000e28f50002d00320010
:1034f000360037005e009000104078000080fb002e
:10350000400f98004e089000e10f50001600350063
:10351000ce089000e28f50000b0034004e0890005f
:10352000e30f5000010032000f0037009e089000aa
:103530000000eb00800878001e0890000080e80082
:10354000100f98001300370080ff8000b008900033
:103550001e089000010878001e0890000080e80016
:10356000100f98000b0037009e00780011028800b1
:103570008e0890000000eb0080087800be089000e4
:1035800010c0b300804878002e009000001798000b
:103590002a003700be0890000040eb008048780009
:1035a000130037009e0890000000eb0080087800b0
:1035b0001e0890000080e800100f9800be089000e0
:1035c000e0c0b30080487800090037009e089000f2
:1035d0000000eb00800878001e0890000080e800e2
:1035e000100f9800be089000a0c0b300804878007b
:1035f00081ff80000040eb00e058980081ff8000d0
:103600000040eb00f058980081ff80000000eb00c4
:103610009008980081ff80000000eb00a00898004f
:1036200081ff80000000eb00b00898009e00780049
:10363000110288002e009000001798000e109000d4
:103640000080fa00000006000000fa00548002002a
:10365000000000003803070058030700a603070016
:10366000030307009e3002000000000060390200e2
:103670000000000022490200000000006e03070065
:103680008503070070140200000000006280020041
:1036900000000000aa820200000000000080fa0082
:1036a000000006000000fa0090ea210010407800b7
:1036b000e14f500009003a00c0e9210010407800b5
:1036c000e14f400005003200c0e9210010407800c1
:1036d0008040e800c0e92100014878000080fa003d
:1036e000000006000200fa000000eb00000f780066
:1036f00090ea210010407800e14f500055003a0058
:1037000010028000000f7800210420009140780012
:1037100000ceb30000c0700042e0b700c0e9210055
:10372000104078000004e00005003200c0e92100ec
:10373000104078008040e900c0e92100014878008d
:10374000c0e92100104078000004e0003f003a008a
:10375000d0e92100104078000004e0003b003a006e
:103760005d040700f0e9210090407800e0e92100c5
:103770001040780080cf500034003200f0e9210082
:10378000104078000080fb0081ff21000000400015
:1037900060807800a0ff8800a2ff800032109000b7
:1037a000c210900061004000e08048003011980095
:1037b00041119800d0d28000e1d280006100400029
:1037c000e0804800d0d28800e1d28800f0e92100f2
:1037d000104078006140600061406000614060001e
:1037e0006140600000414000012d200091407800c0
:1037f000d0cfb30000c0600002407000d0e2b7003c
:10380000d042a900d062a900d082a900e982a90013
:10381000e9a2a900e9c2a900f0e92100104078005e
:10382000e14060000040eb0000c0600061406000cb
:10383000c700dd00e9c2bf000074a10001407000b4
:10384000e9e2b70012800200000000001e007800cc
:10385000100288000080fa00000006000200fa0052
:103860000000eb00000f780090ea21001040780083
:10387000e14f500016003a0010028000000f78005f
:10388000210420009140780000ceb30000c07000f9
:1038900042e0b700c0e92100104078000004e000d9
:1038a00009003a00d0e9210010407800e14f4000c3
:1038b00005003200d0e92100104078008040e80087
:1038c000d0e92100014878001e007800100288002d
:1038d0000080fa00000006000200fa000000eb0081
:1038e000000f780090ea210010407800e14f50006e
:1038f00024003a0010028000000f7800210420000c
:103900009140780000ceb30000c0700042e0b700e4
:10391000d0e92100104078000004e00017003200d8
:10392000d0e92100104078008040e900d0e9210072
:1039300001487800d0e92100104078000004e00040
:103940000b003a00c0e92100104078000004e000bc
:1039500004003a001e007800100288003c030700b3
:10396000080037001e0078001002880005003700ac
:103970001e00780010028800020037001e00780048
:10398000100288000080fa00000006000000fa0023
:1039900090ea2100104078000004e00010003a0096
:1039a000cd030700f0e9210090407800e0e9210014
:1039b00001487800f0e92100104078000080fb0009
:1039c00081ff21000000400060807800a0ff880097
:1039d000a0ff800080ff8800507f020000000000f0
:1039e0000080fa00000006000200fa000000eb0070
:1039f000000f780020002000a65702000000000001
:103a000010028000000f780021042000914078000f
:103a100000ceb30000c0700042e0b7006000b80004
:103a200060f5880071f588001e007800100288009b
:103a300040062000a657020000000000100280008f
:103a4000000f7800210420009140780000ceb300e0
:103a500000c0700042e0b70060f5800071f58000a2
:103a600090ea8800a1ea8800a1d5210010c0b30027
:103a7000804878001e007800100288000080fa005c
:103a8000000006000800fa000000eb00000f7800bc
:103a9000b08002000000000010028000000f7800db
:103aa000210420009140780000ceb30000c07000d7
:103ab00042e0b700303c8100413c810061004000a1
:103ac000e0804800303c8900413c89009e0078003d
:103ad0001102880090ea210010407800e14f500068
:103ae00073003a00806a2200104078000080fb00da
:103af000300798003e009000e10f50000a003200ad
:103b0000be009000e28f50000a0032003e0090009c
:103b10000000e000010032000c00370010c0b300cc
:103b2000204798000e0037000040eb002047980027
:103b30000b00370010c0b30020479800816a2200b4
:103b400010c0b300804878000500370010c0b300f3
:103b500020479800816a22000040eb0080487800ee
:103b60002e4090000004e00051003200b1ff8000c0
:103b7000210798004900370010028000000f7800ec
:103b8000210420009140780000ceb30000c07000f6
:103b900042e0b7002e009000600890000000e000b6
:103ba000390032002e009000600890008000e9008b
:103bb0002e009000610898002e0090006008900090
:103bc0000000e00030003a002e00900060589000a5
:103bd0008080fb0070032000008060000000e00097
:103be0000a0032002e009000e058900080ccb30014
:103bf00080c060002e00900061589800ae009000d8
:103c000010c0b300f058980003003700ae009000d9
:103c10000040eb00f05898002e0090006058900093
:103c20000080fb004300de000000a2006100600095
:103c30000004e000140032002e009000c0609000ec
:103c400000ea21001040780080c0700000ea2100e6
:103c5000014878002e009000206090000081fb0059
:103c60002e009000206090008080fb0010ea210070
:103c7000e14078002e0090003060900080c070001d
:103c800010ea2100017178002e009000f0009000f1
:103c9000210798001e007800100288002e00900076
:103ca00080609000f0c3b30080cf5000b2ff3a00b4
:103cb0000080fa00000006000000fa00e011200079
:103cc0000080fa00000006000000fa000080fa0000
:103cd000000006000c00fa00300798004107980029
:103ce000224f9800334f98003e00900060409000b3
:103cf0008080fb0000fc280061417800224798008a
:103d00002e4090000080fb00be0090006600400046
:103d100001004000104090008080fb0000fc280063
:103d200061417800124798002e4090000080fb000f
:103d30004300dd00804078001e40900000c040003d
:103d4000004f78001e80fb0081ff21000000400032
:103d50006081780022079800ae0090000000eb0020
:103d6000e00898002e009000ce00900031089800e6
:103d70002e00900060589000804078002e489000ff
:103d800000c0ea0000c06000804078002e00900073
:103d9000615898002e0090003e499000725898009b
:103da0002e009000605890000080fb004300de0071
:103db0000000a200610060000004e0001200320078
:103dc0002e009000c060900000ea210010407800b2
:103dd00080c0700000ea2100014878002e40900069
:103de0000081fb002e4090008080fb0010ea210043
:103df000e14078002e0090003060900080c070009c
:103e000010ea210001717800be0090002e009000a1
:103e1000980007002e009000200890000000e000ad
:103e2000070032002e009000a00890002e009000a5
:103e3000b90007002e009000be0090001108980005
:103e40001e80fb000080fa00000006000400fa005b
:103e50001007980080ff80009e00900011089800d5
:103e600080ff8000206090000081fb0080ff8000c8
:103e7000206090000080fb009e00900066004000e3
:103e8000010040009040900080ff80003060900072
:103e900080c070001e0090000200400066004000dc
:103ea000114098001e009000e040900080ff8000cc
:103eb0004060900080c070001e009000614098003b
:103ec00080ff8000a0609000014f78001e81fb0001
:103ed0009e80fb0010ea210061407800804078005d
:103ee00080ff80003060900000c0ea0000c06000e9
:103ef0008040780010ea2100017178009e80fb006c
:103f000010ea2100614078000004e00009003a0056
:103f100080ff80004060900080c0ea0000ea21003d
:103f20001040780000c060008040780000ea210066
:103f3000014878000080fa00000006000800fa003e
:103f40003007980081ff80000000eb009008980087
:103f500080ff8000be009000210898003e00900085
:103f6000200798002e00900090007800110798001c
:103f70001e00370080ff8000206090000081fb0061
:103f800080ff8000206090000080fb009e00900079
:103f900066004000010040009040900080ff8000db
:103fa0003060900080c070001e0090000200400051
:103fb00066004000114098001e009000e040900014
:103fc00080ff80004060900080c070001e00900064
:103fd000614098002e0090000080e80020079800c3
:103fe0002e00900090007800110798001e009000ad
:103ff0000000e000dfff3a0080ff8000a06090003a
:10400000014f78001e81fb009e80fb0010ea21001a
:10401000614078008040780080ff80003060900030
:1040200000c0ea0000c060008040780010ea210073
:10403000017178009e80fb0010ea21006140780049
:104040000004e00009003a0080ff8000406090001a
:1040500080c0ea0000ea21001040780000c0600043
:104060008040780000ea2100014878000080fa00d2
:10407000000006000600fa001007980021079800cb
:104080001e009000a0609000014f78001e81fb0090
:104090001e80fb00ae009000660040000100400062
:1040a00010409000804078001e009000306090002a
:1040b00000c0ea0000c06000804078002e00900040
:1040c0000200400066004000114098001e80fb0086
:1040d000ae009000660040000100400010409000db
:1040e0000004e0000a003a002e00900060409000ba
:1040f000804078001e0090004060900000c0ea0000
:1041000000c06000804078002e0090006140980060
:104110000080fa00000006000c00fa00400798003a
:10412000510798004e009000a06090002147980031
:104130004e009000c0609000114798004e00900023
:10414000b0609000014f78005e009000300798004a
:104150003e0090009000780021079800280037006a
:104160002e4090000081fb002e4090000080fb005c
:10417000ae0090006600400001004000104090003a
:10418000804078001e40780000c0ea0000c0600057
:10419000804078002e009000020040006600400041
:1041a000114098002e4090000080fb00ae0090006f
:1041b0006600400001004000104090000004e00054
:1041c00009003a002e009000604090008040780086
:1041d0001e40900000c0ea0000c0600080407800ef
:1041e0002e009000614098003e0090000080e800a2
:1041f000300798003e00900090007800210798005a
:104200002e0090000000e000d5ff3a000080fa0088
:10421000000006000600fa0020079800ae0090009b
:104220000040eb00e04098002e0090006700400046
:10423000100798000040eb00004f7800070037009f
:104240009e0090000040eb00804878001e00900027
:104250000000e800100798001e4fe80070c0b3008f
:104260009e4f1000f6ff36000080fa0000000600a6
:104270000600fa0000a6210001282000cf00070058
:1042800000a621001007980000a82100000f780068
:104290000000eb0020079800140037009e009000fb
:1042a0000040eb00804878001e0090009e007800df
:1042b000110098009e009000f0c3b300f0489800f1
:1042c0009e0090000040eb00805098001e0090007f
:1042d0000002b00010079800000220001e0f4000ee
:1042e0002e0090000000e800200798002e009000ab
:1042f000f20f5000e9ff36009e0090000040eb00f6
:10430000804878009e0090000000eb00900098002c
:104310009e009000f0c3b300f04898009e0090000b
:104320000040eb008050980000a62100f0d28800e9
:104330000080fa00000006000000fa006000b800eb
:10434000303c8900413c8900c1e921000040eb007c
:1043500080487800d1e921000040eb0080487800d7
:10436000a1ea21000040eb008048780091ea21009a
:104370000040eb00804878006000b800d0d2880090
:10438000e1d288006000b80060f5880071f588000f
:104390006000b800b0ea8800c1ea88006000b80098
:1043a00090ea8800a1ea8800a1d521000040eb0036
:1043b000804878000080fa00000006000400fa003f
:1043c00001ea21000040eb008048780010ea21005b
:1043d000000f78000040eb002047980007003700ee
:1043e0009e0078000040eb00804878001e0fe80037
:1043f0002e4090000040e800204798002e4090009a
:10440000e74f5000f6ff3600e1e921000040eb00e5
:1044100080487800f1e921000040eb0080487800f6
:104420000000eb00a0ff88000000eb0080ff880088
:104430000080fa00000006000200fa00e1fe210000
:1044400030002000801f78000000eb00801f780003
:10445000060a200007002000810278000082eb009d
:10446000f3c3b30002eb21008000eb00c04e22003a
:104470005e50020000000000e4875700010c290094
:104480000e017800f0c3b300f253020000000000f8
:104490000080fa00000006000200fa00a1e92100f5
:1044a00030002000801f78000000eb00801f7800a3
:1044b000060a20000700200081027800e4ff2f0098
:1044c000e3c3b300c2d521008000eb00805122007d
:1044d0005e50020000000000e4875700e10c290054
:1044e0000e017800e0c3b300f253020000000000a8
:1044f0000080fa00000006000600fa008007220093
:10450000016320002d00070080ff2100010820002a
:104510002a0007008007220010079800000c2200e4
:10452000000f78000040eb00404798001100370072
:104530001e0090009e007800710098009e00900080
:10454000f0c3b300807898009e0090000040eb001c
:10455000907898001e0090008004b000100798002a
:10456000800420001e0f40004e4090000040e800f4
:10457000404798004e409000f44f5000ecff36004a
:104580009e0090000000eb00f00098009e0090005c
:10459000f0c3b300807898009e0090000040eb00cc
:1045a000907898000000eb00b0ff880080072200a0
:1045b00090ff88000080fa00000006000400fa0066
:1045c000000f780011079800070037009e00780060
:1045d0000040eb00804878001e0fe8001e009000ad
:1045e0000000e900100798001e0090000000e000a5
:1045f000f6ff3a000080fa00000006000600fa000c
:10460000000f780011079800220798000b00370070
:104610001e009000904078001e007800014878004d
:104620001e0fe8001e0090000000e8001007980030
:104630002e0090000000e900200798002e00900056
:104640000000e000f2ff3a000080fa0000000600df
:104650000200fa000000eb00000f7800100280005a
:10466000000f7800210420009140780000ceb300b4
:1046700000c0700042e0b700c0e92100104078009f
:104680000004e00090003a00d0e9210010407800da
:104690000004e0008c003a008f000700f0e92100e0
:1046a00090407800e0e921001040780080cf500071
:1046b00085003200f0e92100104078000080fb0006
:1046c00081ff21000000400060807800a0ff88008a
:1046d000a2ff800032109000c210900061004000e4
:1046e000e08048003011980041119800d0d280003d
:1046f000e1d2800061004000e0804800d0d2880014
:10470000e1d28800f0e921001040780061406000ab
:104710006140600061406000614060000041400015
:10472000012d200091407800d0cfb30000c0600080
:1047300002407000d0e2b700f0e92100104078009c
:104740000080fb00620060000080d10061406000da
:10475000614060004201dd00012d200091407800a1
:10476000b0cfb30000c0600002407000d0e2b700dc
:10477000f0e92100104078000080fb006400600038
:104780004280de0061406000614060004301dd0066
:10479000012d20009140780070cfb30000c0600070
:1047a00002407000d0e2b700f0e92100104078002c
:1047b0000080fb00680060004380de006140600014
:1047c000614060004401dd00012d2000914078002f
:1047d000f0ceb30000c0600002407000d0e2b7002d
:1047e000f0e92100104078000080fb0070006000bc
:1047f0004480de0061406000614060004401dd00f3
:10480000912e200091407800f0ceb30000c06000ef
:1048100002407000e9e2b700f0e9210010407800a2
:104820008080fb0000022000008060004580de00e8
:1048300061406000614060004501dd00912e200074
:1048400091407800f0cdb30000c0600002407000dd
:10485000e9e2b700f0e92100104078008080fb0019
:1048600000042000008060004680de00614060009f
:10487000614060004601dd00912e200091407800eb
:10488000f0cbb30000c0600002407000e9e2b70066
:10489000f0e92100104078008080fb000008200033
:1048a000008060004780de0061406000c700dd00de
:1048b000e9c2bf000074a10001407000e9e2b70046
:1048c000907f0200000000001e00780010028800a7
:1048d0000080fa00000006000200fa0000ea210051
:1048e000104078008080fb0000fc2800614f7800b9
:1048f0001e80fb004300dd00004178009e80fb002d
:1049000010ea2100614078008080fb0000fc280054
:10491000614078000040410080407800f0e92100cb
:10492000014878000080fa00000006000600fa0046
:1049300010079800210798000040eb00004f780016
:104940000b0037002e009000904078001e00900071
:10495000014878001e0090000000e8001007980051
:104960002e0090000000e800200798001e4fe8008d
:104970002e009000104078000004e000f1ff3a00a3
:104980009e0090000040eb00804878001e80fb00f5
:104990000080fa00000006000400fa0010079800ea
:1049a0000040eb00004f7800040037001e0090002c
:1049b0000000e800100798001e4fe8001e0090005d
:1049c000104078000004e000f8ff3a001e80fb0071
:1049d0000080fa00000006000400fa0010079800aa
:1049e0000000eb00000f780010028000000f78003c
:1049f000210420009140780000ceb30000c0700078
:104a000042e0b70060f5800071f580006100400071
:104a1000e080480060f5880071f588001e0078008d
:104a2000100288008480020000000000eeff3700c2
:104a30000400fa00100798000000eb00000f780057
:104a400003003700800c2000a65702000000000081
:104a5000a0d52100104078000004e000f9ff3200ea
:104a600090ea8000a1ea80004206200003002000b6
:104a7000ee0202000000000090ea8800a1ea88002f
:104a800090ea8000a1ea8000e00f5000e08f58001b
:104a900006003a0001d521000040eb008048780074
:104aa00000c0eb003256020000000000100280003f
:104ab000000f7800210420009140780000ceb30060
:104ac00000c0700042e0b70060f5800071f5800022
:104ad000b0ea8800c1ea88006000b80060f588008c
:104ae00071f588001e00780010028800b0ea80008e
:104af000c1ea800092ea8000a3ea8000ee02020090
:104b0000000000008040780040c6b30081405000a3
:104b100000d52100014878008e80020000000000ce
:104b20000400070040062000a65702000000000015
:104b3000deff37000c00fa000040eb00004f780069
:104b400022003700e40047001e4078004e55020066
:104b500000000000104798001e4090000004e00094
:104b600019003a001e80fb0081ff21000000400078
:104b700060817800120798001e0090000000e0009d
:104b8000110032001e009000e10f50000e003200b4
:104b90001e009000200190001e009000c0009000b8
:104ba0003000900000004000800051001e00900086
:104bb000111898004e009000de0090001e01900039
:104bc00020199800311998001e4fe800f0c3b30077
:104bd0009e4f1000dbff36000080fa000000060048
:104be0001600fa00404798003107980042079800e5
:104bf000530798006407980075079800060f9800ff
:104c0000170f98000000eb00000f780010028000e2
:104c1000000f7800210420009140780000ceb300fe
:104c200000c0700042e0b70091ff800011079800bb
:104c30001e0090000000e000a70032001e0090005f
:104c40007000900090ff88001e017800120288001a
:104c50001e009000be019000030878001e00900026
:104c6000ce409000016098009e0090000040eb0054
:104c7000e05898009e0090000040eb00f05898002b
:104c80009e0090000000eb00e00898001e009000dd
:104c90000e099000120098001e0090006e01900016
:104ca000fe01900032009800430098001e00900022
:104cb000ce019000230098001e0090009e089000f6
:104cc000510098001e0090005e0190006200980064
:104cd0009e0090000040eb00d06098004e40900095
:104ce0000080fb004300de00804078001e00900042
:104cf000216098004e409000e74060001e00900048
:104d0000116098001e009000206090008080fb00e1
:104d1000100020000100dd00804078001e0090009f
:104d2000416098001e009000106090008080fb00a1
:104d3000100020000100dd00804078001e0090007f
:104d4000316098009e0090000000eb0090089800f1
:104d50009e0090000000eb00a00898009e009000cc
:104d60000000eb00c00898009e0090000000eb00df
:104d7000b00898001e0190006000b8003011980043
:104d8000411198001e0190006000b8007011980059
:104d9000011998001e0190006000b80050119800a1
:104da000611198009e0090000000eb0090189800a0
:104db0001e0190006000b800201998003119980079
:104dc0009e009000f0c3b300807898009e00900091
:104dd0000040eb00907898001e009000a280020036
:104de000000000001e00900068800200000000002b
:104df00013028000030f7800210420009140780006
:104e000000ceb30000c0700042e0b7004e409000fa
:104e10000080fb0081ff21000000400001004000f5
:104e20009e00900001087800b1ff80001e009000f5
:104e3000710098009e0090000000eb008008980030
:104e4000b0ff80000000e00003003200b0ff8000ef
:104e50001e019000020898009e019000b3ff880098
:104e60001e009000c060900000ea21001040780011
:104e700080c0700000ea2100014878001e00900008
:104e8000206090000081fb001e00900020609000d8
:104e90008080fb0010ea2100e14078001e009000b5
:104ea0003060900080c0700010ea2100017178002d
:104eb000a0ea2100104078008040e800a0ea21002c
:104ec000014878001e007800100288008000eb0086
:104ed000210f9800040037001e017800120288009c
:104ee00023042000230f98002e0890000080fa0071
:104ef000000006001200fa003007980041079800f1
:104f0000224f9800630798000000eb00000f780024
:104f10003e00900010407800e54f5000060032003f
:104f2000ee00900010c0b300804878000000eb0055
:104f3000000f98009c003700ae48900000c8b300f6
:104f400000c06000304798003e4090000004e00040
:104f5000060032002e4890000074a100204f9800f7
:104f600010c0b30020479800020037000040eb005b
:104f700020479800ee0090000040eb008048780049
:104f800010028000000f780021042000914078007a
:104f900000ceb30000c0700042e0b7002e48900081
:104fa0000080fb00700798007e009000e10f500029
:104fb0005b0032007e009000e10f500004003c00d6
:104fc0007e0090000000e0003b0032006d003700e2
:104fd0007e009000e20f5000040032007e0090003e
:104fe000e30f50001b003200660037003e009000c7
:104ff000a00090004e009000008060002007980004
:10500000ae0090004e009000808f50000b003a00e0
:105010002e409000e14f50000b003a003e009000ff
:10502000a00090002e0090000080ea0080806000c8
:105030003e0090002100980003003700ee00900031
:1050400000c7b300804878001e0078001002880076
:10505000530037003e009000a00090004e009000ea
:1050600000806000200798002e0090000000e00003
:105070000b0032002e409000e14f50000b003a0030
:105080003e009000a00090002e0090000080ea00fa
:10509000808060003e0090002100980003003700ef
:1050a000ee00900000c7b300804878001e00780032
:1050b000100288003a0037003e0090002000900067
:1050c0008080ea004e009000008060002007980079
:1050d000ae0090004e009000808f50000a003a0011
:1050e0002e409000e14f50000a003a003e00900030
:1050f000a00090002e009000808070003e00900084
:105100002100980003003700ee00900000c7b300b4
:10511000804878001e0078001002880020003700c8
:105120003e009000200090008080ea004e00900039
:1051300000806000200798002e0090000000e00032
:105140000a0032002e409000e14f50000a003a0061
:105150003e009000a00090002e0090008080700023
:105160003e0090002100980003003700ee00900000
:1051700000c7b300804878001e0078001002880045
:10518000070037001e007800100288000000eb00c6
:1051900020079800ee009000f0c6b3008048780029
:1051a0002e009000000f98000e0890000080fa007a
:1051b000000006000a00fa00200798003107980056
:1051c0000000eb00000f7800c0e9210010407800db
:1051d0000004e00006003200be00900000c1b300f1
:1051e000804878000000eb00400798002b00370053
:1051f00011028000010f7800210420009140780006
:1052000000ceb30000c0700042e0b70070ea80003a
:10521000100798001e0090000000e0001800320007
:1052200070ea80001000900070ea88009e009000f4
:1052300050c0b300804878001e009000ae0090007f
:10524000210098009e0090000000eb009000980064
:105250009e009000f0c3b300e04098009e009000d4
:105260000040eb00f04098001e007800100288001b
:10527000be0090000040eb00804878000500370039
:105280009e00780011028800be00900020c7b30085
:10529000804878001e009000400798004e00900063
:1052a0000080fa00000006001200fa004007980093
:1052b000214f9800620798000000eb00000f780073
:1052c000c0e92100104078000004e0000600320030
:1052d000ee009000f0c0b300804878004e009000cf
:1052e000000f98007c0037004e00900010407800be
:1052f000e54f500006003200ee00900010c0b300f1
:10530000804878004e009000000f9800720037002f
:1053100010028000000f78002104200091407800e6
:1053200000ceb30000c0700042e0b7004e00900015
:10533000100090000000e0000300320010c0b30035
:1053400060479800020037000040eb00604798007b
:105350002e4890000080fb00700798007e009000af
:105360000000e000040032007e009000e10f5000d9
:10537000250032004f0037006e4090000004e0002e
:1053800019003a00ce009000f0c3b300e04098004e
:10539000ce0090000040eb00f0409800ce0090005e
:1053a0000040eb008048780071ea80004e009000d9
:1053b00011009800ce0090000000eb00a0009800c3
:1053c0004e00900070ea88001e00780010028800ed
:1053d000ee0090000040eb00804878000000eb00f9
:1053e000100798003a0037001e007800100288006d
:1053f000ee00900090c4b300804878004e0090000a
:1054000010079800320037004e0090001000900006
:1054100020079800060037008000eb002e00900067
:10542000790307002e0090001000780020079800f4
:105430002e0090000000e000f7ff3a00ce00900040
:10544000f0c3b300e0409800ce0090000040eb00b5
:10545000f0409800ce0090000040eb0080487800bb
:1054600071ea80004e00900011009800ce0090007c
:105470000000eb00a00098004e00900070ea880049
:105480001e007800100288006e409000e14f50002e
:1054900002003a0028230200000000006e00900085
:1054a0008040eb00014878000000eb0010079800f6
:1054b000070037001e00780010028800ee00900000
:1054c00070c0b300804878004e009000100798002c
:1054d0001e009000000f98000e0890000080fa0057
:1054e000000006000c00fa00200798003107980021
:1054f000420798000000eb00000f7800c0e921008f
:10550000104078000004e00006003200ce00900059
:1055100010c1b300804878000000eb0050079800ed
:105520002100370010028000000f780021042000c5
:105530009140780000ceb30000c0700042e0b70098
:105540002e00900010407800e54f50000800320017
:105550001e00780010028800ce00900010c0b3003a
:10556000804878000000eb00500798000e003700dc
:105570002e009000e60040003e00900096240200bd
:1055800000000000204798001e00780010028800ec
:10559000ce0090000040eb00804878002e40900044
:1055a0000080fb00500798005e0090000080fa0029
:1055b000000006000a00fa00200798003107980052
:1055c000420798000000eb00000f7800c0e92100be
:1055d000104078000004e00004003200ce0090008b
:1055e00020c1b300804878002800370010028000f6
:1055f000000f7800210420009140780000ceb30015
:1056000000c0700042e0b7002e009000104078000b
:10561000e54f5000060032001e007800100288009e
:10562000ce00900010c0b30080487800170037000b
:105630003e009000cc2402000000000020479800ab
:105640002e409000ef4f5000060036001e007800fc
:1056500010028800ce00900030c7b3008048780068
:105660000a0037002e00900066004000be00900047
:1056700096240200000000001e007800100288003e
:10568000ce0090000040eb00804878000080fa00d7
:10569000000006002400fa00200f9800310f980047
:1056a000025f9800530f9800640f98000000eb0011
:1056b000000f7800c0e92100104078000004e000ed
:1056c00006003200ee08900020c0b3008048780049
:1056d0000000eb00101798003e013700d0e92100d0
:1056e000104078000004e00006003200ee08900050
:1056f000d0c0b300804878008000eb0011179800fc
:10570000340137002e08900010407800e54f50001b
:1057100006003200ee08900010c0b3008048780008
:105720000000eb00101798002a0137008e589000f7
:1057300000c8b30000c06000404798004e40900091
:105740000004e00007003200f1c7b3000e589000db
:1057500001406000005f980010c0b300204798002f
:10576000020037000040eb00204798001102800043
:10577000010f7800210420009140780000ceb30092
:1057800000c0700042e0b7000e5890000080fb009f
:10579000001798000e109000e10f500082003200b8
:1057a0008e109000e18f500004003c000e1090001d
:1057b0000000e00055003200a10037008e1090007c
:1057c000e28f5000040032000e109000e30f5000f2
:1057d000280032009a0037002e089000a0009000a8
:1057e0003e0890000080600030079800be009000e6
:1057f0003e089000808f500015003a002e40900027
:10580000e14f500007003a002e089000a0009000e1
:105810003e0090000080ea00808060002e0890002a
:105820002100980080ff8000be0090005108980081
:105830001e00780010028800ee0890000040eb0087
:1058400080487800be00900011179800e1003700f2
:10585000e80047005e0a90008e5990003e099000d3
:105860002e089000e20107001e0078001002880058
:105870007d0037002e089000a00090003e089000a8
:1058800000806000300798003e0090000000e000bb
:10589000150032002e409000e14f500007003a0002
:1058a0002e089000a00090003e0090000080ea00ca
:1058b000808060002e0890002100980080ff80000a
:1058c000be009000510898001e0078001002880069
:1058d000ee0890000040eb0080487800be00900089
:1058e00011179800bb003700e80047005e0a9000df
:1058f0008e5990003e0990002e089000bc010700d0
:105900001e00780010028800570037002e08900013
:10591000200090008080ea003e0890000080600037
:1059200030079800be0090003e089000808f500025
:1059300014003a002e409000e14f500006003a005b
:105940002e089000a00090003e0090008080700023
:105950002e0890002100980080ff8000be0090007b
:10596000510898001e00780010028800ee08900090
:105970000040eb0080487800be00900011179800ae
:1059800094003700e80047005e0a90008e599000ae
:105990003e0990002e089000950107001e00780037
:1059a00010028800300037002e0890002000900080
:1059b0008080ea003e089000008060003007980078
:1059c0003e0090000000e000140032002e409000e5
:1059d000e14f500006003a002e089000a000900011
:1059e0003e009000808070002e08900021009800fa
:1059f00080ff8000be009000510898001e007800d3
:105a000010028800ee0890000040eb00804878000b
:105a1000be009000111798006e003700e8004700a4
:105a20005e0a90008e5990003e0990002e0890006a
:105a30006f0107001e007800100288000a0037007e
:105a40009e007800110288000000eb0030079800eb
:105a5000ee089000f0c6b300804878003e00900049
:105a6000101798005b003700282302000000000098
:105a700011028000010f780021042000914078007d
:105a800000ceb30000c0700042e0b70080ff80008d
:105a9000705890000004e0001e00320080ff80007b
:105aa000f05890003147980081ff80000040eb00e3
:105ab000f0589800680047000a02070081ff800044
:105ac0000040eb00e05898001e00780010028800ab
:105ad0000000eb00300798003e4090000080fb0083
:105ae000e20f50000100320004003700ee08900081
:105af000e0c0b3008048780003003700ee08900053
:105b0000a0c0b30080487800be0090001117980034
:105b10003000370080ff8000d008900031079800e7
:105b20002e409000e14f500023003a000e589000a4
:105b30000080fb00700f98007e0890000000e000dd
:105b400015003500fe089000e18f50000b00340076
:105b50007e089000e30f50000f003c002e089000dc
:105b6000a00090003e0090000080ea00808060006d
:105b70002e089000210098000f0037002e0890009a
:105b8000a00090003e009000808070002e089000e1
:105b900021009800080037009e007800110288005c
:105ba000ee089000f0c6b300804878000000eb00db
:105bb00010179800070037009e0078001102880037
:105bc000ee0890000040eb00804878003e00900016
:105bd000101798001e1090000080fa0000000600c8
:105be0000400fa000000eb00000f780010028000b3
:105bf000000f7800210420009140780000ceb3000f
:105c000000c0700042e0b70080ff8000d008900024
:105c1000110798001e007800100288001e009000f6
:105c20000080fa00000006001a00fa0060079800e1
:105c30007107980002579800130f98000000eb00be
:105c4000000f78006e00900010407800e54f500083
:105c5000060032009e08900010c0b3008048780013
:105c60000000eb00400f9800bb00370011028000dd
:105c7000010f7800210420009140780000ceb3008d
:105c800000c0700042e0b7000e5090000080fb00a2
:105c9000300f98003e0890000000e0000400320041
:105ca000be089000e18f5000090032000f0037005d
:105cb0006e009000a00090007e0090000080ea003e
:105cc000808060006e009000210098000f00370077
:105cd0006e009000a00090007e0090008080700018
:105ce0006e00900021009800080037001e00780028
:105cf000100288009e08900010c7b300804878000a
:105d00008000eb00410f9800930037000040eb004b
:105d1000004f98006e00900010009000500798000f
:105d2000720037005e009000204890000080fb0069
:105d3000200f98002e089000e10f50004c00320018
:105d4000ae089000e18f500004003c002e08900047
:105d50000000e0003000320059003700ae0890002b
:105d6000e28f5000040032002e089000e30f500034
:105d700016003200520037006e009000a000900024
:105d80005e009000400090000080600020079800b6
:105d90005e009000c00090002e009000808f5000a8
:105da0004f003a00ae0090005e0090001601070020
:105db000204798002e409000e14f500048003a00e4
:105dc00010c0b300004f9800450037006e009000ef
:105dd000a00090005e0090004000900000806000f5
:105de000200798002e0090000000e0003c003200e8
:105df000ae0090005e00900003010700204798006d
:105e00002e409000e14f500035003a0010c0b30022
:105e1000004f9800320037006e0090002000900084
:105e20008080ea005e0090004000900000806000ea
:105e3000200798005e009000c00090002e009000a7
:105e4000808f500026003a00ae0090005e00900067
:105e5000ed000700204798002e409000e14f5000d1
:105e60001f003a0010c0b300004f98001c0037001c
:105e70006e009000200090008080ea005e0090009c
:105e80004000900000806000200798002e009000e5
:105e90000000e00012003200ae0090005e009000b2
:105ea000d9000700204798002e409000e14f500095
:105eb0000b003a0010c0b300004f980008003700f4
:105ec0009e007800110288009e089000f0c6b30082
